{"abi":[{"type":"constructor","inputs":[{"name":"_admin","type":"address","internalType":"address"}],"stateMutability":"nonpayable"},{"type":"receive","stateMutability":"payable"},{"type":"function","name":"UPLOAD_REWARD","inputs":[],"outputs":[{"name":"","type":"uint256","internalType":"uint256"}],"stateMutability":"view"},{"type":"function","name":"admin","inputs":[],"outputs":[{"name":"","type":"address","internalType":"address"}],"stateMutability":"view"},{"type":"function","name":"claimReward","inputs":[{"name":"videoId","type":"uint256","internalType":"uint256"}],"outputs":[],"stateMutability":"nonpayable"},{"type":"function","name":"fundContract","inputs":[],"outputs":[],"stateMutability":"payable"},{"type":"function","name":"getContractBalance","inputs":[],"outputs":[{"name":"","type":"uint256","internalType":"uint256"}],"stateMutability":"view"},{"type":"function","name":"getUserVideos","inputs":[{"name":"user","type":"address","internalType":"address"}],"outputs":[{"name":"","type":"uint256[]","internalType":"uint256[]"}],"stateMutability":"view"},{"type":"function","name":"getVideo","inputs":[{"name":"videoId","type":"uint256","internalType":"uint256"}],"outputs":[{"name":"creator","type":"address","internalType":"address"},{"name":"title","type":"string","internalType":"string"},{"name":"ipfsHash","type":"string","internalType":"string"},{"name":"category","type":"string","internalType":"string"},{"name":"likes","type":"uint256","internalType":"uint256"},{"name":"views","type":"uint256","internalType":"uint256"},{"name":"verified","type":"bool","internalType":"bool"},{"name":"rewardClaimed","type":"bool","internalType":"bool"}],"stateMutability":"view"},{"type":"function","name":"hasLiked","inputs":[{"name":"","type":"uint256","internalType":"uint256"},{"name":"","type":"address","internalType":"address"}],"outputs":[{"name":"","type":"bool","internalType":"bool"}],"stateMutability":"view"},{"type":"function","name":"likeVideo","inputs":[{"name":"videoId","type":"uint256","internalType":"uint256"}],"outputs":[],"stateMutability":"nonpayable"},{"type":"function","name":"uploadVideo","inputs":[{"name":"title","type":"string","internalType":"string"},{"name":"ipfsHash","type":"string","internalType":"string"},{"name":"category","type":"string","internalType":"string"}],"outputs":[{"name":"","type":"uint256","internalType":"uint256"}],"stateMutability":"nonpayable"},{"type":"function","name":"userVideos","inputs":[{"name":"","type":"address","internalType":"address"},{"name":"","type":"uint256","internalType":"uint256"}],"outputs":[{"name":"","type":"uint256","internalType":"uint256"}],"stateMutability":"view"},{"type":"function","name":"verifyVideo","inputs":[{"name":"videoId","type":"uint256","internalType":"uint256"}],"outputs":[],"stateMutability":"nonpayable"},{"type":"function","name":"videoCounter","inputs":[],"outputs":[{"name":"","type":"uint256","internalType":"uint256"}],"stateMutability":"view"},{"type":"function","name":"videos","inputs":[{"name":"","type":"uint256","internalType":"uint256"}],"outputs":[{"name":"id","type":"uint256","internalType":"uint256"},{"name":"creator","type":"address","internalType":"address"},{"name":"title","type":"string","internalType":"string"},{"name":"ipfsHash","type":"string","internalType":"string"},{"name":"category","type":"string","internalType":"string"},{"name":"likes","type":"uint256","internalType":"uint256"},{"name":"views","type":"uint256","internalType":"uint256"},{"name":"verified","type":"bool","internalType":"bool"},{"name":"rewardClaimed","type":"bool","internalType":"bool"},{"name":"uploadTime","type":"uint256","internalType":"uint256"}],"stateMutability":"view"},{"type":"event","name":"RewardClaimed","inputs":[{"name":"videoId","type":"uint256","indexed":true,"internalType":"uint256"},{"name":"creator","type":"address","indexed":true,"internalType":"address"},{"name":"amount","type":"uint256","indexed":false,"internalType":"uint256"}],"anonymous":false},{"type":"event","name":"VideoLiked","inputs":[{"name":"videoId","type":"uint256","indexed":true,"internalType":"uint256"},{"name":"user","type":"address","indexed":true,"internalType":"address"}],"anonymous":false},{"type":"event","name":"VideoUploaded","inputs":[{"name":"videoId","type":"uint256","indexed":true,"internalType":"uint256"},{"name":"creator","type":"address","indexed":true,"internalType":"address"},{"name":"title","type":"string","indexed":false,"internalType":"string"}],"anonymous":false},{"type":"event","name":"VideoVerified","inputs":[{"name":"videoId","type":"uint256","indexed":true,"internalType":"uint256"}],"anonymous":false}],"bytecode":{"object":"0x608060405234801561001057600080fd5b5060405161137d38038061137d83398101604081905261002f91610054565b600080546001600160a01b0319166001600160a01b0392909216919091179055610084565b60006020828403121561006657600080fd5b81516001600160a01b038116811461007d57600080fd5b9392505050565b6112ea806100936000396000f3fe6080604052600436106100e15760003560e01c8063ae169a501161007f578063e6821bf511610059578063e6821bf514610263578063e905b00714610299578063f851a440146102b4578063ff476f6a146102ec57600080fd5b8063ae169a501461020e578063bd097e211461022e578063cec1c0921461023657600080fd5b8063492bb9b5116100bb578063492bb9b51461017a578063525d8e6f146101905780636f9fb98a146101b05780638fb7092c146101c357600080fd5b806327260d5c146100ed5780632893eca21461010f5780634875e9fd1461014c57600080fd5b366100e857005b600080fd5b3480156100f957600080fd5b5061010d610108366004610da5565b61030c565b005b34801561011b57600080fd5b5061012f61012a366004610da5565b610406565b604051610143989796959493929190610e04565b60405180910390f35b34801561015857600080fd5b5061016c610167366004610f1e565b61064c565b604051908152602001610143565b34801561018657600080fd5b5061016c60015481565b34801561019c57600080fd5b5061010d6101ab366004610da5565b6107b5565b3480156101bc57600080fd5b504761016c565b3480156101cf57600080fd5b506101fe6101de366004610fc2565b600460209081526000928352604080842090915290825290205460ff1681565b6040519015158152602001610143565b34801561021a57600080fd5b5061010d610229366004610da5565b610866565b61010d610ac7565b34801561024257600080fd5b50610256610251366004610fee565b610b10565b6040516101439190611010565b34801561026f57600080fd5b5061028361027e366004610da5565b610b7c565b6040516101439a99989796959493929190611054565b3480156102a557600080fd5b5061016c662386f26fc1000081565b3480156102c057600080fd5b506000546102d4906001600160a01b031681565b6040516001600160a01b039091168152602001610143565b3480156102f857600080fd5b5061016c6103073660046110d9565b610d74565b806001548111156103385760405162461bcd60e51b815260040161032f90611103565b60405180910390fd5b600082815260046020908152604080832033845290915290205460ff16156103925760405162461bcd60e51b815260206004820152600d60248201526c105b1c9958591e481b1a5ad959609a1b604482015260640161032f565b60008281526002602052604081206005018054916103af83611131565b90915550506000828152600460209081526040808320338085529252808320805460ff1916600117905551909184917f252555045b2bb75bbf4e656932c7fc2d63e8e7d9acc300a6b55d6575a2c8d4289190a35050565b60006060806060600080600080886001548111156104365760405162461bcd60e51b815260040161032f90611103565b60008a81526002602081905260409091206001810154600582015460068301546007840154948401805494956001600160a01b03909416949093600387019360048801939092909160ff808216926101009092041690879061049790611158565b80601f01602080910402602001604051908101604052809291908181526020018280546104c390611158565b80156105105780601f106104e557610100808354040283529160200191610510565b820191906000526020600020905b8154815290600101906020018083116104f357829003601f168201915b5050505050965085805461052390611158565b80601f016020809104026020016040519081016040528092919081815260200182805461054f90611158565b801561059c5780601f106105715761010080835404028352916020019161059c565b820191906000526020600020905b81548152906001019060200180831161057f57829003601f168201915b505050505095508480546105af90611158565b80601f01602080910402602001604051908101604052809291908181526020018280546105db90611158565b80156106285780601f106105fd57610100808354040283529160200191610628565b820191906000526020600020905b81548152906001019060200180831161060b57829003601f168201915b50505050509450995099509950995099509950995099505050919395975091939597565b60008084511161068f5760405162461bcd60e51b815260206004820152600e60248201526d151a5d1b19481c995c5d5a5c995960921b604482015260640161032f565b60008351116106d55760405162461bcd60e51b815260206004820152601260248201527112541194c81a185cda081c995c5d5a5c995960721b604482015260640161032f565b600180549060006106e583611131565b909155505060018054600081815260026020819052604090912091825591810180546001600160a01b0319163317905590810161072286826111e1565b506003810161073185826111e1565b506004810161074084826111e1565b504260088201553360008181526003602090815260408083206001805482548083018455928652939094200191909155905490517f914131121ce37b9b876b9e7ff21f008ec2799db04096a542b4b7e67f80af1d13906107a19089906112a1565b60405180910390a350506001549392505050565b6000546001600160a01b031633146107fc5760405162461bcd60e51b815260206004820152600a60248201526927b7363c9030b236b4b760b11b604482015260640161032f565b8060015481111561081f5760405162461bcd60e51b815260040161032f90611103565b600082815260026020526040808220600701805460ff191660011790555183917fa0cbc112e345e720e446cc08a8613f3326f6d0d2f2005c85d818ce3560e18c2891a25050565b806001548111156108895760405162461bcd60e51b815260040161032f90611103565b600082815260026020526040902060018101546001600160a01b031633146108e75760405162461bcd60e51b81526020600482015260116024820152702737ba103b34b232b79031b932b0ba37b960791b604482015260640161032f565b600781015460ff166109305760405162461bcd60e51b8152602060048201526012602482015271159a59195bc81b9bdd081d995c9a599a595960721b604482015260640161032f565b6007810154610100900460ff16156109835760405162461bcd60e51b815260206004820152601660248201527514995dd85c9908185b1c9958591e4818db185a5b595960521b604482015260640161032f565b662386f26fc100004710156109da5760405162461bcd60e51b815260206004820152601d60248201527f496e73756666696369656e7420636f6e74726163742062616c616e6365000000604482015260640161032f565b60078101805461ff0019166101001790556040516000903390662386f26fc10000908381818185875af1925050503d8060008114610a34576040519150601f19603f3d011682016040523d82523d6000602084013e610a39565b606091505b5050905080610a835760405162461bcd60e51b815260206004820152601660248201527514995dd85c99081d1c985b9cd9995c8819985a5b195960521b604482015260640161032f565b604051662386f26fc100008152339085907f24b5efa61dd1cfc659205a97fb8ed868f3cb8c81922bab2b96423e5de1de2cb79060200160405180910390a350505050565b6000546001600160a01b03163314610b0e5760405162461bcd60e51b815260206004820152600a60248201526927b7363c9030b236b4b760b11b604482015260640161032f565b565b6001600160a01b038116600090815260036020908152604091829020805483518184028101840190945280845260609392830182828015610b7057602002820191906000526020600020905b815481526020019060010190808311610b5c575b50505050509050919050565b600260208190526000918252604090912080546001820154928201805491936001600160a01b03169291610baf90611158565b80601f0160208091040260200160405190810160405280929190818152602001828054610bdb90611158565b8015610c285780601f10610bfd57610100808354040283529160200191610c28565b820191906000526020600020905b815481529060010190602001808311610c0b57829003601f168201915b505050505090806003018054610c3d90611158565b80601f0160208091040260200160405190810160405280929190818152602001828054610c6990611158565b8015610cb65780601f10610c8b57610100808354040283529160200191610cb6565b820191906000526020600020905b815481529060010190602001808311610c9957829003601f168201915b505050505090806004018054610ccb90611158565b80601f0160208091040260200160405190810160405280929190818152602001828054610cf790611158565b8015610d445780601f10610d1957610100808354040283529160200191610d44565b820191906000526020600020905b815481529060010190602001808311610d2757829003601f168201915b505050506005830154600684015460078501546008909501549394919390925060ff80831692610100900416908a565b60036020528160005260406000208181548110610d9057600080fd5b90600052602060002001600091509150505481565b600060208284031215610db757600080fd5b5035919050565b6000815180845260005b81811015610de457602081850181015186830182015201610dc8565b506000602082860101526020601f19601f83011685010191505092915050565b6001600160a01b038916815261010060208201819052600090610e298382018b610dbe565b90508281036040840152610e3d818a610dbe565b90508281036060840152610e518189610dbe565b6080840197909752505060a081019390935290151560c0830152151560e090910152949350505050565b634e487b7160e01b600052604160045260246000fd5b600082601f830112610ea257600080fd5b813567ffffffffffffffff80821115610ebd57610ebd610e7b565b604051601f8301601f19908116603f01168101908282118183101715610ee557610ee5610e7b565b81604052838152866020858801011115610efe57600080fd5b836020870160208301376000602085830101528094505050505092915050565b600080600060608486031215610f3357600080fd5b833567ffffffffffffffff80821115610f4b57600080fd5b610f5787838801610e91565b94506020860135915080821115610f6d57600080fd5b610f7987838801610e91565b93506040860135915080821115610f8f57600080fd5b50610f9c86828701610e91565b9150509250925092565b80356001600160a01b0381168114610fbd57600080fd5b919050565b60008060408385031215610fd557600080fd5b82359150610fe560208401610fa6565b90509250929050565b60006020828403121561100057600080fd5b61100982610fa6565b9392505050565b6020808252825182820181905260009190848201906040850190845b818110156110485783518352928401929184019160010161102c565b50909695505050505050565b8a81526001600160a01b038a1660208201526101406040820181905260009061107f8382018c610dbe565b90508281036060840152611093818b610dbe565b905082810360808401526110a7818a610dbe565b60a0840198909852505060c081019490945291151560e084015215156101008301526101209091015295945050505050565b600080604083850312156110ec57600080fd5b6110f583610fa6565b946020939093013593505050565b602080825260149082015273159a59195bc8191bd95cc81b9bdd08195e1a5cdd60621b604082015260600190565b60006001820161115157634e487b7160e01b600052601160045260246000fd5b5060010190565b600181811c9082168061116c57607f821691505b60208210810361118c57634e487b7160e01b600052602260045260246000fd5b50919050565b601f8211156111dc57600081815260208120601f850160051c810160208610156111b95750805b601f850160051c820191505b818110156111d8578281556001016111c5565b5050505b505050565b815167ffffffffffffffff8111156111fb576111fb610e7b565b61120f816112098454611158565b84611192565b602080601f831160018114611244576000841561122c5750858301515b600019600386901b1c1916600185901b1785556111d8565b600085815260208120601f198616915b8281101561127357888601518255948401946001909101908401611254565b50858210156112915787850151600019600388901b60f8161c191681555b5050505050600190811b01905550565b6020815260006110096020830184610dbe56fea26469706673582212207f9f61f64fe0288d95b0e41fff15e3428eef28ce959de8de3f1974a83d71047064736f6c63430008130033","linkReferences":{}},"methodIdentifiers":{"UPLOAD_REWARD()":"e905b007","admin()":"f851a440","claimReward(uint256)":"ae169a50","fundContract()":"bd097e21","getContractBalance()":"6f9fb98a","getUserVideos(address)":"cec1c092","getVideo(uint256)":"2893eca2","hasLiked(uint256,address)":"8fb7092c","likeVideo(uint256)":"27260d5c","uploadVideo(string,string,string)":"4875e9fd","userVideos(address,uint256)":"ff476f6a","verifyVideo(uint256)":"525d8e6f","videoCounter()":"492bb9b5","videos(uint256)":"e6821bf5"},"id":4}