{"abi":[{"type":"constructor","inputs":[{"name":"_admin","type":"address","internalType":"address"}],"stateMutability":"nonpayable"},{"type":"receive","stateMutability":"payable"},{"type":"function","name":"UPLOAD_REWARD","inputs":[],"outputs":[{"name":"","type":"uint256","internalType":"uint256"}],"stateMutability":"view"},{"type":"function","name":"admin","inputs":[],"outputs":[{"name":"","type":"address","internalType":"address"}],"stateMutability":"view"},{"type":"function","name":"claimReward","inputs":[{"name":"videoId","type":"uint256","internalType":"uint256"}],"outputs":[],"stateMutability":"nonpayable"},{"type":"function","name":"fundContract","inputs":[],"outputs":[],"stateMutability":"payable"},{"type":"function","name":"getContractBalance","inputs":[],"outputs":[{"name":"","type":"uint256","internalType":"uint256"}],"stateMutability":"view"},{"type":"function","name":"getUserVideos","inputs":[{"name":"user","type":"address","internalType":"address"}],"outputs":[{"name":"","type":"uint256[]","internalType":"uint256[]"}],"stateMutability":"view"},{"type":"function","name":"getVideo","inputs":[{"name":"videoId","type":"uint256","internalType":"uint256"}],"outputs":[{"name":"creator","type":"address","internalType":"address"},{"name":"title","type":"string","internalType":"string"},{"name":"ipfsHash","type":"string","internalType":"string"},{"name":"category","type":"string","internalType":"string"},{"name":"likes","type":"uint256","internalType":"uint256"},{"name":"views","type":"uint256","internalType":"uint256"},{"name":"verified","type":"bool","internalType":"bool"},{"name":"rewardClaimed","type":"bool","internalType":"bool"}],"stateMutability":"view"},{"type":"function","name":"hasLiked","inputs":[{"name":"","type":"uint256","internalType":"uint256"},{"name":"","type":"address","internalType":"address"}],"outputs":[{"name":"","type":"bool","internalType":"bool"}],"stateMutability":"view"},{"type":"function","name":"likeVideo","inputs":[{"name":"videoId","type":"uint256","internalType":"uint256"}],"outputs":[],"stateMutability":"nonpayable"},{"type":"function","name":"uploadVideo","inputs":[{"name":"title","type":"string","internalType":"string"},{"name":"ipfsHash","type":"string","internalType":"string"},{"name":"category","type":"string","internalType":"string"}],"outputs":[{"name":"","type":"uint256","internalType":"uint256"}],"stateMutability":"nonpayable"},{"type":"function","name":"userVideos","inputs":[{"name":"","type":"address","internalType":"address"},{"name":"","type":"uint256","internalType":"uint256"}],"outputs":[{"name":"","type":"uint256","internalType":"uint256"}],"stateMutability":"view"},{"type":"function","name":"verifyVideo","inputs":[{"name":"videoId","type":"uint256","internalType":"uint256"}],"outputs":[],"stateMutability":"nonpayable"},{"type":"function","name":"videoCounter","inputs":[],"outputs":[{"name":"","type":"uint256","internalType":"uint256"}],"stateMutability":"view"},{"type":"function","name":"videos","inputs":[{"name":"","type":"uint256","internalType":"uint256"}],"outputs":[{"name":"id","type":"uint256","internalType":"uint256"},{"name":"creator","type":"address","internalType":"address"},{"name":"title","type":"string","internalType":"string"},{"name":"ipfsHash","type":"string","internalType":"string"},{"name":"category","type":"string","internalType":"string"},{"name":"likes","type":"uint256","internalType":"uint256"},{"name":"views","type":"uint256","internalType":"uint256"},{"name":"verified","type":"bool","internalType":"bool"},{"name":"rewardClaimed","type":"bool","internalType":"bool"},{"name":"uploadTime","type":"uint256","internalType":"uint256"}],"stateMutability":"view"},{"type":"event","name":"RewardClaimed","inputs":[{"name":"videoId","type":"uint256","indexed":true,"internalType":"uint256"},{"name":"creator","type":"address","indexed":true,"internalType":"address"},{"name":"amount","type":"uint256","indexed":false,"internalType":"uint256"}],"anonymous":false},{"type":"event","name":"VideoLiked","inputs":[{"name":"videoId","type":"uint256","indexed":true,"internalType":"uint256"},{"name":"user","type":"address","indexed":true,"internalType":"address"}],"anonymous":false},{"type":"event","name":"VideoUploaded","inputs":[{"name":"videoId","type":"uint256","indexed":true,"internalType":"uint256"},{"name":"creator","type":"address","indexed":true,"internalType":"address"},{"name":"title","type":"string","indexed":false,"internalType":"string"}],"anonymous":false},{"type":"event","name":"VideoVerified","inputs":[{"name":"videoId","type":"uint256","indexed":true,"internalType":"uint256"}],"anonymous":false}],"bytecode":{"object":"0x60806040523480156200001157600080fd5b506040516200220b3803806200220b8339818101604052810190620000379190620000e8565b806000806101000a81548173ffffffffffffffffffffffffffffffffffffffff021916908373ffffffffffffffffffffffffffffffffffffffff160217905550506200011a565b600080fd5b600073ffffffffffffffffffffffffffffffffffffffff82169050919050565b6000620000b08262000083565b9050919050565b620000c281620000a3565b8114620000ce57600080fd5b50565b600081519050620000e281620000b7565b92915050565b6000602082840312156200010157620001006200007e565b5b60006200011184828501620000d1565b91505092915050565b6120e1806200012a6000396000f3fe6080604052600436106100e15760003560e01c8063ae169a501161007f578063e6821bf511610059578063e6821bf5146102c3578063e905b00714610309578063f851a44014610334578063ff476f6a1461035f576100e8565b8063ae169a5014610253578063bd097e211461027c578063cec1c09214610286576100e8565b8063492bb9b5116100bb578063492bb9b514610197578063525d8e6f146101c25780636f9fb98a146101eb5780638fb7092c14610216576100e8565b806327260d5c146100ed5780632893eca2146101165780634875e9fd1461015a576100e8565b366100e857005b600080fd5b3480156100f957600080fd5b50610114600480360381019061010f9190611264565b61039c565b005b34801561012257600080fd5b5061013d60048036038101906101389190611264565b61055d565b60405161015198979695949392919061138c565b60405180910390f35b34801561016657600080fd5b50610181600480360381019061017c9190611554565b6107e7565b60405161018e91906115fb565b60405180910390f35b3480156101a357600080fd5b506101ac6109f4565b6040516101b991906115fb565b60405180910390f35b3480156101ce57600080fd5b506101e960048036038101906101e49190611264565b6109fa565b005b3480156101f757600080fd5b50610200610b2e565b60405161020d91906115fb565b60405180910390f35b34801561022257600080fd5b5061023d60048036038101906102389190611642565b610b36565b60405161024a9190611682565b60405180910390f35b34801561025f57600080fd5b5061027a60048036038101906102759190611264565b610b65565b005b610284610e6d565b005b34801561029257600080fd5b506102ad60048036038101906102a8919061169d565b610efd565b6040516102ba9190611788565b60405180910390f35b3480156102cf57600080fd5b506102ea60048036038101906102e59190611264565b610f94565b6040516103009a999897969594939291906117aa565b60405180910390f35b34801561031557600080fd5b5061031e6111ba565b60405161032b91906115fb565b60405180910390f35b34801561034057600080fd5b506103496111c5565b604051610356919061185b565b60405180910390f35b34801561036b57600080fd5b5061038660048036038101906103819190611876565b6111e9565b60405161039391906115fb565b60405180910390f35b806001548111156103e2576040517f08c379a00000000000000000000000000000000000000000000000000000000081526004016103d990611902565b60405180910390fd5b6004600083815260200190815260200160002060003373ffffffffffffffffffffffffffffffffffffffff1673ffffffffffffffffffffffffffffffffffffffff16815260200190815260200160002060009054906101000a900460ff1615610480576040517f08c379a00000000000000000000000000000000000000000000000000000000081526004016104779061196e565b60405180910390fd5b6002600083815260200190815260200160002060050160008154809291906104a7906119bd565b919050555060016004600084815260200190815260200160002060003373ffffffffffffffffffffffffffffffffffffffff1673ffffffffffffffffffffffffffffffffffffffff16815260200190815260200160002060006101000a81548160ff0219169083151502179055503373ffffffffffffffffffffffffffffffffffffffff16827f252555045b2bb75bbf4e656932c7fc2d63e8e7d9acc300a6b55d6575a2c8d42860405160405180910390a35050565b60006060806060600080600080886001548111156105b0576040517f08c379a00000000000000000000000000000000000000000000000000000000081526004016105a790611902565b60405180910390fd5b6000600260008c815260200190815260200160002090508060010160009054906101000a900473ffffffffffffffffffffffffffffffffffffffff16816002018260030183600401846005015485600601548660070160009054906101000a900460ff168760070160019054906101000a900460ff1686805461063290611a34565b80601f016020809104026020016040519081016040528092919081815260200182805461065e90611a34565b80156106ab5780601f10610680576101008083540402835291602001916106ab565b820191906000526020600020905b81548152906001019060200180831161068e57829003601f168201915b505050505096508580546106be90611a34565b80601f01602080910402602001604051908101604052809291908181526020018280546106ea90611a34565b80156107375780601f1061070c57610100808354040283529160200191610737565b820191906000526020600020905b81548152906001019060200180831161071a57829003601f168201915b5050505050955084805461074a90611a34565b80601f016020809104026020016040519081016040528092919081815260200182805461077690611a34565b80156107c35780601f10610798576101008083540402835291602001916107c3565b820191906000526020600020905b8154815290600101906020018083116107a657829003601f168201915b50505050509450995099509950995099509950995099505050919395975091939597565b60008084511161082c576040517f08c379a000000000000000000000000000000000000000000000000000000000815260040161082390611ab1565b60405180910390fd5b6000835111610870576040517f08c379a000000000000000000000000000000000000000000000000000000000815260040161086790611b1d565b60405180910390fd5b60016000815480929190610883906119bd565b9190505550600060026000600154815260200190815260200160002090506001548160000181905550338160010160006101000a81548173ffffffffffffffffffffffffffffffffffffffff021916908373ffffffffffffffffffffffffffffffffffffffff160217905550848160020190816109009190611ce9565b50838160030190816109129190611ce9565b50828160040190816109249190611ce9565b50428160080181905550600360003373ffffffffffffffffffffffffffffffffffffffff1673ffffffffffffffffffffffffffffffffffffffff16815260200190815260200160002060015490806001815401808255809150506001900390600052602060002001600090919091909150553373ffffffffffffffffffffffffffffffffffffffff166001547f914131121ce37b9b876b9e7ff21f008ec2799db04096a542b4b7e67f80af1d13876040516109df9190611dbb565b60405180910390a36001549150509392505050565b60015481565b60008054906101000a900473ffffffffffffffffffffffffffffffffffffffff1673ffffffffffffffffffffffffffffffffffffffff163373ffffffffffffffffffffffffffffffffffffffff1614610a88576040517f08c379a0000000000000000000000000000000000000000000000000000000008152600401610a7f90611e29565b60405180910390fd5b80600154811115610ace576040517f08c379a0000000000000000000000000000000000000000000000000000000008152600401610ac590611902565b60405180910390fd5b60016002600084815260200190815260200160002060070160006101000a81548160ff021916908315150217905550817fa0cbc112e345e720e446cc08a8613f3326f6d0d2f2005c85d818ce3560e18c2860405160405180910390a25050565b600047905090565b60046020528160005260406000206020528060005260406000206000915091509054906101000a900460ff1681565b80600154811115610bab576040517f08c379a0000000000000000000000000000000000000000000000000000000008152600401610ba290611902565b60405180910390fd5b60006002600084815260200190815260200160002090503373ffffffffffffffffffffffffffffffffffffffff168160010160009054906101000a900473ffffffffffffffffffffffffffffffffffffffff1673ffffffffffffffffffffffffffffffffffffffff1614610c54576040517f08c379a0000000000000000000000000000000000000000000000000000000008152600401610c4b90611e95565b60405180910390fd5b8060070160009054906101000a900460ff16610ca5576040517f08c379a0000000000000000000000000000000000000000000000000000000008152600401610c9c90611f01565b60405180910390fd5b8060070160019054906101000a900460ff1615610cf7576040517f08c379a0000000000000000000000000000000000000000000000000000000008152600401610cee90611f6d565b60405180910390fd5b662386f26fc10000471015610d41576040517f08c379a0000000000000000000000000000000000000000000000000000000008152600401610d3890611fd9565b60405180910390fd5b60018160070160016101000a81548160ff02191690831515021790555060003373ffffffffffffffffffffffffffffffffffffffff16662386f26fc10000604051610d8b9061202a565b60006040518083038185875af1925050503d8060008114610dc8576040519150601f19603f3d011682016040523d82523d6000602084013e610dcd565b606091505b5050905080610e11576040517f08c379a0000000000000000000000000000000000000000000000000000000008152600401610e089061208b565b60405180910390fd5b3373ffffffffffffffffffffffffffffffffffffffff16847f24b5efa61dd1cfc659205a97fb8ed868f3cb8c81922bab2b96423e5de1de2cb7662386f26fc10000604051610e5f91906115fb565b60405180910390a350505050565b60008054906101000a900473ffffffffffffffffffffffffffffffffffffffff1673ffffffffffffffffffffffffffffffffffffffff163373ffffffffffffffffffffffffffffffffffffffff1614610efb576040517f08c379a0000000000000000000000000000000000000000000000000000000008152600401610ef290611e29565b60405180910390fd5b565b6060600360008373ffffffffffffffffffffffffffffffffffffffff1673ffffffffffffffffffffffffffffffffffffffff168152602001908152602001600020805480602002602001604051908101604052809291908181526020018280548015610f8857602002820191906000526020600020905b815481526020019060010190808311610f74575b50505050509050919050565b60026020528060005260406000206000915090508060000154908060010160009054906101000a900473ffffffffffffffffffffffffffffffffffffffff1690806002018054610fe390611a34565b80601f016020809104026020016040519081016040528092919081815260200182805461100f90611a34565b801561105c5780601f106110315761010080835404028352916020019161105c565b820191906000526020600020905b81548152906001019060200180831161103f57829003601f168201915b50505050509080600301805461107190611a34565b80601f016020809104026020016040519081016040528092919081815260200182805461109d90611a34565b80156110ea5780601f106110bf576101008083540402835291602001916110ea565b820191906000526020600020905b8154815290600101906020018083116110cd57829003601f168201915b5050505050908060040180546110ff90611a34565b80601f016020809104026020016040519081016040528092919081815260200182805461112b90611a34565b80156111785780601f1061114d57610100808354040283529160200191611178565b820191906000526020600020905b81548152906001019060200180831161115b57829003601f168201915b5050505050908060050154908060060154908060070160009054906101000a900460ff16908060070160019054906101000a900460ff1690806008015490508a565b662386f26fc1000081565b60008054906101000a900473ffffffffffffffffffffffffffffffffffffffff1681565b6003602052816000526040600020818154811061120557600080fd5b90600052602060002001600091509150505481565b6000604051905090565b600080fd5b600080fd5b6000819050919050565b6112418161122e565b811461124c57600080fd5b50565b60008135905061125e81611238565b92915050565b60006020828403121561127a57611279611224565b5b60006112888482850161124f565b91505092915050565b600073ffffffffffffffffffffffffffffffffffffffff82169050919050565b60006112bc82611291565b9050919050565b6112cc816112b1565b82525050565b600081519050919050565b600082825260208201905092915050565b60005b8381101561130c5780820151818401526020810190506112f1565b60008484015250505050565b6000601f19601f8301169050919050565b6000611334826112d2565b61133e81856112dd565b935061134e8185602086016112ee565b61135781611318565b840191505092915050565b61136b8161122e565b82525050565b60008115159050919050565b61138681611371565b82525050565b6000610100820190506113a2600083018b6112c3565b81810360208301526113b4818a611329565b905081810360408301526113c88189611329565b905081810360608301526113dc8188611329565b90506113eb6080830187611362565b6113f860a0830186611362565b61140560c083018561137d565b61141260e083018461137d565b9998505050505050505050565b600080fd5b600080fd5b7f4e487b7100000000000000000000000000000000000000000000000000000000600052604160045260246000fd5b61146182611318565b810181811067ffffffffffffffff821117156114805761147f611429565b5b80604052505050565b600061149361121a565b905061149f8282611458565b919050565b600067ffffffffffffffff8211156114bf576114be611429565b5b6114c882611318565b9050602081019050919050565b82818337600083830152505050565b60006114f76114f2846114a4565b611489565b90508281526020810184848401111561151357611512611424565b5b61151e8482856114d5565b509392505050565b600082601f83011261153b5761153a61141f565b5b813561154b8482602086016114e4565b91505092915050565b60008060006060848603121561156d5761156c611224565b5b600084013567ffffffffffffffff81111561158b5761158a611229565b5b61159786828701611526565b935050602084013567ffffffffffffffff8111156115b8576115b7611229565b5b6115c486828701611526565b925050604084013567ffffffffffffffff8111156115e5576115e4611229565b5b6115f186828701611526565b9150509250925092565b60006020820190506116106000830184611362565b92915050565b61161f816112b1565b811461162a57600080fd5b50565b60008135905061163c81611616565b92915050565b6000806040838503121561165957611658611224565b5b60006116678582860161124f565b92505060206116788582860161162d565b9150509250929050565b6000602082019050611697600083018461137d565b92915050565b6000602082840312156116b3576116b2611224565b5b60006116c18482850161162d565b91505092915050565b600081519050919050565b600082825260208201905092915050565b6000819050602082019050919050565b6116ff8161122e565b82525050565b600061171183836116f6565b60208301905092915050565b6000602082019050919050565b6000611735826116ca565b61173f81856116d5565b935061174a836116e6565b8060005b8381101561177b5781516117628882611705565b975061176d8361171d565b92505060018101905061174e565b5085935050505092915050565b600060208201905081810360008301526117a2818461172a565b905092915050565b6000610140820190506117c0600083018d611362565b6117cd602083018c6112c3565b81810360408301526117df818b611329565b905081810360608301526117f3818a611329565b905081810360808301526118078189611329565b905061181660a0830188611362565b61182360c0830187611362565b61183060e083018661137d565b61183e61010083018561137d565b61184c610120830184611362565b9b9a5050505050505050505050565b600060208201905061187060008301846112c3565b92915050565b6000806040838503121561188d5761188c611224565b5b600061189b8582860161162d565b92505060206118ac8582860161124f565b9150509250929050565b7f566964656f20646f6573206e6f74206578697374000000000000000000000000600082015250565b60006118ec6014836112dd565b91506118f7826118b6565b602082019050919050565b6000602082019050818103600083015261191b816118df565b9050919050565b7f416c7265616479206c696b656400000000000000000000000000000000000000600082015250565b6000611958600d836112dd565b915061196382611922565b602082019050919050565b600060208201905081810360008301526119878161194b565b9050919050565b7f4e487b7100000000000000000000000000000000000000000000000000000000600052601160045260246000fd5b60006119c88261122e565b91507fffffffffffffffffffffffffffffffffffffffffffffffffffffffffffffffff82036119fa576119f961198e565b5b600182019050919050565b7f4e487b7100000000000000000000000000000000000000000000000000000000600052602260045260246000fd5b60006002820490506001821680611a4c57607f821691505b602082108103611a5f57611a5e611a05565b5b50919050565b7f5469746c65207265717569726564000000000000000000000000000000000000600082015250565b6000611a9b600e836112dd565b9150611aa682611a65565b602082019050919050565b60006020820190508181036000830152611aca81611a8e565b9050919050565b7f4950465320686173682072657175697265640000000000000000000000000000600082015250565b6000611b076012836112dd565b9150611b1282611ad1565b602082019050919050565b60006020820190508181036000830152611b3681611afa565b9050919050565b60008190508160005260206000209050919050565b60006020601f8301049050919050565b600082821b905092915050565b600060088302611b9f7fffffffffffffffffffffffffffffffffffffffffffffffffffffffffffffffff82611b62565b611ba98683611b62565b95508019841693508086168417925050509392505050565b6000819050919050565b6000611be6611be1611bdc8461122e565b611bc1565b61122e565b9050919050565b6000819050919050565b611c0083611bcb565b611c14611c0c82611bed565b848454611b6f565b825550505050565b600090565b611c29611c1c565b611c34818484611bf7565b505050565b5b81811015611c5857611c4d600082611c21565b600181019050611c3a565b5050565b601f821115611c9d57611c6e81611b3d565b611c7784611b52565b81016020851015611c86578190505b611c9a611c9285611b52565b830182611c39565b50505b505050565b600082821c905092915050565b6000611cc060001984600802611ca2565b1980831691505092915050565b6000611cd98383611caf565b9150826002028217905092915050565b611cf2826112d2565b67ffffffffffffffff811115611d0b57611d0a611429565b5b611d158254611a34565b611d20828285611c5c565b600060209050601f831160018114611d535760008415611d41578287015190505b611d4b8582611ccd565b865550611db3565b601f198416611d6186611b3d565b60005b82811015611d8957848901518255600182019150602085019450602081019050611d64565b86831015611da65784890151611da2601f891682611caf565b8355505b6001600288020188555050505b505050505050565b60006020820190508181036000830152611dd58184611329565b905092915050565b7f4f6e6c792061646d696e00000000000000000000000000000000000000000000600082015250565b6000611e13600a836112dd565b9150611e1e82611ddd565b602082019050919050565b60006020820190508181036000830152611e4281611e06565b9050919050565b7f4e6f7420766964656f2063726561746f72000000000000000000000000000000600082015250565b6000611e7f6011836112dd565b9150611e8a82611e49565b602082019050919050565b60006020820190508181036000830152611eae81611e72565b9050919050565b7f566964656f206e6f742076657269666965640000000000000000000000000000600082015250565b6000611eeb6012836112dd565b9150611ef682611eb5565b602082019050919050565b60006020820190508181036000830152611f1a81611ede565b9050919050565b7f52657761726420616c726561647920636c61696d656400000000000000000000600082015250565b6000611f576016836112dd565b9150611f6282611f21565b602082019050919050565b60006020820190508181036000830152611f8681611f4a565b9050919050565b7f496e73756666696369656e7420636f6e74726163742062616c616e6365000000600082015250565b6000611fc3601d836112dd565b9150611fce82611f8d565b602082019050919050565b60006020820190508181036000830152611ff281611fb6565b9050919050565b600081905092915050565b50565b6000612014600083611ff9565b915061201f82612004565b600082019050919050565b600061203582612007565b9150819050919050565b7f526577617264207472616e73666572206661696c656400000000000000000000600082015250565b60006120756016836112dd565b91506120808261203f565b602082019050919050565b600060208201905081810360008301526120a481612068565b905091905056fea2646970667358221220bb8dca58a7e0f3aabf0eeceee4bec17fd3ae47d3bc01ca58629d009080d3f64664736f6c63430008130033","linkReferences":{}},"methodIdentifiers":{"UPLOAD_REWARD()":"e905b007","admin()":"f851a440","claimReward(uint256)":"ae169a50","fundContract()":"bd097e21","getContractBalance()":"6f9fb98a","getUserVideos(address)":"cec1c092","getVideo(uint256)":"2893eca2","hasLiked(uint256,address)":"8fb7092c","likeVideo(uint256)":"27260d5c","uploadVideo(string,string,string)":"4875e9fd","userVideos(address,uint256)":"ff476f6a","verifyVideo(uint256)":"525d8e6f","videoCounter()":"492bb9b5","videos(uint256)":"e6821bf5"},"id":4}