{"abi":[{"type":"constructor","inputs":[{"name":"_admin","type":"address","internalType":"address"}],"stateMutability":"nonpayable"},{"type":"function","name":"admin","inputs":[],"outputs":[{"name":"","type":"address","internalType":"address"}],"stateMutability":"view"},{"type":"function","name":"buyItem","inputs":[{"name":"itemId","type":"uint256","internalType":"uint256"}],"outputs":[],"stateMutability":"payable"},{"type":"function","name":"getItem","inputs":[{"name":"itemId","type":"uint256","internalType":"uint256"}],"outputs":[{"name":"seller","type":"address","internalType":"address"},{"name":"nftContract","type":"address","internalType":"address"},{"name":"tokenId","type":"uint256","internalType":"uint256"},{"name":"price","type":"uint256","internalType":"uint256"},{"name":"sold","type":"bool","internalType":"bool"},{"name":"buyer","type":"address","internalType":"address"},{"name":"itemType","type":"string","internalType":"string"}],"stateMutability":"view"},{"type":"function","name":"getUserListings","inputs":[{"name":"user","type":"address","internalType":"address"}],"outputs":[{"name":"","type":"uint256[]","internalType":"uint256[]"}],"stateMutability":"view"},{"type":"function","name":"itemCounter","inputs":[],"outputs":[{"name":"","type":"uint256","internalType":"uint256"}],"stateMutability":"view"},{"type":"function","name":"items","inputs":[{"name":"","type":"uint256","internalType":"uint256"}],"outputs":[{"name":"itemId","type":"uint256","internalType":"uint256"},{"name":"seller","type":"address","internalType":"address"},{"name":"nftContract","type":"address","internalType":"address"},{"name":"tokenId","type":"uint256","internalType":"uint256"},{"name":"price","type":"uint256","internalType":"uint256"},{"name":"sold","type":"bool","internalType":"bool"},{"name":"buyer","type":"address","internalType":"address"},{"name":"itemType","type":"string","internalType":"string"}],"stateMutability":"view"},{"type":"function","name":"listItem","inputs":[{"name":"nftContract","type":"address","internalType":"address"},{"name":"tokenId","type":"uint256","internalType":"uint256"},{"name":"price","type":"uint256","internalType":"uint256"},{"name":"itemType","type":"string","internalType":"string"}],"outputs":[{"name":"","type":"uint256","internalType":"uint256"}],"stateMutability":"nonpayable"},{"type":"function","name":"platformFeePercent","inputs":[],"outputs":[{"name":"","type":"uint256","internalType":"uint256"}],"stateMutability":"view"},{"type":"function","name":"setPlatformFee","inputs":[{"name":"newFeePercent","type":"uint256","internalType":"uint256"}],"outputs":[],"stateMutability":"nonpayable"},{"type":"function","name":"updatePrice","inputs":[{"name":"itemId","type":"uint256","internalType":"uint256"},{"name":"newPrice","type":"uint256","internalType":"uint256"}],"outputs":[],"stateMutability":"nonpayable"},{"type":"function","name":"userListings","inputs":[{"name":"","type":"address","internalType":"address"},{"name":"","type":"uint256","internalType":"uint256"}],"outputs":[{"name":"","type":"uint256","internalType":"uint256"}],"stateMutability":"view"},{"type":"function","name":"withdrawFees","inputs":[],"outputs":[],"stateMutability":"nonpayable"},{"type":"event","name":"ItemListed","inputs":[{"name":"itemId","type":"uint256","indexed":true,"internalType":"uint256"},{"name":"seller","type":"address","indexed":true,"internalType":"address"},{"name":"price","type":"uint256","indexed":false,"internalType":"uint256"},{"name":"itemType","type":"string","indexed":false,"internalType":"string"}],"anonymous":false},{"type":"event","name":"ItemPriceUpdated","inputs":[{"name":"itemId","type":"uint256","indexed":true,"internalType":"uint256"},{"name":"newPrice","type":"uint256","indexed":false,"internalType":"uint256"}],"anonymous":false},{"type":"event","name":"ItemSold","inputs":[{"name":"itemId","type":"uint256","indexed":true,"internalType":"uint256"},{"name":"buyer","type":"address","indexed":true,"internalType":"address"},{"name":"price","type":"uint256","indexed":false,"internalType":"uint256"}],"anonymous":false}],"bytecode":{"object":"0x608060405260fa60025534801561001557600080fd5b506040516113c33803806113c383398101604081905261003491610059565b600080546001600160a01b0319166001600160a01b0392909216919091179055610089565b60006020828403121561006b57600080fd5b81516001600160a01b038116811461008257600080fd5b9392505050565b61132b806100986000396000f3fe6080604052600436106100a75760003560e01c806386cfa7d31161006457806386cfa7d3146101835780638c639a85146101a3578063bfb231d2146101b9578063e7fb74c7146101ed578063eb18a9d814610200578063f851a4401461022d57600080fd5b806312e8e2c3146100ac5780633129e773146100ce578063476343ee1461010a5780635095709e1461011f5780636d6d00ed1461014d57806382367b2d14610163575b600080fd5b3480156100b857600080fd5b506100cc6100c7366004610e0e565b610265565b005b3480156100da57600080fd5b506100ee6100e9366004610e0e565b610300565b6040516101019796959493929190610e6d565b60405180910390f35b34801561011657600080fd5b506100cc610422565b34801561012b57600080fd5b5061013f61013a366004610ef6565b610548565b604051908152602001610101565b34801561015957600080fd5b5061013f60015481565b34801561016f57600080fd5b506100cc61017e366004610fcb565b61076e565b34801561018f57600080fd5b5061013f61019e366004610fed565b6108e2565b3480156101af57600080fd5b5061013f60025481565b3480156101c557600080fd5b506101d96101d4366004610e0e565b610913565b604051610101989796959493929190611017565b6100cc6101fb366004610e0e565b6109f8565b34801561020c57600080fd5b5061022061021b366004611077565b610da2565b6040516101019190611099565b34801561023957600080fd5b5060005461024d906001600160a01b031681565b6040516001600160a01b039091168152602001610101565b6000546001600160a01b031633146102b15760405162461bcd60e51b815260206004820152600a60248201526927b7363c9030b236b4b760b11b60448201526064015b60405180910390fd5b6103e88111156102fb5760405162461bcd60e51b81526020600482015260156024820152744665652063616e6e6f74206578636565642031302560581b60448201526064016102a8565b600255565b60008060008060008060608760015481111561032e5760405162461bcd60e51b81526004016102a8906110dd565b600089815260036020819052604090912060018101546002820154928201546004830154600584015460068501805495966001600160a01b03958616969086169560ff841693610100900416919081906103879061110a565b80601f01602080910402602001604051908101604052809291908181526020018280546103b39061110a565b80156104005780601f106103d557610100808354040283529160200191610400565b820191906000526020600020905b8154815290600101906020018083116103e357829003601f168201915b5050505050905098509850985098509850985098505050919395979092949650565b6000546001600160a01b031633146104695760405162461bcd60e51b815260206004820152600a60248201526927b7363c9030b236b4b760b11b60448201526064016102a8565b47806104ad5760405162461bcd60e51b81526020600482015260136024820152724e6f206665657320746f20776974686472617760681b60448201526064016102a8565b600080546040516001600160a01b039091169083908381818185875af1925050503d80600081146104fa576040519150601f19603f3d011682016040523d82523d6000602084013e6104ff565b606091505b50509050806105445760405162461bcd60e51b815260206004820152601160248201527015da5d1a191c985dd85b0819985a5b1959607a1b60448201526064016102a8565b5050565b60008083116105995760405162461bcd60e51b815260206004820152601c60248201527f5072696365206d7573742062652067726561746572207468616e20300000000060448201526064016102a8565b600180549060006105a98361115a565b91905055506040518061010001604052806001548152602001336001600160a01b03168152602001866001600160a01b0316815260200185815260200184815260200160001515815260200160006001600160a01b03168152602001838152506003600060015481526020019081526020016000206000820151816000015560208201518160010160006101000a8154816001600160a01b0302191690836001600160a01b0316021790555060408201518160020160006101000a8154816001600160a01b0302191690836001600160a01b03160217905550606082015181600301556080820151816004015560a08201518160050160006101000a81548160ff02191690831515021790555060c08201518160050160016101000a8154816001600160a01b0302191690836001600160a01b0316021790555060e08201518160060190816106f891906111c2565b5050336000818152600460209081526040808320600180548254808301845592865293909420019190915590549051919250907f57ef1efe280df4ab906fa621fa833fcd4e1eaf8667108a8725223d9cc6509fa79061075a9087908790611282565b60405180910390a350600154949350505050565b816001548111156107915760405162461bcd60e51b81526004016102a8906110dd565b600083815260036020526040902060018101546001600160a01b031633146107fb5760405162461bcd60e51b815260206004820152601c60248201527f4f6e6c792073656c6c65722063616e207570646174652070726963650000000060448201526064016102a8565b600581015460ff16156108505760405162461bcd60e51b815260206004820181905260248201527f43616e6e6f7420757064617465207072696365206f6620736f6c64206974656d60448201526064016102a8565b600083116108a05760405162461bcd60e51b815260206004820152601c60248201527f5072696365206d7573742062652067726561746572207468616e20300000000060448201526064016102a8565b6004810183905560405183815284907f0bfd84f586f186e4e2a0b575593a4b4b7735b4229f86de082fd9662d9324bb279060200160405180910390a250505050565b600460205281600052604060002081815481106108fe57600080fd5b90600052602060002001600091509150505481565b6003602081905260009182526040909120805460018201546002830154938301546004840154600585015460068601805495976001600160a01b0395861697908616969495939460ff841694610100909404909316929091906109759061110a565b80601f01602080910402602001604051908101604052809291908181526020018280546109a19061110a565b80156109ee5780601f106109c3576101008083540402835291602001916109ee565b820191906000526020600020905b8154815290600101906020018083116109d157829003601f168201915b5050505050905088565b80600154811115610a1b5760405162461bcd60e51b81526004016102a8906110dd565b6000828152600360205260409020600581015460ff1615610a725760405162461bcd60e51b8152602060048201526011602482015270125d195b48185b1c9958591e481cdbdb19607a1b60448201526064016102a8565b8060040154341015610abd5760405162461bcd60e51b8152602060048201526014602482015273125b9cdd59999a58da595b9d081c185e5b595b9d60621b60448201526064016102a8565b60018101546001600160a01b03163303610b0f5760405162461bcd60e51b815260206004820152601360248201527243616e6e6f7420627579206f776e206974656d60681b60448201526064016102a8565b60006127106002548360040154610b2691906112a3565b610b3091906112c0565b90506000818360040154610b4491906112e2565b60058401805460016001600160a81b031990911661010033021781179091558401546040519192506000916001600160a01b039091169083908381818185875af1925050503d8060008114610bb5576040519150601f19603f3d011682016040523d82523d6000602084013e610bba565b606091505b5050905080610c035760405162461bcd60e51b815260206004820152601560248201527414d95b1b195c881c185e5b595b9d0819985a5b1959605a1b60448201526064016102a8565b8215610cae57600080546040516001600160a01b039091169085908381818185875af1925050503d8060008114610c56576040519150601f19603f3d011682016040523d82523d6000602084013e610c5b565b606091505b5050905080610cac5760405162461bcd60e51b815260206004820152601b60248201527f506c6174666f726d20666565207061796d656e74206661696c6564000000000060448201526064016102a8565b505b8360040154341115610d525760048401546000903390610cce90346112e2565b604051600081818185875af1925050503d8060008114610d0a576040519150601f19603f3d011682016040523d82523d6000602084013e610d0f565b606091505b5050905080610d505760405162461bcd60e51b815260206004820152600d60248201526c1499599d5b990819985a5b1959609a1b60448201526064016102a8565b505b336001600160a01b0316867fa574c741071bb18f51fa88c17aeefec514bebf670ca22a3736fba6504ecbb7638660040154604051610d9291815260200190565b60405180910390a3505050505050565b6001600160a01b038116600090815260046020908152604091829020805483518184028101840190945280845260609392830182828015610e0257602002820191906000526020600020905b815481526020019060010190808311610dee575b50505050509050919050565b600060208284031215610e2057600080fd5b5035919050565b6000815180845260005b81811015610e4d57602081850181015186830182015201610e31565b506000602082860101526020601f19601f83011685010191505092915050565b6001600160a01b038881168252878116602083015260408201879052606082018690528415156080830152831660a082015260e060c08201819052600090610eb790830184610e27565b9998505050505050505050565b80356001600160a01b0381168114610edb57600080fd5b919050565b634e487b7160e01b600052604160045260246000fd5b60008060008060808587031215610f0c57600080fd5b610f1585610ec4565b93506020850135925060408501359150606085013567ffffffffffffffff80821115610f4057600080fd5b818701915087601f830112610f5457600080fd5b813581811115610f6657610f66610ee0565b604051601f8201601f19908116603f01168101908382118183101715610f8e57610f8e610ee0565b816040528281528a6020848701011115610fa757600080fd5b82602086016020830137600060208483010152809550505050505092959194509250565b60008060408385031215610fde57600080fd5b50508035926020909101359150565b6000806040838503121561100057600080fd5b61100983610ec4565b946020939093013593505050565b8881526001600160a01b0388811660208301528781166040830152606082018790526080820186905284151560a0830152831660c082015261010060e0820181905260009061106883820185610e27565b9b9a5050505050505050505050565b60006020828403121561108957600080fd5b61109282610ec4565b9392505050565b6020808252825182820181905260009190848201906040850190845b818110156110d1578351835292840192918401916001016110b5565b50909695505050505050565b602080825260139082015272125d195b48191bd95cc81b9bdd08195e1a5cdd606a1b604082015260600190565b600181811c9082168061111e57607f821691505b60208210810361113e57634e487b7160e01b600052602260045260246000fd5b50919050565b634e487b7160e01b600052601160045260246000fd5b60006001820161116c5761116c611144565b5060010190565b601f8211156111bd57600081815260208120601f850160051c8101602086101561119a5750805b601f850160051c820191505b818110156111b9578281556001016111a6565b5050505b505050565b815167ffffffffffffffff8111156111dc576111dc610ee0565b6111f0816111ea845461110a565b84611173565b602080601f831160018114611225576000841561120d5750858301515b600019600386901b1c1916600185901b1785556111b9565b600085815260208120601f198616915b8281101561125457888601518255948401946001909101908401611235565b50858210156112725787850151600019600388901b60f8161c191681555b5050505050600190811b01905550565b82815260406020820152600061129b6040830184610e27565b949350505050565b80820281158282048414176112ba576112ba611144565b92915050565b6000826112dd57634e487b7160e01b600052601260045260246000fd5b500490565b818103818111156112ba576112ba61114456fea26469706673582212201aabf6f66b2c07afb27e10bf9ef2720b1ada165b67c469e8415a9926a2cfa8a464736f6c63430008130033","linkReferences":{}},"methodIdentifiers":{"admin()":"f851a440","buyItem(uint256)":"e7fb74c7","getItem(uint256)":"3129e773","getUserListings(address)":"eb18a9d8","itemCounter()":"6d6d00ed","items(uint256)":"bfb231d2","listItem(address,uint256,uint256,string)":"5095709e","platformFeePercent()":"8c639a85","setPlatformFee(uint256)":"12e8e2c3","updatePrice(uint256,uint256)":"82367b2d","userListings(address,uint256)":"86cfa7d3","withdrawFees()":"476343ee"},"id":2}