{"abi":[{"type":"constructor","inputs":[{"name":"_admin","type":"address","internalType":"address"}],"stateMutability":"nonpayable"},{"type":"function","name":"admin","inputs":[],"outputs":[{"name":"","type":"address","internalType":"address"}],"stateMutability":"view"},{"type":"function","name":"buyItem","inputs":[{"name":"itemId","type":"uint256","internalType":"uint256"}],"outputs":[],"stateMutability":"payable"},{"type":"function","name":"getItem","inputs":[{"name":"itemId","type":"uint256","internalType":"uint256"}],"outputs":[{"name":"seller","type":"address","internalType":"address"},{"name":"nftContract","type":"address","internalType":"address"},{"name":"tokenId","type":"uint256","internalType":"uint256"},{"name":"price","type":"uint256","internalType":"uint256"},{"name":"sold","type":"bool","internalType":"bool"},{"name":"buyer","type":"address","internalType":"address"},{"name":"itemType","type":"string","internalType":"string"}],"stateMutability":"view"},{"type":"function","name":"getUserListings","inputs":[{"name":"user","type":"address","internalType":"address"}],"outputs":[{"name":"","type":"uint256[]","internalType":"uint256[]"}],"stateMutability":"view"},{"type":"function","name":"itemCounter","inputs":[],"outputs":[{"name":"","type":"uint256","internalType":"uint256"}],"stateMutability":"view"},{"type":"function","name":"items","inputs":[{"name":"","type":"uint256","internalType":"uint256"}],"outputs":[{"name":"itemId","type":"uint256","internalType":"uint256"},{"name":"seller","type":"address","internalType":"address"},{"name":"nftContract","type":"address","internalType":"address"},{"name":"tokenId","type":"uint256","internalType":"uint256"},{"name":"price","type":"uint256","internalType":"uint256"},{"name":"sold","type":"bool","internalType":"bool"},{"name":"buyer","type":"address","internalType":"address"},{"name":"itemType","type":"string","internalType":"string"}],"stateMutability":"view"},{"type":"function","name":"listItem","inputs":[{"name":"nftContract","type":"address","internalType":"address"},{"name":"tokenId","type":"uint256","internalType":"uint256"},{"name":"price","type":"uint256","internalType":"uint256"},{"name":"itemType","type":"string","internalType":"string"}],"outputs":[{"name":"","type":"uint256","internalType":"uint256"}],"stateMutability":"nonpayable"},{"type":"function","name":"platformFeePercent","inputs":[],"outputs":[{"name":"","type":"uint256","internalType":"uint256"}],"stateMutability":"view"},{"type":"function","name":"setPlatformFee","inputs":[{"name":"newFeePercent","type":"uint256","internalType":"uint256"}],"outputs":[],"stateMutability":"nonpayable"},{"type":"function","name":"updatePrice","inputs":[{"name":"itemId","type":"uint256","internalType":"uint256"},{"name":"newPrice","type":"uint256","internalType":"uint256"}],"outputs":[],"stateMutability":"nonpayable"},{"type":"function","name":"userListings","inputs":[{"name":"","type":"address","internalType":"address"},{"name":"","type":"uint256","internalType":"uint256"}],"outputs":[{"name":"","type":"uint256","internalType":"uint256"}],"stateMutability":"view"},{"type":"function","name":"withdrawFees","inputs":[],"outputs":[],"stateMutability":"nonpayable"},{"type":"event","name":"ItemListed","inputs":[{"name":"itemId","type":"uint256","indexed":true,"internalType":"uint256"},{"name":"seller","type":"address","indexed":true,"internalType":"address"},{"name":"price","type":"uint256","indexed":false,"internalType":"uint256"},{"name":"itemType","type":"string","indexed":false,"internalType":"string"}],"anonymous":false},{"type":"event","name":"ItemPriceUpdated","inputs":[{"name":"itemId","type":"uint256","indexed":true,"internalType":"uint256"},{"name":"newPrice","type":"uint256","indexed":false,"internalType":"uint256"}],"anonymous":false},{"type":"event","name":"ItemSold","inputs":[{"name":"itemId","type":"uint256","indexed":true,"internalType":"uint256"},{"name":"buyer","type":"address","indexed":true,"internalType":"address"},{"name":"price","type":"uint256","indexed":false,"internalType":"uint256"}],"anonymous":false}],"bytecode":{"object":"0x608060405260fa6002553480156200001657600080fd5b50604051620024e6380380620024e683398181016040528101906200003c9190620000ed565b806000806101000a81548173ffffffffffffffffffffffffffffffffffffffff021916908373ffffffffffffffffffffffffffffffffffffffff160217905550506200011f565b600080fd5b600073ffffffffffffffffffffffffffffffffffffffff82169050919050565b6000620000b58262000088565b9050919050565b620000c781620000a8565b8114620000d357600080fd5b50565b600081519050620000e781620000bc565b92915050565b60006020828403121562000106576200010562000083565b5b60006200011684828501620000d6565b91505092915050565b6123b7806200012f6000396000f3fe6080604052600436106100a75760003560e01c806386cfa7d31161006457806386cfa7d3146101c05780638c639a85146101fd578063bfb231d214610228578063e7fb74c71461026c578063eb18a9d814610288578063f851a440146102c5576100a7565b806312e8e2c3146100ac5780633129e773146100d5578063476343ee146101185780635095709e1461012f5780636d6d00ed1461016c57806382367b2d14610197575b600080fd5b3480156100b857600080fd5b506100d360048036038101906100ce919061132e565b6102f0565b005b3480156100e157600080fd5b506100fc60048036038101906100f7919061132e565b6103cd565b60405161010f9796959493929190611456565b60405180910390f35b34801561012457600080fd5b5061012d61056b565b005b34801561013b57600080fd5b506101566004803603810190610151919061162d565b610712565b60405161016391906116b0565b60405180910390f35b34801561017857600080fd5b506101816109f9565b60405161018e91906116b0565b60405180910390f35b3480156101a357600080fd5b506101be60048036038101906101b991906116cb565b6109ff565b005b3480156101cc57600080fd5b506101e760048036038101906101e2919061170b565b610bca565b6040516101f491906116b0565b60405180910390f35b34801561020957600080fd5b50610212610bfb565b60405161021f91906116b0565b60405180910390f35b34801561023457600080fd5b5061024f600480360381019061024a919061132e565b610c01565b60405161026398979695949392919061174b565b60405180910390f35b6102866004803603810190610281919061132e565b610d3e565b005b34801561029457600080fd5b506102af60048036038101906102aa91906117d0565b611229565b6040516102bc91906118bb565b60405180910390f35b3480156102d157600080fd5b506102da6112c0565b6040516102e791906118dd565b60405180910390f35b60008054906101000a900473ffffffffffffffffffffffffffffffffffffffff1673ffffffffffffffffffffffffffffffffffffffff163373ffffffffffffffffffffffffffffffffffffffff161461037e576040517f08c379a000000000000000000000000000000000000000000000000000000000815260040161037590611944565b60405180910390fd5b6103e88111156103c3576040517f08c379a00000000000000000000000000000000000000000000000000000000081526004016103ba906119b0565b60405180910390fd5b8060028190555050565b60008060008060008060608760015481111561041e576040517f08c379a000000000000000000000000000000000000000000000000000000000815260040161041590611a1c565b60405180910390fd5b6000600360008b815260200190815260200160002090508060010160009054906101000a900473ffffffffffffffffffffffffffffffffffffffff168160020160009054906101000a900473ffffffffffffffffffffffffffffffffffffffff16826003015483600401548460050160009054906101000a900460ff168560050160019054906101000a900473ffffffffffffffffffffffffffffffffffffffff16866006018080546104d090611a6b565b80601f01602080910402602001604051908101604052809291908181526020018280546104fc90611a6b565b80156105495780601f1061051e57610100808354040283529160200191610549565b820191906000526020600020905b81548152906001019060200180831161052c57829003601f168201915b5050505050905098509850985098509850985098505050919395979092949650565b60008054906101000a900473ffffffffffffffffffffffffffffffffffffffff1673ffffffffffffffffffffffffffffffffffffffff163373ffffffffffffffffffffffffffffffffffffffff16146105f9576040517f08c379a00000000000000000000000000000000000000000000000000000000081526004016105f090611944565b60405180910390fd5b600047905060008111610641576040517f08c379a000000000000000000000000000000000000000000000000000000000815260040161063890611ae8565b60405180910390fd5b60008060009054906101000a900473ffffffffffffffffffffffffffffffffffffffff1673ffffffffffffffffffffffffffffffffffffffff168260405161068890611b39565b60006040518083038185875af1925050503d80600081146106c5576040519150601f19603f3d011682016040523d82523d6000602084013e6106ca565b606091505b505090508061070e576040517f08c379a000000000000000000000000000000000000000000000000000000000815260040161070590611b9a565b60405180910390fd5b5050565b6000808311610756576040517f08c379a000000000000000000000000000000000000000000000000000000000815260040161074d90611c06565b60405180910390fd5b6001600081548092919061076990611c55565b919050555060405180610100016040528060015481526020013373ffffffffffffffffffffffffffffffffffffffff1681526020018673ffffffffffffffffffffffffffffffffffffffff168152602001858152602001848152602001600015158152602001600073ffffffffffffffffffffffffffffffffffffffff168152602001838152506003600060015481526020019081526020016000206000820151816000015560208201518160010160006101000a81548173ffffffffffffffffffffffffffffffffffffffff021916908373ffffffffffffffffffffffffffffffffffffffff16021790555060408201518160020160006101000a81548173ffffffffffffffffffffffffffffffffffffffff021916908373ffffffffffffffffffffffffffffffffffffffff160217905550606082015181600301556080820151816004015560a08201518160050160006101000a81548160ff02191690831515021790555060c08201518160050160016101000a81548173ffffffffffffffffffffffffffffffffffffffff021916908373ffffffffffffffffffffffffffffffffffffffff16021790555060e082015181600601908161092d9190611e49565b50905050600460003373ffffffffffffffffffffffffffffffffffffffff1673ffffffffffffffffffffffffffffffffffffffff16815260200190815260200160002060015490806001815401808255809150506001900390600052602060002001600090919091909150553373ffffffffffffffffffffffffffffffffffffffff166001547f57ef1efe280df4ab906fa621fa833fcd4e1eaf8667108a8725223d9cc6509fa785856040516109e4929190611f1b565b60405180910390a36001549050949350505050565b60015481565b81600154811115610a45576040517f08c379a0000000000000000000000000000000000000000000000000000000008152600401610a3c90611a1c565b60405180910390fd5b60006003600085815260200190815260200160002090508060010160009054906101000a900473ffffffffffffffffffffffffffffffffffffffff1673ffffffffffffffffffffffffffffffffffffffff163373ffffffffffffffffffffffffffffffffffffffff1614610aee576040517f08c379a0000000000000000000000000000000000000000000000000000000008152600401610ae590611f97565b60405180910390fd5b8060050160009054906101000a900460ff1615610b40576040517f08c379a0000000000000000000000000000000000000000000000000000000008152600401610b3790612003565b60405180910390fd5b60008311610b83576040517f08c379a0000000000000000000000000000000000000000000000000000000008152600401610b7a90611c06565b60405180910390fd5b828160040181905550837f0bfd84f586f186e4e2a0b575593a4b4b7735b4229f86de082fd9662d9324bb2784604051610bbc91906116b0565b60405180910390a250505050565b60046020528160005260406000208181548110610be657600080fd5b90600052602060002001600091509150505481565b60025481565b60036020528060005260406000206000915090508060000154908060010160009054906101000a900473ffffffffffffffffffffffffffffffffffffffff16908060020160009054906101000a900473ffffffffffffffffffffffffffffffffffffffff16908060030154908060040154908060050160009054906101000a900460ff16908060050160019054906101000a900473ffffffffffffffffffffffffffffffffffffffff1690806006018054610cbb90611a6b565b80601f0160208091040260200160405190810160405280929190818152602001828054610ce790611a6b565b8015610d345780601f10610d0957610100808354040283529160200191610d34565b820191906000526020600020905b815481529060010190602001808311610d1757829003601f168201915b5050505050905088565b80600154811115610d84576040517f08c379a0000000000000000000000000000000000000000000000000000000008152600401610d7b90611a1c565b60405180910390fd5b60006003600084815260200190815260200160002090508060050160009054906101000a900460ff1615610ded576040517f08c379a0000000000000000000000000000000000000000000000000000000008152600401610de49061206f565b60405180910390fd5b8060040154341015610e34576040517f08c379a0000000000000000000000000000000000000000000000000000000008152600401610e2b906120db565b60405180910390fd5b8060010160009054906101000a900473ffffffffffffffffffffffffffffffffffffffff1673ffffffffffffffffffffffffffffffffffffffff163373ffffffffffffffffffffffffffffffffffffffff1603610ec6576040517f08c379a0000000000000000000000000000000000000000000000000000000008152600401610ebd90612147565b60405180910390fd5b60006127106002548360040154610edd9190612167565b610ee791906121d8565b90506000818360040154610efb9190612209565b905060018360050160006101000a81548160ff021916908315150217905550338360050160016101000a81548173ffffffffffffffffffffffffffffffffffffffff021916908373ffffffffffffffffffffffffffffffffffffffff16021790555060008360010160009054906101000a900473ffffffffffffffffffffffffffffffffffffffff1673ffffffffffffffffffffffffffffffffffffffff1682604051610fa790611b39565b60006040518083038185875af1925050503d8060008114610fe4576040519150601f19603f3d011682016040523d82523d6000602084013e610fe9565b606091505b505090508061102d576040517f08c379a000000000000000000000000000000000000000000000000000000000815260040161102490612289565b60405180910390fd5b60008311156111055760008060009054906101000a900473ffffffffffffffffffffffffffffffffffffffff1673ffffffffffffffffffffffffffffffffffffffff168460405161107d90611b39565b60006040518083038185875af1925050503d80600081146110ba576040519150601f19603f3d011682016040523d82523d6000602084013e6110bf565b606091505b5050905080611103576040517f08c379a00000000000000000000000000000000000000000000000000000000081526004016110fa906122f5565b60405180910390fd5b505b83600401543411156111ce5760003373ffffffffffffffffffffffffffffffffffffffff1685600401543461113a9190612209565b60405161114690611b39565b60006040518083038185875af1925050503d8060008114611183576040519150601f19603f3d011682016040523d82523d6000602084013e611188565b606091505b50509050806111cc576040517f08c379a00000000000000000000000000000000000000000000000000000000081526004016111c390612361565b60405180910390fd5b505b3373ffffffffffffffffffffffffffffffffffffffff16867fa574c741071bb18f51fa88c17aeefec514bebf670ca22a3736fba6504ecbb763866004015460405161121991906116b0565b60405180910390a3505050505050565b6060600460008373ffffffffffffffffffffffffffffffffffffffff1673ffffffffffffffffffffffffffffffffffffffff1681526020019081526020016000208054806020026020016040519081016040528092919081815260200182805480156112b457602002820191906000526020600020905b8154815260200190600101908083116112a0575b50505050509050919050565b60008054906101000a900473ffffffffffffffffffffffffffffffffffffffff1681565b6000604051905090565b600080fd5b600080fd5b6000819050919050565b61130b816112f8565b811461131657600080fd5b50565b60008135905061132881611302565b92915050565b600060208284031215611344576113436112ee565b5b600061135284828501611319565b91505092915050565b600073ffffffffffffffffffffffffffffffffffffffff82169050919050565b60006113868261135b565b9050919050565b6113968161137b565b82525050565b6113a5816112f8565b82525050565b60008115159050919050565b6113c0816113ab565b82525050565b600081519050919050565b600082825260208201905092915050565b60005b838110156114005780820151818401526020810190506113e5565b60008484015250505050565b6000601f19601f8301169050919050565b6000611428826113c6565b61143281856113d1565b93506114428185602086016113e2565b61144b8161140c565b840191505092915050565b600060e08201905061146b600083018a61138d565b611478602083018961138d565b611485604083018861139c565b611492606083018761139c565b61149f60808301866113b7565b6114ac60a083018561138d565b81810360c08301526114be818461141d565b905098975050505050505050565b6114d58161137b565b81146114e057600080fd5b50565b6000813590506114f2816114cc565b92915050565b600080fd5b600080fd5b7f4e487b7100000000000000000000000000000000000000000000000000000000600052604160045260246000fd5b61153a8261140c565b810181811067ffffffffffffffff8211171561155957611558611502565b5b80604052505050565b600061156c6112e4565b90506115788282611531565b919050565b600067ffffffffffffffff82111561159857611597611502565b5b6115a18261140c565b9050602081019050919050565b82818337600083830152505050565b60006115d06115cb8461157d565b611562565b9050828152602081018484840111156115ec576115eb6114fd565b5b6115f78482856115ae565b509392505050565b600082601f830112611614576116136114f8565b5b81356116248482602086016115bd565b91505092915050565b60008060008060808587031215611647576116466112ee565b5b6000611655878288016114e3565b945050602061166687828801611319565b935050604061167787828801611319565b925050606085013567ffffffffffffffff811115611698576116976112f3565b5b6116a4878288016115ff565b91505092959194509250565b60006020820190506116c5600083018461139c565b92915050565b600080604083850312156116e2576116e16112ee565b5b60006116f085828601611319565b925050602061170185828601611319565b9150509250929050565b60008060408385031215611722576117216112ee565b5b6000611730858286016114e3565b925050602061174185828601611319565b9150509250929050565b600061010082019050611761600083018b61139c565b61176e602083018a61138d565b61177b604083018961138d565b611788606083018861139c565b611795608083018761139c565b6117a260a08301866113b7565b6117af60c083018561138d565b81810360e08301526117c1818461141d565b90509998505050505050505050565b6000602082840312156117e6576117e56112ee565b5b60006117f4848285016114e3565b91505092915050565b600081519050919050565b600082825260208201905092915050565b6000819050602082019050919050565b611832816112f8565b82525050565b60006118448383611829565b60208301905092915050565b6000602082019050919050565b6000611868826117fd565b6118728185611808565b935061187d83611819565b8060005b838110156118ae5781516118958882611838565b97506118a083611850565b925050600181019050611881565b5085935050505092915050565b600060208201905081810360008301526118d5818461185d565b905092915050565b60006020820190506118f2600083018461138d565b92915050565b7f4f6e6c792061646d696e00000000000000000000000000000000000000000000600082015250565b600061192e600a836113d1565b9150611939826118f8565b602082019050919050565b6000602082019050818103600083015261195d81611921565b9050919050565b7f4665652063616e6e6f7420657863656564203130250000000000000000000000600082015250565b600061199a6015836113d1565b91506119a582611964565b602082019050919050565b600060208201905081810360008301526119c98161198d565b9050919050565b7f4974656d20646f6573206e6f7420657869737400000000000000000000000000600082015250565b6000611a066013836113d1565b9150611a11826119d0565b602082019050919050565b60006020820190508181036000830152611a35816119f9565b9050919050565b7f4e487b7100000000000000000000000000000000000000000000000000000000600052602260045260246000fd5b60006002820490506001821680611a8357607f821691505b602082108103611a9657611a95611a3c565b5b50919050565b7f4e6f206665657320746f20776974686472617700000000000000000000000000600082015250565b6000611ad26013836113d1565b9150611add82611a9c565b602082019050919050565b60006020820190508181036000830152611b0181611ac5565b9050919050565b600081905092915050565b50565b6000611b23600083611b08565b9150611b2e82611b13565b600082019050919050565b6000611b4482611b16565b9150819050919050565b7f5769746864726177616c206661696c6564000000000000000000000000000000600082015250565b6000611b846011836113d1565b9150611b8f82611b4e565b602082019050919050565b60006020820190508181036000830152611bb381611b77565b9050919050565b7f5072696365206d7573742062652067726561746572207468616e203000000000600082015250565b6000611bf0601c836113d1565b9150611bfb82611bba565b602082019050919050565b60006020820190508181036000830152611c1f81611be3565b9050919050565b7f4e487b7100000000000000000000000000000000000000000000000000000000600052601160045260246000fd5b6000611c60826112f8565b91507fffffffffffffffffffffffffffffffffffffffffffffffffffffffffffffffff8203611c9257611c91611c26565b5b600182019050919050565b60008190508160005260206000209050919050565b60006020601f8301049050919050565b600082821b905092915050565b600060088302611cff7fffffffffffffffffffffffffffffffffffffffffffffffffffffffffffffffff82611cc2565b611d098683611cc2565b95508019841693508086168417925050509392505050565b6000819050919050565b6000611d46611d41611d3c846112f8565b611d21565b6112f8565b9050919050565b6000819050919050565b611d6083611d2b565b611d74611d6c82611d4d565b848454611ccf565b825550505050565b600090565b611d89611d7c565b611d94818484611d57565b505050565b5b81811015611db857611dad600082611d81565b600181019050611d9a565b5050565b601f821115611dfd57611dce81611c9d565b611dd784611cb2565b81016020851015611de6578190505b611dfa611df285611cb2565b830182611d99565b50505b505050565b600082821c905092915050565b6000611e2060001984600802611e02565b1980831691505092915050565b6000611e398383611e0f565b9150826002028217905092915050565b611e52826113c6565b67ffffffffffffffff811115611e6b57611e6a611502565b5b611e758254611a6b565b611e80828285611dbc565b600060209050601f831160018114611eb35760008415611ea1578287015190505b611eab8582611e2d565b865550611f13565b601f198416611ec186611c9d565b60005b82811015611ee957848901518255600182019150602085019450602081019050611ec4565b86831015611f065784890151611f02601f891682611e0f565b8355505b6001600288020188555050505b505050505050565b6000604082019050611f30600083018561139c565b8181036020830152611f42818461141d565b90509392505050565b7f4f6e6c792073656c6c65722063616e2075706461746520707269636500000000600082015250565b6000611f81601c836113d1565b9150611f8c82611f4b565b602082019050919050565b60006020820190508181036000830152611fb081611f74565b9050919050565b7f43616e6e6f7420757064617465207072696365206f6620736f6c64206974656d600082015250565b6000611fed6020836113d1565b9150611ff882611fb7565b602082019050919050565b6000602082019050818103600083015261201c81611fe0565b9050919050565b7f4974656d20616c726561647920736f6c64000000000000000000000000000000600082015250565b60006120596011836113d1565b915061206482612023565b602082019050919050565b600060208201905081810360008301526120888161204c565b9050919050565b7f496e73756666696369656e74207061796d656e74000000000000000000000000600082015250565b60006120c56014836113d1565b91506120d08261208f565b602082019050919050565b600060208201905081810360008301526120f4816120b8565b9050919050565b7f43616e6e6f7420627579206f776e206974656d00000000000000000000000000600082015250565b60006121316013836113d1565b915061213c826120fb565b602082019050919050565b6000602082019050818103600083015261216081612124565b9050919050565b6000612172826112f8565b915061217d836112f8565b925082820261218b816112f8565b915082820484148315176121a2576121a1611c26565b5b5092915050565b7f4e487b7100000000000000000000000000000000000000000000000000000000600052601260045260246000fd5b60006121e3826112f8565b91506121ee836112f8565b9250826121fe576121fd6121a9565b5b828204905092915050565b6000612214826112f8565b915061221f836112f8565b925082820390508181111561223757612236611c26565b5b92915050565b7f53656c6c6572207061796d656e74206661696c65640000000000000000000000600082015250565b60006122736015836113d1565b915061227e8261223d565b602082019050919050565b600060208201905081810360008301526122a281612266565b9050919050565b7f506c6174666f726d20666565207061796d656e74206661696c65640000000000600082015250565b60006122df601b836113d1565b91506122ea826122a9565b602082019050919050565b6000602082019050818103600083015261230e816122d2565b9050919050565b7f526566756e64206661696c656400000000000000000000000000000000000000600082015250565b600061234b600d836113d1565b915061235682612315565b602082019050919050565b6000602082019050818103600083015261237a8161233e565b905091905056fea2646970667358221220b46cb2c55c5cf24d37b81ed17690f08eadbe3d1930d692117f91b18f68e1f86864736f6c63430008130033","linkReferences":{}},"methodIdentifiers":{"admin()":"f851a440","buyItem(uint256)":"e7fb74c7","getItem(uint256)":"3129e773","getUserListings(address)":"eb18a9d8","itemCounter()":"6d6d00ed","items(uint256)":"bfb231d2","listItem(address,uint256,uint256,string)":"5095709e","platformFeePercent()":"8c639a85","setPlatformFee(uint256)":"12e8e2c3","updatePrice(uint256,uint256)":"82367b2d","userListings(address,uint256)":"86cfa7d3","withdrawFees()":"476343ee"},"id":2}