{"abi":[{"type":"constructor","inputs":[],"stateMutability":"nonpayable"},{"type":"function","name":"MIN_BET","inputs":[],"outputs":[{"name":"","type":"uint256","internalType":"uint256"}],"stateMutability":"view"},{"type":"function","name":"admin","inputs":[],"outputs":[{"name":"","type":"address","internalType":"address"}],"stateMutability":"view"},{"type":"function","name":"createEvent","inputs":[{"name":"name","type":"string","internalType":"string"},{"name":"ipfsHash","type":"string","internalType":"string"},{"name":"endTime","type":"uint256","internalType":"uint256"}],"outputs":[{"name":"","type":"uint256","internalType":"uint256"}],"stateMutability":"nonpayable"},{"type":"function","name":"eventCounter","inputs":[],"outputs":[{"name":"","type":"uint256","internalType":"uint256"}],"stateMutability":"view"},{"type":"function","name":"events","inputs":[{"name":"","type":"uint256","internalType":"uint256"}],"outputs":[{"name":"id","type":"uint256","internalType":"uint256"},{"name":"name","type":"string","internalType":"string"},{"name":"ipfsHash","type":"string","internalType":"string"},{"name":"endTime","type":"uint256","internalType":"uint256"},{"name":"resolved","type":"bool","internalType":"bool"},{"name":"winningOption","type":"uint8","internalType":"uint8"},{"name":"totalPool","type":"uint256","internalType":"uint256"}],"stateMutability":"view"},{"type":"function","name":"getEventDetails","inputs":[{"name":"eventId","type":"uint256","internalType":"uint256"}],"outputs":[{"name":"name","type":"string","internalType":"string"},{"name":"ipfsHash","type":"string","internalType":"string"},{"name":"endTime","type":"uint256","internalType":"uint256"},{"name":"resolved","type":"bool","internalType":"bool"},{"name":"winningOption","type":"uint8","internalType":"uint8"},{"name":"totalPool","type":"uint256","internalType":"uint256"}],"stateMutability":"view"},{"type":"function","name":"getOptionPool","inputs":[{"name":"eventId","type":"uint256","internalType":"uint256"},{"name":"option","type":"uint8","internalType":"uint8"}],"outputs":[{"name":"","type":"uint256","internalType":"uint256"}],"stateMutability":"view"},{"type":"function","name":"getUserBet","inputs":[{"name":"eventId","type":"uint256","internalType":"uint256"},{"name":"user","type":"address","internalType":"address"},{"name":"option","type":"uint8","internalType":"uint8"}],"outputs":[{"name":"","type":"uint256","internalType":"uint256"}],"stateMutability":"view"},{"type":"function","name":"placeBet","inputs":[{"name":"eventId","type":"uint256","internalType":"uint256"},{"name":"option","type":"uint8","internalType":"uint8"}],"outputs":[],"stateMutability":"payable"},{"type":"function","name":"resolveEvent","inputs":[{"name":"eventId","type":"uint256","internalType":"uint256"},{"name":"winningOption","type":"uint8","internalType":"uint8"}],"outputs":[],"stateMutability":"nonpayable"},{"type":"function","name":"withdrawWinnings","inputs":[{"name":"eventId","type":"uint256","internalType":"uint256"}],"outputs":[],"stateMutability":"nonpayable"},{"type":"event","name":"BetPlaced","inputs":[{"name":"eventId","type":"uint256","indexed":true,"internalType":"uint256"},{"name":"user","type":"address","indexed":true,"internalType":"address"},{"name":"option","type":"uint8","indexed":false,"internalType":"uint8"},{"name":"amount","type":"uint256","indexed":false,"internalType":"uint256"}],"anonymous":false},{"type":"event","name":"EventCreated","inputs":[{"name":"eventId","type":"uint256","indexed":true,"internalType":"uint256"},{"name":"name","type":"string","indexed":false,"internalType":"string"},{"name":"endTime","type":"uint256","indexed":false,"internalType":"uint256"}],"anonymous":false},{"type":"event","name":"EventResolved","inputs":[{"name":"eventId","type":"uint256","indexed":true,"internalType":"uint256"},{"name":"winningOption","type":"uint8","indexed":false,"internalType":"uint8"}],"anonymous":false},{"type":"event","name":"WinningsWithdrawn","inputs":[{"name":"eventId","type":"uint256","indexed":true,"internalType":"uint256"},{"name":"user","type":"address","indexed":true,"internalType":"address"},{"name":"amount","type":"uint256","indexed":false,"internalType":"uint256"}],"anonymous":false}],"bytecode":{"object":"0x608060405234801561001057600080fd5b50730734edcc126a08375a08c02c3117d44b24df47fa6000806101000a81548173ffffffffffffffffffffffffffffffffffffffff021916908373ffffffffffffffffffffffffffffffffffffffff160217905550612146806100746000396000f3fe60806040526004361061009c5760003560e01c80635555fe17116100645780635555fe17146101915780636540742f146101ce578063da9db866146101f9578063e3359a2514610222578063ec38d5a01461025f578063f851a440146102a15761009c565b806303edf914146100a15780630b791430146100bd5780631479470214610100578063381fe5b31461012957806352c55db914610166575b600080fd5b6100bb60048036038101906100b691906111d7565b6102cc565b005b3480156100c957600080fd5b506100e460048036038101906100df9190611217565b610589565b6040516100f7979695949392919061130d565b60405180910390f35b34801561010c57600080fd5b5061012760048036038101906101229190611217565b6106f5565b005b34801561013557600080fd5b50610150600480360381019061014b91906111d7565b610a91565b60405161015d919061138a565b60405180910390f35b34801561017257600080fd5b5061017b610ac9565b604051610188919061138a565b60405180910390f35b34801561019d57600080fd5b506101b860048036038101906101b391906114da565b610acf565b6040516101c5919061138a565b60405180910390f35b3480156101da57600080fd5b506101e3610c71565b6040516101f0919061138a565b60405180910390f35b34801561020557600080fd5b50610220600480360381019061021b91906111d7565b610c7c565b005b34801561022e57600080fd5b50610249600480360381019061024491906115c3565b610eef565b604051610256919061138a565b60405180910390f35b34801561026b57600080fd5b5061028660048036038101906102819190611217565b610f65565b60405161029896959493929190611616565b60405180910390f35b3480156102ad57600080fd5b506102b6611130565b6040516102c39190611694565b60405180910390f35b81600154811115610312576040517f08c379a0000000000000000000000000000000000000000000000000000000008152600401610309906116fb565b60405180910390fd5b66038d7ea4c6800034101561035c576040517f08c379a000000000000000000000000000000000000000000000000000000000815260040161035390611767565b60405180910390fd5b60018260ff1611156103a3576040517f08c379a000000000000000000000000000000000000000000000000000000000815260040161039a906117d3565b60405180910390fd5b600260008481526020019081526020016000206003015442106103fb576040517f08c379a00000000000000000000000000000000000000000000000000000000081526004016103f29061183f565b60405180910390fd5b6002600084815260200190815260200160002060040160009054906101000a900460ff161561045f576040517f08c379a0000000000000000000000000000000000000000000000000000000008152600401610456906118ab565b60405180910390fd5b6000600260008581526020019081526020016000209050348160070160003373ffffffffffffffffffffffffffffffffffffffff1673ffffffffffffffffffffffffffffffffffffffff16815260200190815260200160002060008560ff1660ff16815260200190815260200160002060008282546104de91906118fa565b92505081905550348160060160008560ff1660ff168152602001908152602001600020600082825461051091906118fa565b925050819055503481600501600082825461052b91906118fa565b925050819055503373ffffffffffffffffffffffffffffffffffffffff16847f4f1eed5e863a822b0f9eb960dfdab2cc5a99beec4b191f2a7a9c7e28e5a15524853460405161057b92919061192e565b60405180910390a350505050565b60026020528060005260406000206000915090508060000154908060010180546105b290611986565b80601f01602080910402602001604051908101604052809291908181526020018280546105de90611986565b801561062b5780601f106106005761010080835404028352916020019161062b565b820191906000526020600020905b81548152906001019060200180831161060e57829003601f168201915b50505050509080600201805461064090611986565b80601f016020809104026020016040519081016040528092919081815260200182805461066c90611986565b80156106b95780601f1061068e576101008083540402835291602001916106b9565b820191906000526020600020905b81548152906001019060200180831161069c57829003601f168201915b5050505050908060030154908060040160009054906101000a900460ff16908060040160019054906101000a900460ff16908060050154905087565b8060015481111561073b576040517f08c379a0000000000000000000000000000000000000000000000000000000008152600401610732906116fb565b60405180910390fd5b60006002600084815260200190815260200160002090508060040160009054906101000a900460ff166107a3576040517f08c379a000000000000000000000000000000000000000000000000000000000815260040161079a90611a03565b60405180910390fd5b8060080160003373ffffffffffffffffffffffffffffffffffffffff1673ffffffffffffffffffffffffffffffffffffffff16815260200190815260200160002060009054906101000a900460ff1615610832576040517f08c379a000000000000000000000000000000000000000000000000000000000815260040161082990611a6f565b60405180910390fd5b60008160070160003373ffffffffffffffffffffffffffffffffffffffff1673ffffffffffffffffffffffffffffffffffffffff16815260200190815260200160002060008360040160019054906101000a900460ff1660ff1660ff168152602001908152602001600020549050600081116108e3576040517f08c379a00000000000000000000000000000000000000000000000000000000081526004016108da90611adb565b60405180910390fd5b60008260060160008460040160019054906101000a900460ff1660ff1660ff1681526020019081526020016000205490506000818460050154846109279190611afb565b6109319190611b6c565b905060018460080160003373ffffffffffffffffffffffffffffffffffffffff1673ffffffffffffffffffffffffffffffffffffffff16815260200190815260200160002060006101000a81548160ff02191690831515021790555060003373ffffffffffffffffffffffffffffffffffffffff16826040516109b390611bce565b60006040518083038185875af1925050503d80600081146109f0576040519150601f19603f3d011682016040523d82523d6000602084013e6109f5565b606091505b5050905080610a39576040517f08c379a0000000000000000000000000000000000000000000000000000000008152600401610a3090611c2f565b60405180910390fd5b3373ffffffffffffffffffffffffffffffffffffffff16877f9f1f3144430cc9624860cf28da61318e428f6d15f17e420c04e8203581951a9184604051610a80919061138a565b60405180910390a350505050505050565b60006002600084815260200190815260200160002060060160008360ff1660ff16815260200190815260200160002054905092915050565b60015481565b60008060009054906101000a900473ffffffffffffffffffffffffffffffffffffffff1673ffffffffffffffffffffffffffffffffffffffff163373ffffffffffffffffffffffffffffffffffffffff1614610b60576040517f08c379a0000000000000000000000000000000000000000000000000000000008152600401610b5790611c9b565b60405180910390fd5b428211610ba2576040517f08c379a0000000000000000000000000000000000000000000000000000000008152600401610b9990611d07565b60405180910390fd5b60016000815480929190610bb590611d27565b919050555060006002600060015481526020019081526020016000209050600154816000018190555084816001019081610bef9190611f1b565b5083816002019081610c019190611f1b565b5082816003018190555060008160040160006101000a81548160ff0219169083151502179055506001547fee37bb5143a14810f72e86fce895be08e16090409d2e18f79b308995e39b73d48685604051610c5c929190611fed565b60405180910390a26001549150509392505050565b66038d7ea4c6800081565b60008054906101000a900473ffffffffffffffffffffffffffffffffffffffff1673ffffffffffffffffffffffffffffffffffffffff163373ffffffffffffffffffffffffffffffffffffffff1614610d0a576040517f08c379a0000000000000000000000000000000000000000000000000000000008152600401610d0190611c9b565b60405180910390fd5b81600154811115610d50576040517f08c379a0000000000000000000000000000000000000000000000000000000008152600401610d47906116fb565b60405180910390fd5b6002600084815260200190815260200160002060040160009054906101000a900460ff1615610db4576040517f08c379a0000000000000000000000000000000000000000000000000000000008152600401610dab90612069565b60405180910390fd5b6002600084815260200190815260200160002060030154421015610e0d576040517f08c379a0000000000000000000000000000000000000000000000000000000008152600401610e04906120d5565b60405180910390fd5b60018260ff161115610e54576040517f08c379a0000000000000000000000000000000000000000000000000000000008152600401610e4b906117d3565b60405180910390fd5b60016002600085815260200190815260200160002060040160006101000a81548160ff021916908315150217905550816002600085815260200190815260200160002060040160016101000a81548160ff021916908360ff160217905550827f1f640a413e29fd079316af79074dee56e6e3434e43dad0372c4e9138e88fa48583604051610ee291906120f5565b60405180910390a2505050565b60006002600085815260200190815260200160002060070160008473ffffffffffffffffffffffffffffffffffffffff1673ffffffffffffffffffffffffffffffffffffffff16815260200190815260200160002060008360ff1660ff1681526020019081526020016000205490509392505050565b60608060008060008086600154811115610fb4576040517f08c379a0000000000000000000000000000000000000000000000000000000008152600401610fab906116fb565b60405180910390fd5b6000600260008a81526020019081526020016000209050806001018160020182600301548360040160009054906101000a900460ff168460040160019054906101000a900460ff16856005015485805461100d90611986565b80601f016020809104026020016040519081016040528092919081815260200182805461103990611986565b80156110865780601f1061105b57610100808354040283529160200191611086565b820191906000526020600020905b81548152906001019060200180831161106957829003601f168201915b5050505050955084805461109990611986565b80601f01602080910402602001604051908101604052809291908181526020018280546110c590611986565b80156111125780601f106110e757610100808354040283529160200191611112565b820191906000526020600020905b8154815290600101906020018083116110f557829003601f168201915b50505050509450975097509750975097509750505091939550919395565b60008054906101000a900473ffffffffffffffffffffffffffffffffffffffff1681565b6000604051905090565b600080fd5b600080fd5b6000819050919050565b61117b81611168565b811461118657600080fd5b50565b60008135905061119881611172565b92915050565b600060ff82169050919050565b6111b48161119e565b81146111bf57600080fd5b50565b6000813590506111d1816111ab565b92915050565b600080604083850312156111ee576111ed61115e565b5b60006111fc85828601611189565b925050602061120d858286016111c2565b9150509250929050565b60006020828403121561122d5761122c61115e565b5b600061123b84828501611189565b91505092915050565b61124d81611168565b82525050565b600081519050919050565b600082825260208201905092915050565b60005b8381101561128d578082015181840152602081019050611272565b60008484015250505050565b6000601f19601f8301169050919050565b60006112b582611253565b6112bf818561125e565b93506112cf81856020860161126f565b6112d881611299565b840191505092915050565b60008115159050919050565b6112f8816112e3565b82525050565b6113078161119e565b82525050565b600060e082019050611322600083018a611244565b818103602083015261133481896112aa565b9050818103604083015261134881886112aa565b90506113576060830187611244565b61136460808301866112ef565b61137160a08301856112fe565b61137e60c0830184611244565b98975050505050505050565b600060208201905061139f6000830184611244565b92915050565b600080fd5b600080fd5b7f4e487b7100000000000000000000000000000000000000000000000000000000600052604160045260246000fd5b6113e782611299565b810181811067ffffffffffffffff82111715611406576114056113af565b5b80604052505050565b6000611419611154565b905061142582826113de565b919050565b600067ffffffffffffffff821115611445576114446113af565b5b61144e82611299565b9050602081019050919050565b82818337600083830152505050565b600061147d6114788461142a565b61140f565b905082815260208101848484011115611499576114986113aa565b5b6114a484828561145b565b509392505050565b600082601f8301126114c1576114c06113a5565b5b81356114d184826020860161146a565b91505092915050565b6000806000606084860312156114f3576114f261115e565b5b600084013567ffffffffffffffff81111561151157611510611163565b5b61151d868287016114ac565b935050602084013567ffffffffffffffff81111561153e5761153d611163565b5b61154a868287016114ac565b925050604061155b86828701611189565b9150509250925092565b600073ffffffffffffffffffffffffffffffffffffffff82169050919050565b600061159082611565565b9050919050565b6115a081611585565b81146115ab57600080fd5b50565b6000813590506115bd81611597565b92915050565b6000806000606084860312156115dc576115db61115e565b5b60006115ea86828701611189565b93505060206115fb868287016115ae565b925050604061160c868287016111c2565b9150509250925092565b600060c082019050818103600083015261163081896112aa565b9050818103602083015261164481886112aa565b90506116536040830187611244565b61166060608301866112ef565b61166d60808301856112fe565b61167a60a0830184611244565b979650505050505050565b61168e81611585565b82525050565b60006020820190506116a96000830184611685565b92915050565b7f4576656e7420646f6573206e6f74206578697374000000000000000000000000600082015250565b60006116e560148361125e565b91506116f0826116af565b602082019050919050565b60006020820190508181036000830152611714816116d8565b9050919050565b7f42657420746f6f20736d616c6c00000000000000000000000000000000000000600082015250565b6000611751600d8361125e565b915061175c8261171b565b602082019050919050565b6000602082019050818103600083015261178081611744565b9050919050565b7f496e76616c6964206f7074696f6e000000000000000000000000000000000000600082015250565b60006117bd600e8361125e565b91506117c882611787565b602082019050919050565b600060208201905081810360008301526117ec816117b0565b9050919050565b7f42657474696e6720636c6f736564000000000000000000000000000000000000600082015250565b6000611829600e8361125e565b9150611834826117f3565b602082019050919050565b600060208201905081810360008301526118588161181c565b9050919050565b7f4576656e74207265736f6c766564000000000000000000000000000000000000600082015250565b6000611895600e8361125e565b91506118a08261185f565b602082019050919050565b600060208201905081810360008301526118c481611888565b9050919050565b7f4e487b7100000000000000000000000000000000000000000000000000000000600052601160045260246000fd5b600061190582611168565b915061191083611168565b9250828201905080821115611928576119276118cb565b5b92915050565b600060408201905061194360008301856112fe565b6119506020830184611244565b9392505050565b7f4e487b7100000000000000000000000000000000000000000000000000000000600052602260045260246000fd5b6000600282049050600182168061199e57607f821691505b6020821081036119b1576119b0611957565b5b50919050565b7f4576656e74206e6f74207265736f6c7665640000000000000000000000000000600082015250565b60006119ed60128361125e565b91506119f8826119b7565b602082019050919050565b60006020820190508181036000830152611a1c816119e0565b9050919050565b7f416c72656164792077697468647261776e000000000000000000000000000000600082015250565b6000611a5960118361125e565b9150611a6482611a23565b602082019050919050565b60006020820190508181036000830152611a8881611a4c565b9050919050565b7f4e6f2077696e6e696e6720626574000000000000000000000000000000000000600082015250565b6000611ac5600e8361125e565b9150611ad082611a8f565b602082019050919050565b60006020820190508181036000830152611af481611ab8565b9050919050565b6000611b0682611168565b9150611b1183611168565b9250828202611b1f81611168565b91508282048414831517611b3657611b356118cb565b5b5092915050565b7f4e487b7100000000000000000000000000000000000000000000000000000000600052601260045260246000fd5b6000611b7782611168565b9150611b8283611168565b925082611b9257611b91611b3d565b5b828204905092915050565b600081905092915050565b50565b6000611bb8600083611b9d565b9150611bc382611ba8565b600082019050919050565b6000611bd982611bab565b9150819050919050565b7f5472616e73666572206661696c65640000000000000000000000000000000000600082015250565b6000611c19600f8361125e565b9150611c2482611be3565b602082019050919050565b60006020820190508181036000830152611c4881611c0c565b9050919050565b7f4f6e6c792061646d696e00000000000000000000000000000000000000000000600082015250565b6000611c85600a8361125e565b9150611c9082611c4f565b602082019050919050565b60006020820190508181036000830152611cb481611c78565b9050919050565b7f456e642074696d65206d75737420626520696e20667574757265000000000000600082015250565b6000611cf1601a8361125e565b9150611cfc82611cbb565b602082019050919050565b60006020820190508181036000830152611d2081611ce4565b9050919050565b6000611d3282611168565b91507fffffffffffffffffffffffffffffffffffffffffffffffffffffffffffffffff8203611d6457611d636118cb565b5b600182019050919050565b60008190508160005260206000209050919050565b60006020601f8301049050919050565b600082821b905092915050565b600060088302611dd17fffffffffffffffffffffffffffffffffffffffffffffffffffffffffffffffff82611d94565b611ddb8683611d94565b95508019841693508086168417925050509392505050565b6000819050919050565b6000611e18611e13611e0e84611168565b611df3565b611168565b9050919050565b6000819050919050565b611e3283611dfd565b611e46611e3e82611e1f565b848454611da1565b825550505050565b600090565b611e5b611e4e565b611e66818484611e29565b505050565b5b81811015611e8a57611e7f600082611e53565b600181019050611e6c565b5050565b601f821115611ecf57611ea081611d6f565b611ea984611d84565b81016020851015611eb8578190505b611ecc611ec485611d84565b830182611e6b565b50505b505050565b600082821c905092915050565b6000611ef260001984600802611ed4565b1980831691505092915050565b6000611f0b8383611ee1565b9150826002028217905092915050565b611f2482611253565b67ffffffffffffffff811115611f3d57611f3c6113af565b5b611f478254611986565b611f52828285611e8e565b600060209050601f831160018114611f855760008415611f73578287015190505b611f7d8582611eff565b865550611fe5565b601f198416611f9386611d6f565b60005b82811015611fbb57848901518255600182019150602085019450602081019050611f96565b86831015611fd85784890151611fd4601f891682611ee1565b8355505b6001600288020188555050505b505050505050565b6000604082019050818103600083015261200781856112aa565b90506120166020830184611244565b9392505050565b7f416c7265616479207265736f6c76656400000000000000000000000000000000600082015250565b600061205360108361125e565b915061205e8261201d565b602082019050919050565b6000602082019050818103600083015261208281612046565b9050919050565b7f4576656e74206e6f7420656e6465640000000000000000000000000000000000600082015250565b60006120bf600f8361125e565b91506120ca82612089565b602082019050919050565b600060208201905081810360008301526120ee816120b2565b9050919050565b600060208201905061210a60008301846112fe565b9291505056fea2646970667358221220a2a927089bb6e0fba3f9501fc970a94e1c37e7893a4e0dd30ae196ab6d8f222364736f6c63430008130033","linkReferences":{}},"methodIdentifiers":{"MIN_BET()":"6540742f","admin()":"f851a440","createEvent(string,string,uint256)":"5555fe17","eventCounter()":"52c55db9","events(uint256)":"0b791430","getEventDetails(uint256)":"ec38d5a0","getOptionPool(uint256,uint8)":"381fe5b3","getUserBet(uint256,address,uint8)":"e3359a25","placeBet(uint256,uint8)":"03edf914","resolveEvent(uint256,uint8)":"da9db866","withdrawWinnings(uint256)":"14794702"},"id":0}