{"abi":[{"type":"constructor","inputs":[{"name":"_admin","type":"address","internalType":"address"}],"stateMutability":"nonpayable"},{"type":"function","name":"MIN_BET","inputs":[],"outputs":[{"name":"","type":"uint256","internalType":"uint256"}],"stateMutability":"view"},{"type":"function","name":"admin","inputs":[],"outputs":[{"name":"","type":"address","internalType":"address"}],"stateMutability":"view"},{"type":"function","name":"createEvent","inputs":[{"name":"name","type":"string","internalType":"string"},{"name":"ipfsHash","type":"string","internalType":"string"},{"name":"endTime","type":"uint256","internalType":"uint256"}],"outputs":[{"name":"","type":"uint256","internalType":"uint256"}],"stateMutability":"nonpayable"},{"type":"function","name":"eventCounter","inputs":[],"outputs":[{"name":"","type":"uint256","internalType":"uint256"}],"stateMutability":"view"},{"type":"function","name":"events","inputs":[{"name":"","type":"uint256","internalType":"uint256"}],"outputs":[{"name":"id","type":"uint256","internalType":"uint256"},{"name":"name","type":"string","internalType":"string"},{"name":"ipfsHash","type":"string","internalType":"string"},{"name":"endTime","type":"uint256","internalType":"uint256"},{"name":"resolved","type":"bool","internalType":"bool"},{"name":"winningOption","type":"uint8","internalType":"uint8"},{"name":"totalPool","type":"uint256","internalType":"uint256"}],"stateMutability":"view"},{"type":"function","name":"getEventDetails","inputs":[{"name":"eventId","type":"uint256","internalType":"uint256"}],"outputs":[{"name":"name","type":"string","internalType":"string"},{"name":"ipfsHash","type":"string","internalType":"string"},{"name":"endTime","type":"uint256","internalType":"uint256"},{"name":"resolved","type":"bool","internalType":"bool"},{"name":"winningOption","type":"uint8","internalType":"uint8"},{"name":"totalPool","type":"uint256","internalType":"uint256"}],"stateMutability":"view"},{"type":"function","name":"getOptionPool","inputs":[{"name":"eventId","type":"uint256","internalType":"uint256"},{"name":"option","type":"uint8","internalType":"uint8"}],"outputs":[{"name":"","type":"uint256","internalType":"uint256"}],"stateMutability":"view"},{"type":"function","name":"getUserBet","inputs":[{"name":"eventId","type":"uint256","internalType":"uint256"},{"name":"user","type":"address","internalType":"address"},{"name":"option","type":"uint8","internalType":"uint8"}],"outputs":[{"name":"","type":"uint256","internalType":"uint256"}],"stateMutability":"view"},{"type":"function","name":"placeBet","inputs":[{"name":"eventId","type":"uint256","internalType":"uint256"},{"name":"option","type":"uint8","internalType":"uint8"}],"outputs":[],"stateMutability":"payable"},{"type":"function","name":"resolveEvent","inputs":[{"name":"eventId","type":"uint256","internalType":"uint256"},{"name":"winningOption","type":"uint8","internalType":"uint8"}],"outputs":[],"stateMutability":"nonpayable"},{"type":"function","name":"withdrawWinnings","inputs":[{"name":"eventId","type":"uint256","internalType":"uint256"}],"outputs":[],"stateMutability":"nonpayable"},{"type":"event","name":"BetPlaced","inputs":[{"name":"eventId","type":"uint256","indexed":true,"internalType":"uint256"},{"name":"user","type":"address","indexed":true,"internalType":"address"},{"name":"option","type":"uint8","indexed":false,"internalType":"uint8"},{"name":"amount","type":"uint256","indexed":false,"internalType":"uint256"}],"anonymous":false},{"type":"event","name":"EventCreated","inputs":[{"name":"eventId","type":"uint256","indexed":true,"internalType":"uint256"},{"name":"name","type":"string","indexed":false,"internalType":"string"},{"name":"endTime","type":"uint256","indexed":false,"internalType":"uint256"}],"anonymous":false},{"type":"event","name":"EventResolved","inputs":[{"name":"eventId","type":"uint256","indexed":true,"internalType":"uint256"},{"name":"winningOption","type":"uint8","indexed":false,"internalType":"uint8"}],"anonymous":false},{"type":"event","name":"WinningsWithdrawn","inputs":[{"name":"eventId","type":"uint256","indexed":true,"internalType":"uint256"},{"name":"user","type":"address","indexed":true,"internalType":"address"},{"name":"amount","type":"uint256","indexed":false,"internalType":"uint256"}],"anonymous":false}],"bytecode":{"object":"0x608060405234801561001057600080fd5b5060405161127738038061127783398101604081905261002f91610054565b600080546001600160a01b0319166001600160a01b0392909216919091179055610084565b60006020828403121561006657600080fd5b81516001600160a01b038116811461007d57600080fd5b9392505050565b6111e4806100936000396000f3fe60806040526004361061009c5760003560e01c80635555fe17116100645780635555fe17146101565780636540742f14610176578063da9db86614610191578063e3359a25146101b1578063ec38d5a014610204578063f851a4401461023657600080fd5b806303edf914146100a15780630b791430146100b657806314794702146100f2578063381fe5b31461011257806352c55db914610140575b600080fd5b6100b46100af366004610d12565b61026e565b005b3480156100c257600080fd5b506100d66100d1366004610d3e565b610491565b6040516100e99796959493929190610d9d565b60405180910390f35b3480156100fe57600080fd5b506100b461010d366004610d3e565b6105e6565b34801561011e57600080fd5b5061013261012d366004610d12565b61083d565b6040519081526020016100e9565b34801561014c57600080fd5b5061013260015481565b34801561016257600080fd5b50610132610171366004610e95565b610864565b34801561018257600080fd5b5061013266038d7ea4c6800081565b34801561019d57600080fd5b506100b46101ac366004610d12565b61099e565b3480156101bd57600080fd5b506101326101cc366004610f02565b60008381526002602090815260408083206001600160a01b0386168452600701825280832060ff851684529091529020549392505050565b34801561021057600080fd5b5061022461021f366004610d3e565b610b65565b6040516100e996959493929190610f4c565b34801561024257600080fd5b50600054610256906001600160a01b031681565b6040516001600160a01b0390911681526020016100e9565b8160015481111561029a5760405162461bcd60e51b815260040161029190610f9a565b60405180910390fd5b66038d7ea4c680003410156102e15760405162461bcd60e51b815260206004820152600d60248201526c10995d081d1bdbc81cdb585b1b609a1b6044820152606401610291565b60018260ff1611156103265760405162461bcd60e51b815260206004820152600e60248201526d24b73b30b634b21037b83a34b7b760911b6044820152606401610291565b60008381526002602052604090206003015442106103775760405162461bcd60e51b815260206004820152600e60248201526d10995d1d1a5b99c818db1bdcd95960921b6044820152606401610291565b60008381526002602052604090206004015460ff16156103ca5760405162461bcd60e51b815260206004820152600e60248201526d115d995b9d081c995cdbdb1d995960921b6044820152606401610291565b600083815260026020908152604080832033845260078101835281842060ff871685529092528220805491923492610403908490610fde565b909155505060ff831660009081526006820160205260408120805434929061042c908490610fde565b92505081905550348160050160008282546104479190610fde565b90915550506040805160ff85168152346020820152339186917f4f1eed5e863a822b0f9eb960dfdab2cc5a99beec4b191f2a7a9c7e28e5a15524910160405180910390a350505050565b600260205260009081526040902080546001820180549192916104b390610ff1565b80601f01602080910402602001604051908101604052809291908181526020018280546104df90610ff1565b801561052c5780601f106105015761010080835404028352916020019161052c565b820191906000526020600020905b81548152906001019060200180831161050f57829003601f168201915b50505050509080600201805461054190610ff1565b80601f016020809104026020016040519081016040528092919081815260200182805461056d90610ff1565b80156105ba5780601f1061058f576101008083540402835291602001916105ba565b820191906000526020600020905b81548152906001019060200180831161059d57829003601f168201915b505050600384015460048501546005909501549394909360ff8083169450610100909204909116915087565b806001548111156106095760405162461bcd60e51b815260040161029190610f9a565b6000828152600260205260409020600481015460ff166106605760405162461bcd60e51b8152602060048201526012602482015271115d995b9d081b9bdd081c995cdbdb1d995960721b6044820152606401610291565b33600090815260088201602052604090205460ff16156106b65760405162461bcd60e51b815260206004820152601160248201527020b63932b0b23c903bb4ba34323930bbb760791b6044820152606401610291565b33600090815260078201602090815260408083206004850154610100900460ff1684529091529020548061071d5760405162461bcd60e51b815260206004820152600e60248201526d139bc81dda5b9b9a5b99c818995d60921b6044820152606401610291565b6004820154610100900460ff1660009081526006830160205260408120546005840154909190829061074f908561102b565b6107599190611042565b336000818152600887016020526040808220805460ff19166001179055519293509183908381818185875af1925050503d80600081146107b5576040519150601f19603f3d011682016040523d82523d6000602084013e6107ba565b606091505b50509050806107fd5760405162461bcd60e51b815260206004820152600f60248201526e151c985b9cd9995c8819985a5b1959608a1b6044820152606401610291565b604051828152339088907f9f1f3144430cc9624860cf28da61318e428f6d15f17e420c04e8203581951a919060200160405180910390a350505050505050565b600082815260026020908152604080832060ff851684526006019091529020545b92915050565b600080546001600160a01b031633146108ac5760405162461bcd60e51b815260206004820152600a60248201526927b7363c9030b236b4b760b11b6044820152606401610291565b4282116108fb5760405162461bcd60e51b815260206004820152601a60248201527f456e642074696d65206d75737420626520696e206675747572650000000000006044820152606401610291565b6001805490600061090b83611064565b909155505060018054600081815260026020526040902090815590810161093286826110cc565b506002810161094185826110cc565b506003810183905560048101805460ff191690556001546040517fee37bb5143a14810f72e86fce895be08e16090409d2e18f79b308995e39b73d49061098a908890879061118c565b60405180910390a250506001549392505050565b6000546001600160a01b031633146109e55760405162461bcd60e51b815260206004820152600a60248201526927b7363c9030b236b4b760b11b6044820152606401610291565b81600154811115610a085760405162461bcd60e51b815260040161029190610f9a565b60008381526002602052604090206004015460ff1615610a5d5760405162461bcd60e51b815260206004820152601060248201526f105b1c9958591e481c995cdbdb1d995960821b6044820152606401610291565b600083815260026020526040902060030154421015610ab05760405162461bcd60e51b815260206004820152600f60248201526e115d995b9d081b9bdd08195b991959608a1b6044820152606401610291565b60018260ff161115610af55760405162461bcd60e51b815260206004820152600e60248201526d24b73b30b634b21037b83a34b7b760911b6044820152606401610291565b60008381526002602052604090819020600401805460ff85166101000261ffff199091161760011790555183907f1f640a413e29fd079316af79074dee56e6e3434e43dad0372c4e9138e88fa48590610b5890859060ff91909116815260200190565b60405180910390a2505050565b60608060008060008086600154811115610b915760405162461bcd60e51b815260040161029190610f9a565b600088815260026020819052604090912060038101546004820154600583015460018401805494959094908601939260ff8082169361010090920416918690610bd990610ff1565b80601f0160208091040260200160405190810160405280929190818152602001828054610c0590610ff1565b8015610c525780601f10610c2757610100808354040283529160200191610c52565b820191906000526020600020905b815481529060010190602001808311610c3557829003601f168201915b50505050509550848054610c6590610ff1565b80601f0160208091040260200160405190810160405280929190818152602001828054610c9190610ff1565b8015610cde5780601f10610cb357610100808354040283529160200191610cde565b820191906000526020600020905b815481529060010190602001808311610cc157829003601f168201915b50505050509450975097509750975097509750505091939550919395565b803560ff81168114610d0d57600080fd5b919050565b60008060408385031215610d2557600080fd5b82359150610d3560208401610cfc565b90509250929050565b600060208284031215610d5057600080fd5b5035919050565b6000815180845260005b81811015610d7d57602081850181015186830182015201610d61565b506000602082860101526020601f19601f83011685010191505092915050565b87815260e060208201526000610db660e0830189610d57565b8281036040840152610dc88189610d57565b60608401979097525050921515608084015260ff9190911660a083015260c0909101529392505050565b634e487b7160e01b600052604160045260246000fd5b600082601f830112610e1957600080fd5b813567ffffffffffffffff80821115610e3457610e34610df2565b604051601f8301601f19908116603f01168101908282118183101715610e5c57610e5c610df2565b81604052838152866020858801011115610e7557600080fd5b836020870160208301376000602085830101528094505050505092915050565b600080600060608486031215610eaa57600080fd5b833567ffffffffffffffff80821115610ec257600080fd5b610ece87838801610e08565b94506020860135915080821115610ee457600080fd5b50610ef186828701610e08565b925050604084013590509250925092565b600080600060608486031215610f1757600080fd5b8335925060208401356001600160a01b0381168114610f3557600080fd5b9150610f4360408501610cfc565b90509250925092565b60c081526000610f5f60c0830189610d57565b8281036020840152610f718189610d57565b60408401979097525050921515606084015260ff91909116608083015260a09091015292915050565b602080825260149082015273115d995b9d08191bd95cc81b9bdd08195e1a5cdd60621b604082015260600190565b634e487b7160e01b600052601160045260246000fd5b8082018082111561085e5761085e610fc8565b600181811c9082168061100557607f821691505b60208210810361102557634e487b7160e01b600052602260045260246000fd5b50919050565b808202811582820484141761085e5761085e610fc8565b60008261105f57634e487b7160e01b600052601260045260246000fd5b500490565b60006001820161107657611076610fc8565b5060010190565b601f8211156110c757600081815260208120601f850160051c810160208610156110a45750805b601f850160051c820191505b818110156110c3578281556001016110b0565b5050505b505050565b815167ffffffffffffffff8111156110e6576110e6610df2565b6110fa816110f48454610ff1565b8461107d565b602080601f83116001811461112f57600084156111175750858301515b600019600386901b1c1916600185901b1785556110c3565b600085815260208120601f198616915b8281101561115e5788860151825594840194600190910190840161113f565b508582101561117c5787850151600019600388901b60f8161c191681555b5050505050600190811b01905550565b60408152600061119f6040830185610d57565b9050826020830152939250505056fea26469706673582212203e4856ab08e5cc68e87ce6b1f01368cde3b9849d583dbad5a6c8c0d2d45cd0ce64736f6c63430008130033","linkReferences":{}},"methodIdentifiers":{"MIN_BET()":"6540742f","admin()":"f851a440","createEvent(string,string,uint256)":"5555fe17","eventCounter()":"52c55db9","events(uint256)":"0b791430","getEventDetails(uint256)":"ec38d5a0","getOptionPool(uint256,uint8)":"381fe5b3","getUserBet(uint256,address,uint8)":"e3359a25","placeBet(uint256,uint8)":"03edf914","resolveEvent(uint256,uint8)":"da9db866","withdrawWinnings(uint256)":"14794702"},"id":3}