{"abi":[{"type":"constructor","inputs":[{"name":"_admin","type":"address","internalType":"address"},{"name":"name_","type":"string","internalType":"string"},{"name":"symbol_","type":"string","internalType":"string"}],"stateMutability":"nonpayable"},{"type":"function","name":"admin","inputs":[],"outputs":[{"name":"","type":"address","internalType":"address"}],"stateMutability":"view"},{"type":"function","name":"allowance","inputs":[{"name":"owner","type":"address","internalType":"address"},{"name":"spender","type":"address","internalType":"address"}],"outputs":[{"name":"","type":"uint256","internalType":"uint256"}],"stateMutability":"view"},{"type":"function","name":"approve","inputs":[{"name":"spender","type":"address","internalType":"address"},{"name":"amount","type":"uint256","internalType":"uint256"}],"outputs":[{"name":"","type":"bool","internalType":"bool"}],"stateMutability":"nonpayable"},{"type":"function","name":"balanceOf","inputs":[{"name":"account","type":"address","internalType":"address"}],"outputs":[{"name":"","type":"uint256","internalType":"uint256"}],"stateMutability":"view"},{"type":"function","name":"createProposal","inputs":[{"name":"description","type":"string","internalType":"string"}],"outputs":[{"name":"","type":"uint256","internalType":"uint256"}],"stateMutability":"nonpayable"},{"type":"function","name":"decimals","inputs":[],"outputs":[{"name":"","type":"uint8","internalType":"uint8"}],"stateMutability":"view"},{"type":"function","name":"executeProposal","inputs":[{"name":"proposalId","type":"uint256","internalType":"uint256"}],"outputs":[],"stateMutability":"nonpayable"},{"type":"function","name":"getProposal","inputs":[{"name":"proposalId","type":"uint256","internalType":"uint256"}],"outputs":[{"name":"description","type":"string","internalType":"string"},{"name":"votesFor","type":"uint256","internalType":"uint256"},{"name":"votesAgainst","type":"uint256","internalType":"uint256"},{"name":"endTime","type":"uint256","internalType":"uint256"},{"name":"executed","type":"bool","internalType":"bool"},{"name":"proposer","type":"address","internalType":"address"}],"stateMutability":"view"},{"type":"function","name":"mint","inputs":[{"name":"to","type":"address","internalType":"address"},{"name":"amount","type":"uint256","internalType":"uint256"}],"outputs":[],"stateMutability":"nonpayable"},{"type":"function","name":"name","inputs":[],"outputs":[{"name":"","type":"string","internalType":"string"}],"stateMutability":"view"},{"type":"function","name":"proposalCounter","inputs":[],"outputs":[{"name":"","type":"uint256","internalType":"uint256"}],"stateMutability":"view"},{"type":"function","name":"proposals","inputs":[{"name":"","type":"uint256","internalType":"uint256"}],"outputs":[{"name":"id","type":"uint256","internalType":"uint256"},{"name":"description","type":"string","internalType":"string"},{"name":"votesFor","type":"uint256","internalType":"uint256"},{"name":"votesAgainst","type":"uint256","internalType":"uint256"},{"name":"endTime","type":"uint256","internalType":"uint256"},{"name":"executed","type":"bool","internalType":"bool"},{"name":"proposer","type":"address","internalType":"address"}],"stateMutability":"view"},{"type":"function","name":"symbol","inputs":[],"outputs":[{"name":"","type":"string","internalType":"string"}],"stateMutability":"view"},{"type":"function","name":"totalSupply","inputs":[],"outputs":[{"name":"","type":"uint256","internalType":"uint256"}],"stateMutability":"view"},{"type":"function","name":"transfer","inputs":[{"name":"to","type":"address","internalType":"address"},{"name":"amount","type":"uint256","internalType":"uint256"}],"outputs":[{"name":"","type":"bool","internalType":"bool"}],"stateMutability":"nonpayable"},{"type":"function","name":"transferFrom","inputs":[{"name":"from","type":"address","internalType":"address"},{"name":"to","type":"address","internalType":"address"},{"name":"amount","type":"uint256","internalType":"uint256"}],"outputs":[{"name":"","type":"bool","internalType":"bool"}],"stateMutability":"nonpayable"},{"type":"function","name":"vote","inputs":[{"name":"proposalId","type":"uint256","internalType":"uint256"},{"name":"support","type":"bool","internalType":"bool"}],"outputs":[],"stateMutability":"nonpayable"},{"type":"event","name":"Approval","inputs":[{"name":"owner","type":"address","indexed":true,"internalType":"address"},{"name":"spender","type":"address","indexed":true,"internalType":"address"},{"name":"value","type":"uint256","indexed":false,"internalType":"uint256"}],"anonymous":false},{"type":"event","name":"ProposalCreated","inputs":[{"name":"proposalId","type":"uint256","indexed":true,"internalType":"uint256"},{"name":"description","type":"string","indexed":false,"internalType":"string"},{"name":"proposer","type":"address","indexed":false,"internalType":"address"}],"anonymous":false},{"type":"event","name":"ProposalExecuted","inputs":[{"name":"proposalId","type":"uint256","indexed":true,"internalType":"uint256"}],"anonymous":false},{"type":"event","name":"TokensMinted","inputs":[{"name":"to","type":"address","indexed":true,"internalType":"address"},{"name":"amount","type":"uint256","indexed":false,"internalType":"uint256"}],"anonymous":false},{"type":"event","name":"Transfer","inputs":[{"name":"from","type":"address","indexed":true,"internalType":"address"},{"name":"to","type":"address","indexed":true,"internalType":"address"},{"name":"value","type":"uint256","indexed":false,"internalType":"uint256"}],"anonymous":false},{"type":"event","name":"Voted","inputs":[{"name":"proposalId","type":"uint256","indexed":true,"internalType":"uint256"},{"name":"voter","type":"address","indexed":true,"internalType":"address"},{"name":"support","type":"bool","indexed":false,"internalType":"bool"},{"name":"weight","type":"uint256","indexed":false,"internalType":"uint256"}],"anonymous":false}],"bytecode":{"object":"0x60806040526007805460ff191660121790553480156200001e57600080fd5b506040516200174738038062001747833981016040819052620000419162000148565b600080546001600160a01b0319166001600160a01b03851617905560056200006a838262000261565b50600662000079828262000261565b505050506200032d565b634e487b7160e01b600052604160045260246000fd5b600082601f830112620000ab57600080fd5b81516001600160401b0380821115620000c857620000c862000083565b604051601f8301601f19908116603f01168101908282118183101715620000f357620000f362000083565b816040528381526020925086838588010111156200011057600080fd5b600091505b8382101562000134578582018301518183018401529082019062000115565b600093810190920192909252949350505050565b6000806000606084860312156200015e57600080fd5b83516001600160a01b03811681146200017657600080fd5b60208501519093506001600160401b03808211156200019457600080fd5b620001a28783880162000099565b93506040860151915080821115620001b957600080fd5b50620001c88682870162000099565b9150509250925092565b600181811c90821680620001e757607f821691505b6020821081036200020857634e487b7160e01b600052602260045260246000fd5b50919050565b601f8211156200025c57600081815260208120601f850160051c81016020861015620002375750805b601f850160051c820191505b81811015620002585782815560010162000243565b5050505b505050565b81516001600160401b038111156200027d576200027d62000083565b62000295816200028e8454620001d2565b846200020e565b602080601f831160018114620002cd5760008415620002b45750858301515b600019600386901b1c1916600185901b17855562000258565b600085815260208120601f198616915b82811015620002fe57888601518255948401946001909101908401620002dd565b50858210156200031d5787850151600019600388901b60f8161c191681555b5050505050600190811b01905550565b61140a806200033d6000396000f3fe608060405234801561001057600080fd5b506004361061010b5760003560e01c806340c10f19116100a2578063a9059cbb11610071578063a9059cbb1461022a578063c7f758a81461023d578063c9d27afe14610262578063dd62ed3e14610275578063f851a440146102ae57600080fd5b806340c10f19146101d357806349c2a1a6146101e657806370a08231146101f957806395d89b411461022257600080fd5b80630d61b519116100de5780630d61b5191461018e57806318160ddd146101a357806323b872dd146101ab578063313ce567146101be57600080fd5b8063013cf08b1461011057806306fdde031461013f578063095ea7b3146101545780630c0512e914610177575b600080fd5b61012361011e366004610f45565b6102d9565b6040516101369796959493929190610fa4565b60405180910390f35b6101476103aa565b6040516101369190610ff2565b610167610162366004611028565b61043c565b6040519015158152602001610136565b61018060015481565b604051908152602001610136565b6101a161019c366004610f45565b610456565b005b600454610180565b6101676101b9366004611052565b610612565b60075460405160ff9091168152602001610136565b6101a16101e1366004611028565b610636565b6101806101f43660046110a4565b6106ce565b610180610207366004611155565b6001600160a01b031660009081526002602052604090205490565b6101476107db565b610167610238366004611028565b6107ea565b61025061024b366004610f45565b6107f8565b60405161013696959493929190611170565b6101a16102703660046111b7565b6108f7565b6101806102833660046111ec565b6001600160a01b03918216600090815260036020908152604080832093909416825291909152205490565b6000546102c1906001600160a01b031681565b6040516001600160a01b039091168152602001610136565b600860205260009081526040902080546001820180549192916102fb9061121f565b80601f01602080910402602001604051908101604052809291908181526020018280546103279061121f565b80156103745780601f1061034957610100808354040283529160200191610374565b820191906000526020600020905b81548152906001019060200180831161035757829003601f168201915b505050506002830154600384015460048501546005909501549394919390925060ff81169061010090046001600160a01b031687565b6060600580546103b99061121f565b80601f01602080910402602001604051908101604052809291908181526020018280546103e59061121f565b80156104325780601f1061040757610100808354040283529160200191610432565b820191906000526020600020905b81548152906001019060200180831161041557829003601f168201915b5050505050905090565b60003361044a818585610aef565b60019150505b92915050565b6000546001600160a01b031633146104a25760405162461bcd60e51b815260206004820152600a60248201526927b7363c9030b236b4b760b11b60448201526064015b60405180910390fd5b6001548111156104ee5760405162461bcd60e51b8152602060048201526017602482015276141c9bdc1bdcd85b08191bd95cc81b9bdd08195e1a5cdd604a1b6044820152606401610499565b600081815260086020526040902060048101544210156105435760405162461bcd60e51b815260206004820152601060248201526f159bdd1a5b99c81b9bdd08195b99195960821b6044820152606401610499565b600581015460ff161561058b5760405162461bcd60e51b815260206004820152601060248201526f105b1c9958591e48195e1958dd5d195960821b6044820152606401610499565b80600301548160020154116105d45760405162461bcd60e51b815260206004820152600f60248201526e141c9bdc1bdcd85b0819985a5b1959608a1b6044820152606401610499565b60058101805460ff1916600117905560405182907f712ae1383f79ac853f8d882153778e0260ef8f03b504e2866e0593e04d2b291f90600090a25050565b600033610620858285610c13565b61062b858585610ca5565b506001949350505050565b6000546001600160a01b0316331461067d5760405162461bcd60e51b815260206004820152600a60248201526927b7363c9030b236b4b760b11b6044820152606401610499565b6106878282610e66565b816001600160a01b03167f3f2c9d57c068687834f0de942a9babb9e5acab57d516d3480a3c16ee165a4273826040516106c291815260200190565b60405180910390a25050565b33600090815260026020526040812054811061072c5760405162461bcd60e51b815260206004820152601b60248201527f4d75737420686f6c6420746f6b656e7320746f2070726f706f736500000000006044820152606401610499565b6001805490600061073c8361126f565b909155505060018054600081815260086020526040902090815590810161076384826112d7565b506107714262093a80611397565b6004820155600581018054610100600160a81b0319163361010081029190911790915560015460405190917fc8c078bfee58e5822588f08b4509ed1eb5058e03f666cca84dd2d44bf5c288a8916107c99187916113aa565b60405180910390a25050600154919050565b6060600680546103b99061121f565b60003361044a818585610ca5565b6060600080600080600080600860008981526020019081526020016000209050806001018160020154826003015483600401548460050160009054906101000a900460ff168560050160019054906101000a90046001600160a01b03168580546108619061121f565b80601f016020809104026020016040519081016040528092919081815260200182805461088d9061121f565b80156108da5780601f106108af576101008083540402835291602001916108da565b820191906000526020600020905b8154815290600101906020018083116108bd57829003601f168201915b505050505095509650965096509650965096505091939550919395565b6001548211156109435760405162461bcd60e51b8152602060048201526017602482015276141c9bdc1bdcd85b08191bd95cc81b9bdd08195e1a5cdd604a1b6044820152606401610499565b33600090815260026020526040812054116109a05760405162461bcd60e51b815260206004820152601860248201527f4d75737420686f6c6420746f6b656e7320746f20766f746500000000000000006044820152606401610499565b6000828152600860205260409020600481015442106109f05760405162461bcd60e51b815260206004820152600c60248201526b159bdd1a5b99c8195b99195960a21b6044820152606401610499565b33600090815260068201602052604090205460ff1615610a425760405162461bcd60e51b815260206004820152600d60248201526c105b1c9958591e481d9bdd1959609a1b6044820152606401610499565b3360009081526002602090815260408083205460068501909252909120805460ff191660011790558215610a8f5780826002016000828254610a849190611397565b90915550610aa99050565b80826003016000828254610aa39190611397565b90915550505b60408051841515815260208101839052339186917f7c2de587c00d75474a0c6c6fa96fd3b45dc974cd4e8a75f712bb84c950dce1b591015b60405180910390a350505050565b6001600160a01b038316610b515760405162461bcd60e51b8152602060048201526024808201527f45524332303a20617070726f76652066726f6d20746865207a65726f206164646044820152637265737360e01b6064820152608401610499565b6001600160a01b038216610bb25760405162461bcd60e51b815260206004820152602260248201527f45524332303a20617070726f766520746f20746865207a65726f206164647265604482015261737360f01b6064820152608401610499565b6001600160a01b0383811660008181526003602090815260408083209487168084529482529182902085905590518481527f8c5be1e5ebec7d5bd14f71427d1e84f3dd0314c0f7b2291e5b200ac8c7c3b925910160405180910390a3505050565b6001600160a01b038381166000908152600360209081526040808320938616835292905220546000198114610c9f5781811015610c925760405162461bcd60e51b815260206004820152601d60248201527f45524332303a20696e73756666696369656e7420616c6c6f77616e63650000006044820152606401610499565b610c9f8484848403610aef565b50505050565b6001600160a01b038316610d095760405162461bcd60e51b815260206004820152602560248201527f45524332303a207472616e736665722066726f6d20746865207a65726f206164604482015264647265737360d81b6064820152608401610499565b6001600160a01b038216610d6b5760405162461bcd60e51b815260206004820152602360248201527f45524332303a207472616e7366657220746f20746865207a65726f206164647260448201526265737360e81b6064820152608401610499565b6001600160a01b03831660009081526002602052604090205481811015610de35760405162461bcd60e51b815260206004820152602660248201527f45524332303a207472616e7366657220616d6f756e7420657863656564732062604482015265616c616e636560d01b6064820152608401610499565b6001600160a01b03808516600090815260026020526040808220858503905591851681529081208054849290610e1a908490611397565b92505081905550826001600160a01b0316846001600160a01b03167fddf252ad1be2c89b69c2b068fc378daa952ba7f163c4a11628f55a4df523b3ef84604051610ae191815260200190565b6001600160a01b038216610ebc5760405162461bcd60e51b815260206004820152601f60248201527f45524332303a206d696e7420746f20746865207a65726f2061646472657373006044820152606401610499565b8060046000828254610ece9190611397565b90915550506001600160a01b03821660009081526002602052604081208054839290610efb908490611397565b90915550506040518181526001600160a01b038316906000907fddf252ad1be2c89b69c2b068fc378daa952ba7f163c4a11628f55a4df523b3ef9060200160405180910390a35050565b600060208284031215610f5757600080fd5b5035919050565b6000815180845260005b81811015610f8457602081850181015186830182015201610f68565b506000602082860101526020601f19601f83011685010191505092915050565b87815260e060208201526000610fbd60e0830189610f5e565b60408301979097525060608101949094526080840192909252151560a08301526001600160a01b031660c09091015292915050565b6020815260006110056020830184610f5e565b9392505050565b80356001600160a01b038116811461102357600080fd5b919050565b6000806040838503121561103b57600080fd5b6110448361100c565b946020939093013593505050565b60008060006060848603121561106757600080fd5b6110708461100c565b925061107e6020850161100c565b9150604084013590509250925092565b634e487b7160e01b600052604160045260246000fd5b6000602082840312156110b657600080fd5b813567ffffffffffffffff808211156110ce57600080fd5b818401915084601f8301126110e257600080fd5b8135818111156110f4576110f461108e565b604051601f8201601f19908116603f0116810190838211818310171561111c5761111c61108e565b8160405282815287602084870101111561113557600080fd5b826020860160208301376000928101602001929092525095945050505050565b60006020828403121561116757600080fd5b6110058261100c565b60c08152600061118360c0830189610f5e565b60208301979097525060408101949094526060840192909252151560808301526001600160a01b031660a090910152919050565b600080604083850312156111ca57600080fd5b82359150602083013580151581146111e157600080fd5b809150509250929050565b600080604083850312156111ff57600080fd5b6112088361100c565b91506112166020840161100c565b90509250929050565b600181811c9082168061123357607f821691505b60208210810361125357634e487b7160e01b600052602260045260246000fd5b50919050565b634e487b7160e01b600052601160045260246000fd5b60006001820161128157611281611259565b5060010190565b601f8211156112d257600081815260208120601f850160051c810160208610156112af5750805b601f850160051c820191505b818110156112ce578281556001016112bb565b5050505b505050565b815167ffffffffffffffff8111156112f1576112f161108e565b611305816112ff845461121f565b84611288565b602080601f83116001811461133a57600084156113225750858301515b600019600386901b1c1916600185901b1785556112ce565b600085815260208120601f198616915b828110156113695788860151825594840194600190910190840161134a565b50858210156113875787850151600019600388901b60f8161c191681555b5050505050600190811b01905550565b8082018082111561045057610450611259565b6040815260006113bd6040830185610f5e565b905060018060a01b0383166020830152939250505056fea264697066735822122014acf9b3aeb7aa2f1acf462fdf70e5bc589a4f4a6709528679a66adcd4a1150264736f6c63430008130033","linkReferences":{}},"methodIdentifiers":{"admin()":"f851a440","allowance(address,address)":"dd62ed3e","approve(address,uint256)":"095ea7b3","balanceOf(address)":"70a08231","createProposal(string)":"49c2a1a6","decimals()":"313ce567","executeProposal(uint256)":"0d61b519","getProposal(uint256)":"c7f758a8","mint(address,uint256)":"40c10f19","name()":"06fdde03","proposalCounter()":"0c0512e9","proposals(uint256)":"013cf08b","symbol()":"95d89b41","totalSupply()":"18160ddd","transfer(address,uint256)":"a9059cbb","transferFrom(address,address,uint256)":"23b872dd","vote(uint256,bool)":"c9d27afe"},"id":1}