{"abi":[{"type":"constructor","inputs":[{"name":"_admin","type":"address","internalType":"address"},{"name":"name_","type":"string","internalType":"string"},{"name":"symbol_","type":"string","internalType":"string"}],"stateMutability":"nonpayable"},{"type":"function","name":"admin","inputs":[],"outputs":[{"name":"","type":"address","internalType":"address"}],"stateMutability":"view"},{"type":"function","name":"allowance","inputs":[{"name":"owner","type":"address","internalType":"address"},{"name":"spender","type":"address","internalType":"address"}],"outputs":[{"name":"","type":"uint256","internalType":"uint256"}],"stateMutability":"view"},{"type":"function","name":"approve","inputs":[{"name":"spender","type":"address","internalType":"address"},{"name":"amount","type":"uint256","internalType":"uint256"}],"outputs":[{"name":"","type":"bool","internalType":"bool"}],"stateMutability":"nonpayable"},{"type":"function","name":"balanceOf","inputs":[{"name":"account","type":"address","internalType":"address"}],"outputs":[{"name":"","type":"uint256","internalType":"uint256"}],"stateMutability":"view"},{"type":"function","name":"createProposal","inputs":[{"name":"description","type":"string","internalType":"string"}],"outputs":[{"name":"","type":"uint256","internalType":"uint256"}],"stateMutability":"nonpayable"},{"type":"function","name":"decimals","inputs":[],"outputs":[{"name":"","type":"uint8","internalType":"uint8"}],"stateMutability":"view"},{"type":"function","name":"executeProposal","inputs":[{"name":"proposalId","type":"uint256","internalType":"uint256"}],"outputs":[],"stateMutability":"nonpayable"},{"type":"function","name":"getProposal","inputs":[{"name":"proposalId","type":"uint256","internalType":"uint256"}],"outputs":[{"name":"description","type":"string","internalType":"string"},{"name":"votesFor","type":"uint256","internalType":"uint256"},{"name":"votesAgainst","type":"uint256","internalType":"uint256"},{"name":"endTime","type":"uint256","internalType":"uint256"},{"name":"executed","type":"bool","internalType":"bool"},{"name":"proposer","type":"address","internalType":"address"}],"stateMutability":"view"},{"type":"function","name":"mint","inputs":[{"name":"to","type":"address","internalType":"address"},{"name":"amount","type":"uint256","internalType":"uint256"}],"outputs":[],"stateMutability":"nonpayable"},{"type":"function","name":"name","inputs":[],"outputs":[{"name":"","type":"string","internalType":"string"}],"stateMutability":"view"},{"type":"function","name":"proposalCounter","inputs":[],"outputs":[{"name":"","type":"uint256","internalType":"uint256"}],"stateMutability":"view"},{"type":"function","name":"proposals","inputs":[{"name":"","type":"uint256","internalType":"uint256"}],"outputs":[{"name":"id","type":"uint256","internalType":"uint256"},{"name":"description","type":"string","internalType":"string"},{"name":"votesFor","type":"uint256","internalType":"uint256"},{"name":"votesAgainst","type":"uint256","internalType":"uint256"},{"name":"endTime","type":"uint256","internalType":"uint256"},{"name":"executed","type":"bool","internalType":"bool"},{"name":"proposer","type":"address","internalType":"address"}],"stateMutability":"view"},{"type":"function","name":"symbol","inputs":[],"outputs":[{"name":"","type":"string","internalType":"string"}],"stateMutability":"view"},{"type":"function","name":"totalSupply","inputs":[],"outputs":[{"name":"","type":"uint256","internalType":"uint256"}],"stateMutability":"view"},{"type":"function","name":"transfer","inputs":[{"name":"to","type":"address","internalType":"address"},{"name":"amount","type":"uint256","internalType":"uint256"}],"outputs":[{"name":"","type":"bool","internalType":"bool"}],"stateMutability":"nonpayable"},{"type":"function","name":"transferFrom","inputs":[{"name":"from","type":"address","internalType":"address"},{"name":"to","type":"address","internalType":"address"},{"name":"amount","type":"uint256","internalType":"uint256"}],"outputs":[{"name":"","type":"bool","internalType":"bool"}],"stateMutability":"nonpayable"},{"type":"function","name":"vote","inputs":[{"name":"proposalId","type":"uint256","internalType":"uint256"},{"name":"support","type":"bool","internalType":"bool"}],"outputs":[],"stateMutability":"nonpayable"},{"type":"event","name":"Approval","inputs":[{"name":"owner","type":"address","indexed":true,"internalType":"address"},{"name":"spender","type":"address","indexed":true,"internalType":"address"},{"name":"value","type":"uint256","indexed":false,"internalType":"uint256"}],"anonymous":false},{"type":"event","name":"ProposalCreated","inputs":[{"name":"proposalId","type":"uint256","indexed":true,"internalType":"uint256"},{"name":"description","type":"string","indexed":false,"internalType":"string"},{"name":"proposer","type":"address","indexed":false,"internalType":"address"}],"anonymous":false},{"type":"event","name":"ProposalExecuted","inputs":[{"name":"proposalId","type":"uint256","indexed":true,"internalType":"uint256"}],"anonymous":false},{"type":"event","name":"TokensMinted","inputs":[{"name":"to","type":"address","indexed":true,"internalType":"address"},{"name":"amount","type":"uint256","indexed":false,"internalType":"uint256"}],"anonymous":false},{"type":"event","name":"Transfer","inputs":[{"name":"from","type":"address","indexed":true,"internalType":"address"},{"name":"to","type":"address","indexed":true,"internalType":"address"},{"name":"value","type":"uint256","indexed":false,"internalType":"uint256"}],"anonymous":false},{"type":"event","name":"Voted","inputs":[{"name":"proposalId","type":"uint256","indexed":true,"internalType":"uint256"},{"name":"voter","type":"address","indexed":true,"internalType":"address"},{"name":"support","type":"bool","indexed":false,"internalType":"bool"},{"name":"weight","type":"uint256","indexed":false,"internalType":"uint256"}],"anonymous":false}],"bytecode":{"object":"0x60806040526012600760006101000a81548160ff021916908360ff1602179055503480156200002d57600080fd5b5060405162002d4438038062002d448339818101604052810190620000539190620002b8565b826000806101000a81548173ffffffffffffffffffffffffffffffffffffffff021916908373ffffffffffffffffffffffffffffffffffffffff1602179055508160059081620000a491906200059d565b508060069081620000b691906200059d565b5050505062000684565b6000604051905090565b600080fd5b600080fd5b600073ffffffffffffffffffffffffffffffffffffffff82169050919050565b60006200010182620000d4565b9050919050565b6200011381620000f4565b81146200011f57600080fd5b50565b600081519050620001338162000108565b92915050565b600080fd5b600080fd5b6000601f19601f8301169050919050565b7f4e487b7100000000000000000000000000000000000000000000000000000000600052604160045260246000fd5b6200018e8262000143565b810181811067ffffffffffffffff82111715620001b057620001af62000154565b5b80604052505050565b6000620001c5620000c0565b9050620001d3828262000183565b919050565b600067ffffffffffffffff821115620001f657620001f562000154565b5b620002018262000143565b9050602081019050919050565b60005b838110156200022e57808201518184015260208101905062000211565b60008484015250505050565b6000620002516200024b84620001d8565b620001b9565b90508281526020810184848401111562000270576200026f6200013e565b5b6200027d8482856200020e565b509392505050565b600082601f8301126200029d576200029c62000139565b5b8151620002af8482602086016200023a565b91505092915050565b600080600060608486031215620002d457620002d3620000ca565b5b6000620002e48682870162000122565b935050602084015167ffffffffffffffff811115620003085762000307620000cf565b5b620003168682870162000285565b925050604084015167ffffffffffffffff8111156200033a5762000339620000cf565b5b620003488682870162000285565b9150509250925092565b600081519050919050565b7f4e487b7100000000000000000000000000000000000000000000000000000000600052602260045260246000fd5b60006002820490506001821680620003a557607f821691505b602082108103620003bb57620003ba6200035d565b5b50919050565b60008190508160005260206000209050919050565b60006020601f8301049050919050565b600082821b905092915050565b600060088302620004257fffffffffffffffffffffffffffffffffffffffffffffffffffffffffffffffff82620003e6565b620004318683620003e6565b95508019841693508086168417925050509392505050565b6000819050919050565b6000819050919050565b60006200047e62000478620004728462000449565b62000453565b62000449565b9050919050565b6000819050919050565b6200049a836200045d565b620004b2620004a98262000485565b848454620003f3565b825550505050565b600090565b620004c9620004ba565b620004d68184846200048f565b505050565b5b81811015620004fe57620004f2600082620004bf565b600181019050620004dc565b5050565b601f8211156200054d576200051781620003c1565b6200052284620003d6565b8101602085101562000532578190505b6200054a6200054185620003d6565b830182620004db565b50505b505050565b600082821c905092915050565b6000620005726000198460080262000552565b1980831691505092915050565b60006200058d83836200055f565b9150826002028217905092915050565b620005a88262000352565b67ffffffffffffffff811115620005c457620005c362000154565b5b620005d082546200038c565b620005dd82828562000502565b600060209050601f83116001811462000615576000841562000600578287015190505b6200060c85826200057f565b8655506200067c565b601f1984166200062586620003c1565b60005b828110156200064f5784890151825560018201915060208501945060208101905062000628565b868310156200066f57848901516200066b601f8916826200055f565b8355505b6001600288020188555050505b505050505050565b6126b080620006946000396000f3fe608060405234801561001057600080fd5b506004361061010b5760003560e01c806340c10f19116100a2578063a9059cbb11610071578063a9059cbb146102d4578063c7f758a814610304578063c9d27afe14610339578063dd62ed3e14610355578063f851a440146103855761010b565b806340c10f191461023a57806349c2a1a61461025657806370a082311461028657806395d89b41146102b65761010b565b80630d61b519116100de5780630d61b519146101b257806318160ddd146101ce57806323b872dd146101ec578063313ce5671461021c5761010b565b8063013cf08b1461011057806306fdde0314610146578063095ea7b3146101645780630c0512e914610194575b600080fd5b61012a60048036038101906101259190611554565b6103a3565b60405161013d979695949392919061167c565b60405180910390f35b61014e61049a565b60405161015b91906116f2565b60405180910390f35b61017e60048036038101906101799190611740565b61052c565b60405161018b9190611780565b60405180910390f35b61019c610548565b6040516101a9919061179b565b60405180910390f35b6101cc60048036038101906101c79190611554565b61054e565b005b6101d6610769565b6040516101e3919061179b565b60405180910390f35b610206600480360381019061020191906117b6565b610773565b6040516102139190611780565b60405180910390f35b61022461079b565b6040516102319190611825565b60405180910390f35b610254600480360381019061024f9190611740565b6107b2565b005b610270600480360381019061026b9190611975565b61089c565b60405161027d919061179b565b60405180910390f35b6102a0600480360381019061029b91906119be565b6109d7565b6040516102ad919061179b565b60405180910390f35b6102be610a20565b6040516102cb91906116f2565b60405180910390f35b6102ee60048036038101906102e99190611740565b610ab2565b6040516102fb9190611780565b60405180910390f35b61031e60048036038101906103199190611554565b610ace565b604051610330969594939291906119eb565b60405180910390f35b610353600480360381019061034e9190611a7f565b610bda565b005b61036f600480360381019061036a9190611abf565b610e56565b60405161037c919061179b565b60405180910390f35b61038d610edd565b60405161039a9190611aff565b60405180910390f35b60086020528060005260406000206000915090508060000154908060010180546103cc90611b49565b80601f01602080910402602001604051908101604052809291908181526020018280546103f890611b49565b80156104455780601f1061041a57610100808354040283529160200191610445565b820191906000526020600020905b81548152906001019060200180831161042857829003601f168201915b5050505050908060020154908060030154908060040154908060050160009054906101000a900460ff16908060050160019054906101000a900473ffffffffffffffffffffffffffffffffffffffff16905087565b6060600580546104a990611b49565b80601f01602080910402602001604051908101604052809291908181526020018280546104d590611b49565b80156105225780601f106104f757610100808354040283529160200191610522565b820191906000526020600020905b81548152906001019060200180831161050557829003601f168201915b5050505050905090565b60008033905061053d818585610f01565b600191505092915050565b60015481565b60008054906101000a900473ffffffffffffffffffffffffffffffffffffffff1673ffffffffffffffffffffffffffffffffffffffff163373ffffffffffffffffffffffffffffffffffffffff16146105dc576040517f08c379a00000000000000000000000000000000000000000000000000000000081526004016105d390611bc6565b60405180910390fd5b600154811115610621576040517f08c379a000000000000000000000000000000000000000000000000000000000815260040161061890611c32565b60405180910390fd5b6000600860008381526020019081526020016000209050806004015442101561067f576040517f08c379a000000000000000000000000000000000000000000000000000000000815260040161067690611c9e565b60405180910390fd5b8060050160009054906101000a900460ff16156106d1576040517f08c379a00000000000000000000000000000000000000000000000000000000081526004016106c890611d0a565b60405180910390fd5b806003015481600201541161071b576040517f08c379a000000000000000000000000000000000000000000000000000000000815260040161071290611d76565b60405180910390fd5b60018160050160006101000a81548160ff021916908315150217905550817f712ae1383f79ac853f8d882153778e0260ef8f03b504e2866e0593e04d2b291f60405160405180910390a25050565b6000600454905090565b6000803390506107848582856110ca565b61078f858585611156565b60019150509392505050565b6000600760009054906101000a900460ff16905090565b60008054906101000a900473ffffffffffffffffffffffffffffffffffffffff1673ffffffffffffffffffffffffffffffffffffffff163373ffffffffffffffffffffffffffffffffffffffff1614610840576040517f08c379a000000000000000000000000000000000000000000000000000000000815260040161083790611bc6565b60405180910390fd5b61084a82826113c2565b8173ffffffffffffffffffffffffffffffffffffffff167f3f2c9d57c068687834f0de942a9babb9e5acab57d516d3480a3c16ee165a427382604051610890919061179b565b60405180910390a25050565b6000806108a8336109d7565b116108e8576040517f08c379a00000000000000000000000000000000000000000000000000000000081526004016108df90611de2565b60405180910390fd5b600160008154809291906108fb90611e31565b9190505550600060086000600154815260200190815260200160002090506001548160000181905550828160010190816109359190612025565b5062093a804261094591906120f7565b8160040181905550338160050160016101000a81548173ffffffffffffffffffffffffffffffffffffffff021916908373ffffffffffffffffffffffffffffffffffffffff1602179055506001547fc8c078bfee58e5822588f08b4509ed1eb5058e03f666cca84dd2d44bf5c288a884336040516109c492919061212b565b60405180910390a2600154915050919050565b6000600260008373ffffffffffffffffffffffffffffffffffffffff1673ffffffffffffffffffffffffffffffffffffffff168152602001908152602001600020549050919050565b606060068054610a2f90611b49565b80601f0160208091040260200160405190810160405280929190818152602001828054610a5b90611b49565b8015610aa85780601f10610a7d57610100808354040283529160200191610aa8565b820191906000526020600020905b815481529060010190602001808311610a8b57829003601f168201915b5050505050905090565b600080339050610ac3818585611156565b600191505092915050565b6060600080600080600080600860008981526020019081526020016000209050806001018160020154826003015483600401548460050160009054906101000a900460ff168560050160019054906101000a900473ffffffffffffffffffffffffffffffffffffffff16858054610b4490611b49565b80601f0160208091040260200160405190810160405280929190818152602001828054610b7090611b49565b8015610bbd5780601f10610b9257610100808354040283529160200191610bbd565b820191906000526020600020905b815481529060010190602001808311610ba057829003601f168201915b505050505095509650965096509650965096505091939550919395565b600154821115610c1f576040517f08c379a0000000000000000000000000000000000000000000000000000000008152600401610c1690611c32565b60405180910390fd5b6000610c2a336109d7565b11610c6a576040517f08c379a0000000000000000000000000000000000000000000000000000000008152600401610c61906121a7565b60405180910390fd5b600060086000848152602001908152602001600020905080600401544210610cc7576040517f08c379a0000000000000000000000000000000000000000000000000000000008152600401610cbe90612213565b60405180910390fd5b8060060160003373ffffffffffffffffffffffffffffffffffffffff1673ffffffffffffffffffffffffffffffffffffffff16815260200190815260200160002060009054906101000a900460ff1615610d56576040517f08c379a0000000000000000000000000000000000000000000000000000000008152600401610d4d9061227f565b60405180910390fd5b6000610d61336109d7565b905060018260060160003373ffffffffffffffffffffffffffffffffffffffff1673ffffffffffffffffffffffffffffffffffffffff16815260200190815260200160002060006101000a81548160ff0219169083151502179055508215610de35780826002016000828254610dd791906120f7565b92505081905550610dff565b80826003016000828254610df791906120f7565b925050819055505b3373ffffffffffffffffffffffffffffffffffffffff16847f7c2de587c00d75474a0c6c6fa96fd3b45dc974cd4e8a75f712bb84c950dce1b58584604051610e4892919061229f565b60405180910390a350505050565b6000600360008473ffffffffffffffffffffffffffffffffffffffff1673ffffffffffffffffffffffffffffffffffffffff16815260200190815260200160002060008373ffffffffffffffffffffffffffffffffffffffff1673ffffffffffffffffffffffffffffffffffffffff16815260200190815260200160002054905092915050565b60008054906101000a900473ffffffffffffffffffffffffffffffffffffffff1681565b600073ffffffffffffffffffffffffffffffffffffffff168373ffffffffffffffffffffffffffffffffffffffff1603610f70576040517f08c379a0000000000000000000000000000000000000000000000000000000008152600401610f679061233a565b60405180910390fd5b600073ffffffffffffffffffffffffffffffffffffffff168273ffffffffffffffffffffffffffffffffffffffff1603610fdf576040517f08c379a0000000000000000000000000000000000000000000000000000000008152600401610fd6906123cc565b60405180910390fd5b80600360008573ffffffffffffffffffffffffffffffffffffffff1673ffffffffffffffffffffffffffffffffffffffff16815260200190815260200160002060008473ffffffffffffffffffffffffffffffffffffffff1673ffffffffffffffffffffffffffffffffffffffff168152602001908152602001600020819055508173ffffffffffffffffffffffffffffffffffffffff168373ffffffffffffffffffffffffffffffffffffffff167f8c5be1e5ebec7d5bd14f71427d1e84f3dd0314c0f7b2291e5b200ac8c7c3b925836040516110bd919061179b565b60405180910390a3505050565b60006110d68484610e56565b90507fffffffffffffffffffffffffffffffffffffffffffffffffffffffffffffffff81146111505781811015611142576040517f08c379a000000000000000000000000000000000000000000000000000000000815260040161113990612438565b60405180910390fd5b61114f8484848403610f01565b5b50505050565b600073ffffffffffffffffffffffffffffffffffffffff168373ffffffffffffffffffffffffffffffffffffffff16036111c5576040517f08c379a00000000000000000000000000000000000000000000000000000000081526004016111bc906124ca565b60405180910390fd5b600073ffffffffffffffffffffffffffffffffffffffff168273ffffffffffffffffffffffffffffffffffffffff1603611234576040517f08c379a000000000000000000000000000000000000000000000000000000000815260040161122b9061255c565b60405180910390fd5b6000600260008573ffffffffffffffffffffffffffffffffffffffff1673ffffffffffffffffffffffffffffffffffffffff168152602001908152602001600020549050818110156112bb576040517f08c379a00000000000000000000000000000000000000000000000000000000081526004016112b2906125ee565b60405180910390fd5b818103600260008673ffffffffffffffffffffffffffffffffffffffff1673ffffffffffffffffffffffffffffffffffffffff1681526020019081526020016000208190555081600260008573ffffffffffffffffffffffffffffffffffffffff1673ffffffffffffffffffffffffffffffffffffffff168152602001908152602001600020600082825461135091906120f7565b925050819055508273ffffffffffffffffffffffffffffffffffffffff168473ffffffffffffffffffffffffffffffffffffffff167fddf252ad1be2c89b69c2b068fc378daa952ba7f163c4a11628f55a4df523b3ef846040516113b4919061179b565b60405180910390a350505050565b600073ffffffffffffffffffffffffffffffffffffffff168273ffffffffffffffffffffffffffffffffffffffff1603611431576040517f08c379a00000000000000000000000000000000000000000000000000000000081526004016114289061265a565b60405180910390fd5b806004600082825461144391906120f7565b9250508190555080600260008473ffffffffffffffffffffffffffffffffffffffff1673ffffffffffffffffffffffffffffffffffffffff168152602001908152602001600020600082825461149991906120f7565b925050819055508173ffffffffffffffffffffffffffffffffffffffff16600073ffffffffffffffffffffffffffffffffffffffff167fddf252ad1be2c89b69c2b068fc378daa952ba7f163c4a11628f55a4df523b3ef836040516114fe919061179b565b60405180910390a35050565b6000604051905090565b600080fd5b600080fd5b6000819050919050565b6115318161151e565b811461153c57600080fd5b50565b60008135905061154e81611528565b92915050565b60006020828403121561156a57611569611514565b5b60006115788482850161153f565b91505092915050565b61158a8161151e565b82525050565b600081519050919050565b600082825260208201905092915050565b60005b838110156115ca5780820151818401526020810190506115af565b60008484015250505050565b6000601f19601f8301169050919050565b60006115f282611590565b6115fc818561159b565b935061160c8185602086016115ac565b611615816115d6565b840191505092915050565b60008115159050919050565b61163581611620565b82525050565b600073ffffffffffffffffffffffffffffffffffffffff82169050919050565b60006116668261163b565b9050919050565b6116768161165b565b82525050565b600060e082019050611691600083018a611581565b81810360208301526116a381896115e7565b90506116b26040830188611581565b6116bf6060830187611581565b6116cc6080830186611581565b6116d960a083018561162c565b6116e660c083018461166d565b98975050505050505050565b6000602082019050818103600083015261170c81846115e7565b905092915050565b61171d8161165b565b811461172857600080fd5b50565b60008135905061173a81611714565b92915050565b6000806040838503121561175757611756611514565b5b60006117658582860161172b565b92505060206117768582860161153f565b9150509250929050565b6000602082019050611795600083018461162c565b92915050565b60006020820190506117b06000830184611581565b92915050565b6000806000606084860312156117cf576117ce611514565b5b60006117dd8682870161172b565b93505060206117ee8682870161172b565b92505060406117ff8682870161153f565b9150509250925092565b600060ff82169050919050565b61181f81611809565b82525050565b600060208201905061183a6000830184611816565b92915050565b600080fd5b600080fd5b7f4e487b7100000000000000000000000000000000000000000000000000000000600052604160045260246000fd5b611882826115d6565b810181811067ffffffffffffffff821117156118a1576118a061184a565b5b80604052505050565b60006118b461150a565b90506118c08282611879565b919050565b600067ffffffffffffffff8211156118e0576118df61184a565b5b6118e9826115d6565b9050602081019050919050565b82818337600083830152505050565b6000611918611913846118c5565b6118aa565b90508281526020810184848401111561193457611933611845565b5b61193f8482856118f6565b509392505050565b600082601f83011261195c5761195b611840565b5b813561196c848260208601611905565b91505092915050565b60006020828403121561198b5761198a611514565b5b600082013567ffffffffffffffff8111156119a9576119a8611519565b5b6119b584828501611947565b91505092915050565b6000602082840312156119d4576119d3611514565b5b60006119e28482850161172b565b91505092915050565b600060c0820190508181036000830152611a0581896115e7565b9050611a146020830188611581565b611a216040830187611581565b611a2e6060830186611581565b611a3b608083018561162c565b611a4860a083018461166d565b979650505050505050565b611a5c81611620565b8114611a6757600080fd5b50565b600081359050611a7981611a53565b92915050565b60008060408385031215611a9657611a95611514565b5b6000611aa48582860161153f565b9250506020611ab585828601611a6a565b9150509250929050565b60008060408385031215611ad657611ad5611514565b5b6000611ae48582860161172b565b9250506020611af58582860161172b565b9150509250929050565b6000602082019050611b14600083018461166d565b92915050565b7f4e487b7100000000000000000000000000000000000000000000000000000000600052602260045260246000fd5b60006002820490506001821680611b6157607f821691505b602082108103611b7457611b73611b1a565b5b50919050565b7f4f6e6c792061646d696e00000000000000000000000000000000000000000000600082015250565b6000611bb0600a8361159b565b9150611bbb82611b7a565b602082019050919050565b60006020820190508181036000830152611bdf81611ba3565b9050919050565b7f50726f706f73616c20646f6573206e6f74206578697374000000000000000000600082015250565b6000611c1c60178361159b565b9150611c2782611be6565b602082019050919050565b60006020820190508181036000830152611c4b81611c0f565b9050919050565b7f566f74696e67206e6f7420656e64656400000000000000000000000000000000600082015250565b6000611c8860108361159b565b9150611c9382611c52565b602082019050919050565b60006020820190508181036000830152611cb781611c7b565b9050919050565b7f416c726561647920657865637574656400000000000000000000000000000000600082015250565b6000611cf460108361159b565b9150611cff82611cbe565b602082019050919050565b60006020820190508181036000830152611d2381611ce7565b9050919050565b7f50726f706f73616c206661696c65640000000000000000000000000000000000600082015250565b6000611d60600f8361159b565b9150611d6b82611d2a565b602082019050919050565b60006020820190508181036000830152611d8f81611d53565b9050919050565b7f4d75737420686f6c6420746f6b656e7320746f2070726f706f73650000000000600082015250565b6000611dcc601b8361159b565b9150611dd782611d96565b602082019050919050565b60006020820190508181036000830152611dfb81611dbf565b9050919050565b7f4e487b7100000000000000000000000000000000000000000000000000000000600052601160045260246000fd5b6000611e3c8261151e565b91507fffffffffffffffffffffffffffffffffffffffffffffffffffffffffffffffff8203611e6e57611e6d611e02565b5b600182019050919050565b60008190508160005260206000209050919050565b60006020601f8301049050919050565b600082821b905092915050565b600060088302611edb7fffffffffffffffffffffffffffffffffffffffffffffffffffffffffffffffff82611e9e565b611ee58683611e9e565b95508019841693508086168417925050509392505050565b6000819050919050565b6000611f22611f1d611f188461151e565b611efd565b61151e565b9050919050565b6000819050919050565b611f3c83611f07565b611f50611f4882611f29565b848454611eab565b825550505050565b600090565b611f65611f58565b611f70818484611f33565b505050565b5b81811015611f9457611f89600082611f5d565b600181019050611f76565b5050565b601f821115611fd957611faa81611e79565b611fb384611e8e565b81016020851015611fc2578190505b611fd6611fce85611e8e565b830182611f75565b50505b505050565b600082821c905092915050565b6000611ffc60001984600802611fde565b1980831691505092915050565b60006120158383611feb565b9150826002028217905092915050565b61202e82611590565b67ffffffffffffffff8111156120475761204661184a565b5b6120518254611b49565b61205c828285611f98565b600060209050601f83116001811461208f576000841561207d578287015190505b6120878582612009565b8655506120ef565b601f19841661209d86611e79565b60005b828110156120c5578489015182556001820191506020850194506020810190506120a0565b868310156120e257848901516120de601f891682611feb565b8355505b6001600288020188555050505b505050505050565b60006121028261151e565b915061210d8361151e565b925082820190508082111561212557612124611e02565b5b92915050565b6000604082019050818103600083015261214581856115e7565b9050612154602083018461166d565b9392505050565b7f4d75737420686f6c6420746f6b656e7320746f20766f74650000000000000000600082015250565b600061219160188361159b565b915061219c8261215b565b602082019050919050565b600060208201905081810360008301526121c081612184565b9050919050565b7f566f74696e6720656e6465640000000000000000000000000000000000000000600082015250565b60006121fd600c8361159b565b9150612208826121c7565b602082019050919050565b6000602082019050818103600083015261222c816121f0565b9050919050565b7f416c726561647920766f74656400000000000000000000000000000000000000600082015250565b6000612269600d8361159b565b915061227482612233565b602082019050919050565b600060208201905081810360008301526122988161225c565b9050919050565b60006040820190506122b4600083018561162c565b6122c16020830184611581565b9392505050565b7f45524332303a20617070726f76652066726f6d20746865207a65726f2061646460008201527f7265737300000000000000000000000000000000000000000000000000000000602082015250565b600061232460248361159b565b915061232f826122c8565b604082019050919050565b6000602082019050818103600083015261235381612317565b9050919050565b7f45524332303a20617070726f766520746f20746865207a65726f20616464726560008201527f7373000000000000000000000000000000000000000000000000000000000000602082015250565b60006123b660228361159b565b91506123c18261235a565b604082019050919050565b600060208201905081810360008301526123e5816123a9565b9050919050565b7f45524332303a20696e73756666696369656e7420616c6c6f77616e6365000000600082015250565b6000612422601d8361159b565b915061242d826123ec565b602082019050919050565b6000602082019050818103600083015261245181612415565b9050919050565b7f45524332303a207472616e736665722066726f6d20746865207a65726f20616460008201527f6472657373000000000000000000000000000000000000000000000000000000602082015250565b60006124b460258361159b565b91506124bf82612458565b604082019050919050565b600060208201905081810360008301526124e3816124a7565b9050919050565b7f45524332303a207472616e7366657220746f20746865207a65726f206164647260008201527f6573730000000000000000000000000000000000000000000000000000000000602082015250565b600061254660238361159b565b9150612551826124ea565b604082019050919050565b6000602082019050818103600083015261257581612539565b9050919050565b7f45524332303a207472616e7366657220616d6f756e742065786365656473206260008201527f616c616e63650000000000000000000000000000000000000000000000000000602082015250565b60006125d860268361159b565b91506125e38261257c565b604082019050919050565b60006020820190508181036000830152612607816125cb565b9050919050565b7f45524332303a206d696e7420746f20746865207a65726f206164647265737300600082015250565b6000612644601f8361159b565b915061264f8261260e565b602082019050919050565b6000602082019050818103600083015261267381612637565b905091905056fea2646970667358221220600b4ad69e87358724538ee9532c158da1feceeec13a1f5fca0b069697c0549664736f6c63430008130033","linkReferences":{}},"methodIdentifiers":{"admin()":"f851a440","allowance(address,address)":"dd62ed3e","approve(address,uint256)":"095ea7b3","balanceOf(address)":"70a08231","createProposal(string)":"49c2a1a6","decimals()":"313ce567","executeProposal(uint256)":"0d61b519","getProposal(uint256)":"c7f758a8","mint(address,uint256)":"40c10f19","name()":"06fdde03","proposalCounter()":"0c0512e9","proposals(uint256)":"013cf08b","symbol()":"95d89b41","totalSupply()":"18160ddd","transfer(address,uint256)":"a9059cbb","transferFrom(address,address,uint256)":"23b872dd","vote(uint256,bool)":"c9d27afe"},"id":1}