{"abi":[{"type":"constructor","inputs":[{"name":"_admin","type":"address","internalType":"address"},{"name":"name_","type":"string","internalType":"string"},{"name":"symbol_","type":"string","internalType":"string"},{"name":"_royaltyRecipient","type":"address","internalType":"address"},{"name":"_royaltyBps","type":"uint256","internalType":"uint256"}],"stateMutability":"nonpayable"},{"type":"function","name":"admin","inputs":[],"outputs":[{"name":"","type":"address","internalType":"address"}],"stateMutability":"view"},{"type":"function","name":"approve","inputs":[{"name":"to","type":"address","internalType":"address"},{"name":"tokenId","type":"uint256","internalType":"uint256"}],"outputs":[],"stateMutability":"nonpayable"},{"type":"function","name":"balanceOf","inputs":[{"name":"owner","type":"address","internalType":"address"}],"outputs":[{"name":"","type":"uint256","internalType":"uint256"}],"stateMutability":"view"},{"type":"function","name":"courses","inputs":[{"name":"","type":"uint256","internalType":"uint256"}],"outputs":[{"name":"tokenId","type":"uint256","internalType":"uint256"},{"name":"uri","type":"string","internalType":"string"},{"name":"price","type":"uint256","internalType":"uint256"},{"name":"creator","type":"address","internalType":"address"},{"name":"purchased","type":"bool","internalType":"bool"},{"name":"purchaser","type":"address","internalType":"address"}],"stateMutability":"view"},{"type":"function","name":"getApproved","inputs":[{"name":"tokenId","type":"uint256","internalType":"uint256"}],"outputs":[{"name":"","type":"address","internalType":"address"}],"stateMutability":"view"},{"type":"function","name":"getCourse","inputs":[{"name":"tokenId","type":"uint256","internalType":"uint256"}],"outputs":[{"name":"uri","type":"string","internalType":"string"},{"name":"price","type":"uint256","internalType":"uint256"},{"name":"creator","type":"address","internalType":"address"},{"name":"purchased","type":"bool","internalType":"bool"},{"name":"purchaser","type":"address","internalType":"address"}],"stateMutability":"view"},{"type":"function","name":"isApprovedForAll","inputs":[{"name":"owner","type":"address","internalType":"address"},{"name":"operator","type":"address","internalType":"address"}],"outputs":[{"name":"","type":"bool","internalType":"bool"}],"stateMutability":"view"},{"type":"function","name":"lazyMint","inputs":[{"name":"uri","type":"string","internalType":"string"},{"name":"price","type":"uint256","internalType":"uint256"}],"outputs":[{"name":"","type":"uint256","internalType":"uint256"}],"stateMutability":"nonpayable"},{"type":"function","name":"name","inputs":[],"outputs":[{"name":"","type":"string","internalType":"string"}],"stateMutability":"view"},{"type":"function","name":"ownerOf","inputs":[{"name":"tokenId","type":"uint256","internalType":"uint256"}],"outputs":[{"name":"","type":"address","internalType":"address"}],"stateMutability":"view"},{"type":"function","name":"purchase","inputs":[{"name":"tokenId","type":"uint256","internalType":"uint256"}],"outputs":[],"stateMutability":"payable"},{"type":"function","name":"royaltyBps","inputs":[],"outputs":[{"name":"","type":"uint256","internalType":"uint256"}],"stateMutability":"view"},{"type":"function","name":"royaltyRecipient","inputs":[],"outputs":[{"name":"","type":"address","internalType":"address"}],"stateMutability":"view"},{"type":"function","name":"safeTransferFrom","inputs":[{"name":"from","type":"address","internalType":"address"},{"name":"to","type":"address","internalType":"address"},{"name":"tokenId","type":"uint256","internalType":"uint256"}],"outputs":[],"stateMutability":"nonpayable"},{"type":"function","name":"safeTransferFrom","inputs":[{"name":"from","type":"address","internalType":"address"},{"name":"to","type":"address","internalType":"address"},{"name":"tokenId","type":"uint256","internalType":"uint256"},{"name":"","type":"bytes","internalType":"bytes"}],"outputs":[],"stateMutability":"nonpayable"},{"type":"function","name":"setApprovalForAll","inputs":[{"name":"operator","type":"address","internalType":"address"},{"name":"approved","type":"bool","internalType":"bool"}],"outputs":[],"stateMutability":"nonpayable"},{"type":"function","name":"setRoyalty","inputs":[{"name":"recipient","type":"address","internalType":"address"},{"name":"bps","type":"uint256","internalType":"uint256"}],"outputs":[],"stateMutability":"nonpayable"},{"type":"function","name":"supportsInterface","inputs":[{"name":"interfaceId","type":"bytes4","internalType":"bytes4"}],"outputs":[{"name":"","type":"bool","internalType":"bool"}],"stateMutability":"pure"},{"type":"function","name":"symbol","inputs":[],"outputs":[{"name":"","type":"string","internalType":"string"}],"stateMutability":"view"},{"type":"function","name":"tokenIdCounter","inputs":[],"outputs":[{"name":"","type":"uint256","internalType":"uint256"}],"stateMutability":"view"},{"type":"function","name":"tokenURI","inputs":[{"name":"tokenId","type":"uint256","internalType":"uint256"}],"outputs":[{"name":"","type":"string","internalType":"string"}],"stateMutability":"view"},{"type":"function","name":"transferFrom","inputs":[{"name":"from","type":"address","internalType":"address"},{"name":"to","type":"address","internalType":"address"},{"name":"tokenId","type":"uint256","internalType":"uint256"}],"outputs":[],"stateMutability":"nonpayable"},{"type":"event","name":"Approval","inputs":[{"name":"owner","type":"address","indexed":true,"internalType":"address"},{"name":"approved","type":"address","indexed":true,"internalType":"address"},{"name":"tokenId","type":"uint256","indexed":true,"internalType":"uint256"}],"anonymous":false},{"type":"event","name":"ApprovalForAll","inputs":[{"name":"owner","type":"address","indexed":true,"internalType":"address"},{"name":"operator","type":"address","indexed":true,"internalType":"address"},{"name":"approved","type":"bool","indexed":false,"internalType":"bool"}],"anonymous":false},{"type":"event","name":"CourseMinted","inputs":[{"name":"tokenId","type":"uint256","indexed":true,"internalType":"uint256"},{"name":"uri","type":"string","indexed":false,"internalType":"string"},{"name":"price","type":"uint256","indexed":false,"internalType":"uint256"}],"anonymous":false},{"type":"event","name":"CoursePurchased","inputs":[{"name":"tokenId","type":"uint256","indexed":true,"internalType":"uint256"},{"name":"buyer","type":"address","indexed":true,"internalType":"address"},{"name":"price","type":"uint256","indexed":false,"internalType":"uint256"}],"anonymous":false},{"type":"event","name":"Transfer","inputs":[{"name":"from","type":"address","indexed":true,"internalType":"address"},{"name":"to","type":"address","indexed":true,"internalType":"address"},{"name":"tokenId","type":"uint256","indexed":true,"internalType":"uint256"}],"anonymous":false}],"bytecode":{"object":"0x60806040523480156200001157600080fd5b5060405162001f6738038062001f6783398101604081905262000034916200017d565b600080546001600160a01b0319166001600160a01b03871617905560046200005d8582620002a6565b5060056200006c8482620002a6565b50600180546001600160a01b0319166001600160a01b0393909316929092179091556002555062000372915050565b80516001600160a01b0381168114620000b357600080fd5b919050565b634e487b7160e01b600052604160045260246000fd5b600082601f830112620000e057600080fd5b81516001600160401b0380821115620000fd57620000fd620000b8565b604051601f8301601f19908116603f01168101908282118183101715620001285762000128620000b8565b816040528381526020925086838588010111156200014557600080fd5b600091505b838210156200016957858201830151818301840152908201906200014a565b600093810190920192909252949350505050565b600080600080600060a086880312156200019657600080fd5b620001a1866200009b565b60208701519095506001600160401b0380821115620001bf57600080fd5b620001cd89838a01620000ce565b95506040880151915080821115620001e457600080fd5b50620001f388828901620000ce565b93505062000204606087016200009b565b9150608086015190509295509295909350565b600181811c908216806200022c57607f821691505b6020821081036200024d57634e487b7160e01b600052602260045260246000fd5b50919050565b601f821115620002a157600081815260208120601f850160051c810160208610156200027c5750805b601f850160051c820191505b818110156200029d5782815560010162000288565b5050505b505050565b81516001600160401b03811115620002c257620002c2620000b8565b620002da81620002d3845462000217565b8462000253565b602080601f831160018114620003125760008415620002f95750858301515b600019600386901b1c1916600185901b1785556200029d565b600085815260208120601f198616915b82811015620003435788860151825594840194600190910190840162000322565b5085821015620003625787850151600019600388901b60f8161c191681555b5050505050600190811b01905550565b611be580620003826000396000f3fe6080604052600436106101355760003560e01c806395d89b41116100ab578063c63adb2b1161006f578063c63adb2b14610387578063c87b56dd1461039d578063df923b16146103bd578063e985e9c5146103dd578063efef39a1146103fd578063f851a4401461041057600080fd5b806395d89b41146102ea57806396f979d2146102ff57806398bdf6f514610331578063a22cb46514610347578063b88d4fde1461036757600080fd5b806310fd332b116100fd57806310fd332b1461021c57806323b872dd1461023c57806342842e0e1461025c5780634c00de821461027c5780636352211e1461029c57806370a08231146102bc57600080fd5b806301ffc9a71461013a57806306fdde031461016f578063081812fc14610191578063095ea7b3146101c95780630b91e28d146101eb575b600080fd5b34801561014657600080fd5b5061015a61015536600461161c565b610430565b60405190151581526020015b60405180910390f35b34801561017b57600080fd5b50610184610482565b6040516101669190611693565b34801561019d57600080fd5b506101b16101ac3660046116a6565b610514565b6040516001600160a01b039091168152602001610166565b3480156101d557600080fd5b506101e96101e43660046116db565b6105a1565b005b3480156101f757600080fd5b5061020b6102063660046116a6565b6106b6565b604051610166959493929190611705565b34801561022857600080fd5b506101e96102373660046116db565b6107a2565b34801561024857600080fd5b506101e9610257366004611747565b610854565b34801561026857600080fd5b506101e9610277366004611747565b6108cf565b34801561028857600080fd5b506001546101b1906001600160a01b031681565b3480156102a857600080fd5b506101b16102b73660046116a6565b6108da565b3480156102c857600080fd5b506102dc6102d7366004611783565b610951565b604051908152602001610166565b3480156102f657600080fd5b506101846109d8565b34801561030b57600080fd5b5061031f61031a3660046116a6565b6109e7565b6040516101669695949392919061179e565b34801561033d57600080fd5b506102dc60035481565b34801561035357600080fd5b506101e96103623660046117e7565b610ab7565b34801561037357600080fd5b506101e96103823660046118af565b610b7b565b34801561039357600080fd5b506102dc60025481565b3480156103a957600080fd5b506101846103b83660046116a6565b610b8c565b3480156103c957600080fd5b506102dc6103d836600461192b565b610c91565b3480156103e957600080fd5b5061015a6103f8366004611984565b610e41565b6101e961040b3660046116a6565b610e6f565b34801561041c57600080fd5b506000546101b1906001600160a01b031681565b60006301ffc9a760e01b6001600160e01b03198316148061046157506380ac58cd60e01b6001600160e01b03198316145b8061047c5750635b5e139f60e01b6001600160e01b03198316145b92915050565b606060048054610491906119b7565b80601f01602080910402602001604051908101604052809291908181526020018280546104bd906119b7565b801561050a5780601f106104df5761010080835404028352916020019161050a565b820191906000526020600020905b8154815290600101906020018083116104ed57829003601f168201915b5050505050905090565b600061051f82611174565b6105855760405162461bcd60e51b815260206004820152602c60248201527f4552433732313a20617070726f76656420717565727920666f72206e6f6e657860448201526b34b9ba32b73a103a37b5b2b760a11b60648201526084015b60405180910390fd5b506000908152600860205260409020546001600160a01b031690565b60006105ac826108da565b9050806001600160a01b0316836001600160a01b0316036106195760405162461bcd60e51b815260206004820152602160248201527f4552433732313a20617070726f76616c20746f2063757272656e74206f776e656044820152603960f91b606482015260840161057c565b336001600160a01b038216148061063557506106358133610e41565b6106a75760405162461bcd60e51b815260206004820152603860248201527f4552433732313a20617070726f76652063616c6c6572206973206e6f74206f7760448201527f6e6572206e6f7220617070726f76656420666f7220616c6c0000000000000000606482015260840161057c565b6106b18383611191565b505050565b6000818152600a602052604081206002810154600382015460048301546001840180546060969586958695869592949391926001600160a01b0380831693600160a01b90930460ff1692911690859061070e906119b7565b80601f016020809104026020016040519081016040528092919081815260200182805461073a906119b7565b80156107875780601f1061075c57610100808354040283529160200191610787565b820191906000526020600020905b81548152906001019060200180831161076a57829003601f168201915b50505050509450955095509550955095505091939590929450565b6000546001600160a01b031633146107e95760405162461bcd60e51b815260206004820152600a60248201526927b7363c9030b236b4b760b11b604482015260640161057c565b6103e881111561082e5760405162461bcd60e51b815260206004820152601060248201526f0a4def2c2d8e8f240e8dede40d0d2ced60831b604482015260640161057c565b600180546001600160a01b0319166001600160a01b039390931692909217909155600255565b61085e33826111ff565b6108c45760405162461bcd60e51b815260206004820152603160248201527f4552433732313a207472616e736665722063616c6c6572206973206e6f74206f6044820152701ddb995c881b9bdc88185c1c1c9bdd9959607a1b606482015260840161057c565b6106b18383836112c9565b6106b1838383610854565b6000818152600660205260408120546001600160a01b03168061047c5760405162461bcd60e51b815260206004820152602960248201527f4552433732313a206f776e657220717565727920666f72206e6f6e657869737460448201526832b73a103a37b5b2b760b91b606482015260840161057c565b60006001600160a01b0382166109bc5760405162461bcd60e51b815260206004820152602a60248201527f4552433732313a2062616c616e636520717565727920666f7220746865207a65604482015269726f206164647265737360b01b606482015260840161057c565b506001600160a01b031660009081526007602052604090205490565b606060058054610491906119b7565b600a6020526000908152604090208054600182018054919291610a09906119b7565b80601f0160208091040260200160405190810160405280929190818152602001828054610a35906119b7565b8015610a825780601f10610a5757610100808354040283529160200191610a82565b820191906000526020600020905b815481529060010190602001808311610a6557829003601f168201915b5050505060028301546003840154600490940154929390926001600160a01b038083169350600160a01b90920460ff16911686565b336001600160a01b03831603610b0f5760405162461bcd60e51b815260206004820152601960248201527f4552433732313a20617070726f766520746f2063616c6c657200000000000000604482015260640161057c565b3360008181526009602090815260408083206001600160a01b03871680855290835292819020805460ff191686151590811790915590519081529192917f17307eab39ab6107e8899845ad3d59bd9653f200f220920489ca2b5937696c31910160405180910390a35050565b610b86848484610854565b50505050565b6060610b9782611174565b610bf35760405162461bcd60e51b815260206004820152602760248201527f4552433732313a2055524920717565727920666f72206e6f6e6578697374656e6044820152663a103a37b5b2b760c91b606482015260840161057c565b6000828152600b602052604090208054610c0c906119b7565b80601f0160208091040260200160405190810160405280929190818152602001828054610c38906119b7565b8015610c855780601f10610c5a57610100808354040283529160200191610c85565b820191906000526020600020905b815481529060010190602001808311610c6857829003601f168201915b50505050509050919050565b600080546001600160a01b03163314610cd95760405162461bcd60e51b815260206004820152600a60248201526927b7363c9030b236b4b760b11b604482015260640161057c565b67016345785d8a0000821015610d215760405162461bcd60e51b815260206004820152600d60248201526c507269636520746f6f206c6f7760981b604482015260640161057c565b60038054906000610d3183611a07565b90915550506003546040805160c081018252828152602080820187815282840187905233606084015260006080840181905260a08401819052858152600a9092529290208151815591519091906001820190610d8d9082611a6e565b5060408201516002820155606082015160038201805460808501511515600160a01b026001600160a81b03199091166001600160a01b039384161717905560a09092015160049091018054919092166001600160a01b031991909116179055610df63082611465565b610e008185611598565b807ff1bb441c32899d0c0f74b3e4f9458665cf3a5277666055103cd789912dd4dba68585604051610e32929190611b2e565b60405180910390a29392505050565b6001600160a01b03918216600090815260096020908152604080832093909416825291909152205460ff1690565b610e7881611174565b610ebc5760405162461bcd60e51b815260206004820152601560248201527410dbdd5c9cd948191bd95cc81b9bdd08195e1a5cdd605a1b604482015260640161057c565b6000818152600a6020526040902060030154600160a01b900460ff1615610f255760405162461bcd60e51b815260206004820152601860248201527f436f7572736520616c7265616479207075726368617365640000000000000000604482015260640161057c565b6000818152600a6020526040902060020154341015610f7d5760405162461bcd60e51b8152602060048201526014602482015273125b9cdd59999a58da595b9d081c185e5b595b9d60621b604482015260640161057c565b6000818152600a6020526040812060038101805460ff60a01b1916600160a01b17905560040180546001600160a01b0319163317905560025461271090610fc49034611b50565b610fce9190611b67565b90506000610fdc8234611b89565b9050610fe93033856112c9565b6000838152600a60205260408082206003015490516001600160a01b039091169083908381818185875af1925050503d8060008114611044576040519150601f19603f3d011682016040523d82523d6000602084013e611049565b606091505b50509050806110935760405162461bcd60e51b815260206004820152601660248201527510dc99585d1bdc881c185e5b595b9d0819985a5b195960521b604482015260640161057c565b8215611137576001546040516000916001600160a01b03169085908381818185875af1925050503d80600081146110e6576040519150601f19603f3d011682016040523d82523d6000602084013e6110eb565b606091505b50509050806111355760405162461bcd60e51b8152602060048201526016602482015275149bde585b1d1e481c185e5b595b9d0819985a5b195960521b604482015260640161057c565b505b604051348152339085907f6d846848ed199e5a5cc3af1d2846d9e5aa7d59c948360982923973138cbc241b9060200160405180910390a350505050565b6000908152600660205260409020546001600160a01b0316151590565b600081815260086020526040902080546001600160a01b0319166001600160a01b03841690811790915581906111c6826108da565b6001600160a01b03167f8c5be1e5ebec7d5bd14f71427d1e84f3dd0314c0f7b2291e5b200ac8c7c3b92560405160405180910390a45050565b600061120a82611174565b61126b5760405162461bcd60e51b815260206004820152602c60248201527f4552433732313a206f70657261746f7220717565727920666f72206e6f6e657860448201526b34b9ba32b73a103a37b5b2b760a11b606482015260840161057c565b6000611276836108da565b9050806001600160a01b0316846001600160a01b031614806112b15750836001600160a01b03166112a684610514565b6001600160a01b0316145b806112c157506112c18185610e41565b949350505050565b826001600160a01b03166112dc826108da565b6001600160a01b0316146113405760405162461bcd60e51b815260206004820152602560248201527f4552433732313a207472616e736665722066726f6d20696e636f72726563742060448201526437bbb732b960d91b606482015260840161057c565b6001600160a01b0382166113a25760405162461bcd60e51b8152602060048201526024808201527f4552433732313a207472616e7366657220746f20746865207a65726f206164646044820152637265737360e01b606482015260840161057c565b6113ad600082611191565b6001600160a01b03831660009081526007602052604081208054600192906113d6908490611b89565b90915550506001600160a01b0382166000908152600760205260408120805460019290611404908490611b9c565b909155505060008181526006602052604080822080546001600160a01b0319166001600160a01b0386811691821790925591518493918716917fddf252ad1be2c89b69c2b068fc378daa952ba7f163c4a11628f55a4df523b3ef91a4505050565b6001600160a01b0382166114bb5760405162461bcd60e51b815260206004820181905260248201527f4552433732313a206d696e7420746f20746865207a65726f2061646472657373604482015260640161057c565b6114c481611174565b156115115760405162461bcd60e51b815260206004820152601c60248201527f4552433732313a20746f6b656e20616c7265616479206d696e74656400000000604482015260640161057c565b6001600160a01b038216600090815260076020526040812080546001929061153a908490611b9c565b909155505060008181526006602052604080822080546001600160a01b0319166001600160a01b03861690811790915590518392907fddf252ad1be2c89b69c2b068fc378daa952ba7f163c4a11628f55a4df523b3ef908290a45050565b6115a182611174565b6116045760405162461bcd60e51b815260206004820152602e60248201527f45524337323155524953746f726167653a2055524920736574206f66206e6f6e60448201526d32bc34b9ba32b73a103a37b5b2b760911b606482015260840161057c565b6000828152600b602052604090206106b18282611a6e565b60006020828403121561162e57600080fd5b81356001600160e01b03198116811461164657600080fd5b9392505050565b6000815180845260005b8181101561167357602081850181015186830182015201611657565b506000602082860101526020601f19601f83011685010191505092915050565b602081526000611646602083018461164d565b6000602082840312156116b857600080fd5b5035919050565b80356001600160a01b03811681146116d657600080fd5b919050565b600080604083850312156116ee57600080fd5b6116f7836116bf565b946020939093013593505050565b60a08152600061171860a083018861164d565b6020830196909652506001600160a01b0393841660408201529115156060830152909116608090910152919050565b60008060006060848603121561175c57600080fd5b611765846116bf565b9250611773602085016116bf565b9150604084013590509250925092565b60006020828403121561179557600080fd5b611646826116bf565b86815260c0602082015260006117b760c083018861164d565b6040830196909652506001600160a01b039384166060820152911515608083015290911660a09091015292915050565b600080604083850312156117fa57600080fd5b611803836116bf565b91506020830135801515811461181857600080fd5b809150509250929050565b634e487b7160e01b600052604160045260246000fd5b600067ffffffffffffffff8084111561185457611854611823565b604051601f8501601f19908116603f0116810190828211818310171561187c5761187c611823565b8160405280935085815286868601111561189557600080fd5b858560208301376000602087830101525050509392505050565b600080600080608085870312156118c557600080fd5b6118ce856116bf565b93506118dc602086016116bf565b925060408501359150606085013567ffffffffffffffff8111156118ff57600080fd5b8501601f8101871361191057600080fd5b61191f87823560208401611839565b91505092959194509250565b6000806040838503121561193e57600080fd5b823567ffffffffffffffff81111561195557600080fd5b8301601f8101851361196657600080fd5b61197585823560208401611839565b95602094909401359450505050565b6000806040838503121561199757600080fd5b6119a0836116bf565b91506119ae602084016116bf565b90509250929050565b600181811c908216806119cb57607f821691505b6020821081036119eb57634e487b7160e01b600052602260045260246000fd5b50919050565b634e487b7160e01b600052601160045260246000fd5b600060018201611a1957611a196119f1565b5060010190565b601f8211156106b157600081815260208120601f850160051c81016020861015611a475750805b601f850160051c820191505b81811015611a6657828155600101611a53565b505050505050565b815167ffffffffffffffff811115611a8857611a88611823565b611a9c81611a9684546119b7565b84611a20565b602080601f831160018114611ad15760008415611ab95750858301515b600019600386901b1c1916600185901b178555611a66565b600085815260208120601f198616915b82811015611b0057888601518255948401946001909101908401611ae1565b5085821015611b1e5787850151600019600388901b60f8161c191681555b5050505050600190811b01905550565b604081526000611b41604083018561164d565b90508260208301529392505050565b808202811582820484141761047c5761047c6119f1565b600082611b8457634e487b7160e01b600052601260045260246000fd5b500490565b8181038181111561047c5761047c6119f1565b8082018082111561047c5761047c6119f156fea264697066735822122068249137b5d57141f4e808e2bea800c1e3e70513e5ffe83c27542f5bf9d1d32a64736f6c63430008130033","linkReferences":{}},"methodIdentifiers":{"admin()":"f851a440","approve(address,uint256)":"095ea7b3","balanceOf(address)":"70a08231","courses(uint256)":"96f979d2","getApproved(uint256)":"081812fc","getCourse(uint256)":"0b91e28d","isApprovedForAll(address,address)":"e985e9c5","lazyMint(string,uint256)":"df923b16","name()":"06fdde03","ownerOf(uint256)":"6352211e","purchase(uint256)":"efef39a1","royaltyBps()":"c63adb2b","royaltyRecipient()":"4c00de82","safeTransferFrom(address,address,uint256)":"42842e0e","safeTransferFrom(address,address,uint256,bytes)":"b88d4fde","setApprovalForAll(address,bool)":"a22cb465","setRoyalty(address,uint256)":"10fd332b","supportsInterface(bytes4)":"01ffc9a7","symbol()":"95d89b41","tokenIdCounter()":"98bdf6f5","tokenURI(uint256)":"c87b56dd","transferFrom(address,address,uint256)":"23b872dd"},"id":0}