{"abi":[{"type":"constructor","inputs":[{"name":"_admin","type":"address","internalType":"address"},{"name":"name_","type":"string","internalType":"string"},{"name":"symbol_","type":"string","internalType":"string"},{"name":"_royaltyRecipient","type":"address","internalType":"address"},{"name":"_royaltyBps","type":"uint256","internalType":"uint256"}],"stateMutability":"nonpayable"},{"type":"function","name":"admin","inputs":[],"outputs":[{"name":"","type":"address","internalType":"address"}],"stateMutability":"view"},{"type":"function","name":"approve","inputs":[{"name":"to","type":"address","internalType":"address"},{"name":"tokenId","type":"uint256","internalType":"uint256"}],"outputs":[],"stateMutability":"nonpayable"},{"type":"function","name":"balanceOf","inputs":[{"name":"owner","type":"address","internalType":"address"}],"outputs":[{"name":"","type":"uint256","internalType":"uint256"}],"stateMutability":"view"},{"type":"function","name":"courses","inputs":[{"name":"","type":"uint256","internalType":"uint256"}],"outputs":[{"name":"tokenId","type":"uint256","internalType":"uint256"},{"name":"uri","type":"string","internalType":"string"},{"name":"price","type":"uint256","internalType":"uint256"},{"name":"creator","type":"address","internalType":"address"},{"name":"purchased","type":"bool","internalType":"bool"},{"name":"purchaser","type":"address","internalType":"address"}],"stateMutability":"view"},{"type":"function","name":"getApproved","inputs":[{"name":"tokenId","type":"uint256","internalType":"uint256"}],"outputs":[{"name":"","type":"address","internalType":"address"}],"stateMutability":"view"},{"type":"function","name":"getCourse","inputs":[{"name":"tokenId","type":"uint256","internalType":"uint256"}],"outputs":[{"name":"uri","type":"string","internalType":"string"},{"name":"price","type":"uint256","internalType":"uint256"},{"name":"creator","type":"address","internalType":"address"},{"name":"purchased","type":"bool","internalType":"bool"},{"name":"purchaser","type":"address","internalType":"address"}],"stateMutability":"view"},{"type":"function","name":"isApprovedForAll","inputs":[{"name":"owner","type":"address","internalType":"address"},{"name":"operator","type":"address","internalType":"address"}],"outputs":[{"name":"","type":"bool","internalType":"bool"}],"stateMutability":"view"},{"type":"function","name":"lazyMint","inputs":[{"name":"uri","type":"string","internalType":"string"},{"name":"price","type":"uint256","internalType":"uint256"}],"outputs":[{"name":"","type":"uint256","internalType":"uint256"}],"stateMutability":"nonpayable"},{"type":"function","name":"name","inputs":[],"outputs":[{"name":"","type":"string","internalType":"string"}],"stateMutability":"view"},{"type":"function","name":"ownerOf","inputs":[{"name":"tokenId","type":"uint256","internalType":"uint256"}],"outputs":[{"name":"","type":"address","internalType":"address"}],"stateMutability":"view"},{"type":"function","name":"purchase","inputs":[{"name":"tokenId","type":"uint256","internalType":"uint256"}],"outputs":[],"stateMutability":"payable"},{"type":"function","name":"royaltyBps","inputs":[],"outputs":[{"name":"","type":"uint256","internalType":"uint256"}],"stateMutability":"view"},{"type":"function","name":"royaltyRecipient","inputs":[],"outputs":[{"name":"","type":"address","internalType":"address"}],"stateMutability":"view"},{"type":"function","name":"safeTransferFrom","inputs":[{"name":"from","type":"address","internalType":"address"},{"name":"to","type":"address","internalType":"address"},{"name":"tokenId","type":"uint256","internalType":"uint256"}],"outputs":[],"stateMutability":"nonpayable"},{"type":"function","name":"safeTransferFrom","inputs":[{"name":"from","type":"address","internalType":"address"},{"name":"to","type":"address","internalType":"address"},{"name":"tokenId","type":"uint256","internalType":"uint256"},{"name":"","type":"bytes","internalType":"bytes"}],"outputs":[],"stateMutability":"nonpayable"},{"type":"function","name":"setApprovalForAll","inputs":[{"name":"operator","type":"address","internalType":"address"},{"name":"approved","type":"bool","internalType":"bool"}],"outputs":[],"stateMutability":"nonpayable"},{"type":"function","name":"setRoyalty","inputs":[{"name":"recipient","type":"address","internalType":"address"},{"name":"bps","type":"uint256","internalType":"uint256"}],"outputs":[],"stateMutability":"nonpayable"},{"type":"function","name":"supportsInterface","inputs":[{"name":"interfaceId","type":"bytes4","internalType":"bytes4"}],"outputs":[{"name":"","type":"bool","internalType":"bool"}],"stateMutability":"pure"},{"type":"function","name":"symbol","inputs":[],"outputs":[{"name":"","type":"string","internalType":"string"}],"stateMutability":"view"},{"type":"function","name":"tokenIdCounter","inputs":[],"outputs":[{"name":"","type":"uint256","internalType":"uint256"}],"stateMutability":"view"},{"type":"function","name":"tokenURI","inputs":[{"name":"tokenId","type":"uint256","internalType":"uint256"}],"outputs":[{"name":"","type":"string","internalType":"string"}],"stateMutability":"view"},{"type":"function","name":"transferFrom","inputs":[{"name":"from","type":"address","internalType":"address"},{"name":"to","type":"address","internalType":"address"},{"name":"tokenId","type":"uint256","internalType":"uint256"}],"outputs":[],"stateMutability":"nonpayable"},{"type":"event","name":"Approval","inputs":[{"name":"owner","type":"address","indexed":true,"internalType":"address"},{"name":"approved","type":"address","indexed":true,"internalType":"address"},{"name":"tokenId","type":"uint256","indexed":true,"internalType":"uint256"}],"anonymous":false},{"type":"event","name":"ApprovalForAll","inputs":[{"name":"owner","type":"address","indexed":true,"internalType":"address"},{"name":"operator","type":"address","indexed":true,"internalType":"address"},{"name":"approved","type":"bool","indexed":false,"internalType":"bool"}],"anonymous":false},{"type":"event","name":"CourseMinted","inputs":[{"name":"tokenId","type":"uint256","indexed":true,"internalType":"uint256"},{"name":"uri","type":"string","indexed":false,"internalType":"string"},{"name":"price","type":"uint256","indexed":false,"internalType":"uint256"}],"anonymous":false},{"type":"event","name":"CoursePurchased","inputs":[{"name":"tokenId","type":"uint256","indexed":true,"internalType":"uint256"},{"name":"buyer","type":"address","indexed":true,"internalType":"address"},{"name":"price","type":"uint256","indexed":false,"internalType":"uint256"}],"anonymous":false},{"type":"event","name":"Transfer","inputs":[{"name":"from","type":"address","indexed":true,"internalType":"address"},{"name":"to","type":"address","indexed":true,"internalType":"address"},{"name":"tokenId","type":"uint256","indexed":true,"internalType":"uint256"}],"anonymous":false}],"bytecode":{"object":"0x60806040523480156200001157600080fd5b5060405162003cb738038062003cb7833981810160405281019062000037919062000321565b846000806101000a81548173ffffffffffffffffffffffffffffffffffffffff021916908373ffffffffffffffffffffffffffffffffffffffff160217905550836004908162000088919062000628565b5082600590816200009a919062000628565b5081600160006101000a81548173ffffffffffffffffffffffffffffffffffffffff021916908373ffffffffffffffffffffffffffffffffffffffff1602179055508060028190555050505050506200070f565b6000604051905090565b600080fd5b600080fd5b600073ffffffffffffffffffffffffffffffffffffffff82169050919050565b60006200012f8262000102565b9050919050565b620001418162000122565b81146200014d57600080fd5b50565b600081519050620001618162000136565b92915050565b600080fd5b600080fd5b6000601f19601f8301169050919050565b7f4e487b7100000000000000000000000000000000000000000000000000000000600052604160045260246000fd5b620001bc8262000171565b810181811067ffffffffffffffff82111715620001de57620001dd62000182565b5b80604052505050565b6000620001f3620000ee565b9050620002018282620001b1565b919050565b600067ffffffffffffffff82111562000224576200022362000182565b5b6200022f8262000171565b9050602081019050919050565b60005b838110156200025c5780820151818401526020810190506200023f565b60008484015250505050565b60006200027f620002798462000206565b620001e7565b9050828152602081018484840111156200029e576200029d6200016c565b5b620002ab8482856200023c565b509392505050565b600082601f830112620002cb57620002ca62000167565b5b8151620002dd84826020860162000268565b91505092915050565b6000819050919050565b620002fb81620002e6565b81146200030757600080fd5b50565b6000815190506200031b81620002f0565b92915050565b600080600080600060a0868803121562000340576200033f620000f8565b5b6000620003508882890162000150565b955050602086015167ffffffffffffffff811115620003745762000373620000fd565b5b6200038288828901620002b3565b945050604086015167ffffffffffffffff811115620003a657620003a5620000fd565b5b620003b488828901620002b3565b9350506060620003c78882890162000150565b9250506080620003da888289016200030a565b9150509295509295909350565b600081519050919050565b7f4e487b7100000000000000000000000000000000000000000000000000000000600052602260045260246000fd5b600060028204905060018216806200043a57607f821691505b60208210810362000450576200044f620003f2565b5b50919050565b60008190508160005260206000209050919050565b60006020601f8301049050919050565b600082821b905092915050565b600060088302620004ba7fffffffffffffffffffffffffffffffffffffffffffffffffffffffffffffffff826200047b565b620004c686836200047b565b95508019841693508086168417925050509392505050565b6000819050919050565b60006200050962000503620004fd84620002e6565b620004de565b620002e6565b9050919050565b6000819050919050565b6200052583620004e8565b6200053d620005348262000510565b84845462000488565b825550505050565b600090565b6200055462000545565b620005618184846200051a565b505050565b5b8181101562000589576200057d6000826200054a565b60018101905062000567565b5050565b601f821115620005d857620005a28162000456565b620005ad846200046b565b81016020851015620005bd578190505b620005d5620005cc856200046b565b83018262000566565b50505b505050565b600082821c905092915050565b6000620005fd60001984600802620005dd565b1980831691505092915050565b6000620006188383620005ea565b9150826002028217905092915050565b6200063382620003e7565b67ffffffffffffffff8111156200064f576200064e62000182565b5b6200065b825462000421565b620006688282856200058d565b600060209050601f831160018114620006a057600084156200068b578287015190505b6200069785826200060a565b86555062000707565b601f198416620006b08662000456565b60005b82811015620006da57848901518255600182019150602085019450602081019050620006b3565b86831015620006fa5784890151620006f6601f891682620005ea565b8355505b6001600288020188555050505b505050505050565b613598806200071f6000396000f3fe6080604052600436106101355760003560e01c806395d89b41116100ab578063c63adb2b1161006f578063c63adb2b14610453578063c87b56dd1461047e578063df923b16146104bb578063e985e9c5146104f8578063efef39a114610535578063f851a4401461055157610135565b806395d89b411461036957806396f979d21461039457806398bdf6f5146103d6578063a22cb46514610401578063b88d4fde1461042a57610135565b806310fd332b116100fd57806310fd332b1461024957806323b872dd1461027257806342842e0e1461029b5780634c00de82146102c45780636352211e146102ef57806370a082311461032c57610135565b806301ffc9a71461013a57806306fdde0314610177578063081812fc146101a2578063095ea7b3146101df5780630b91e28d14610208575b600080fd5b34801561014657600080fd5b50610161600480360381019061015c9190611e96565b61057c565b60405161016e9190611ede565b60405180910390f35b34801561018357600080fd5b5061018c61060e565b6040516101999190611f89565b60405180910390f35b3480156101ae57600080fd5b506101c960048036038101906101c49190611fe1565b6106a0565b6040516101d6919061204f565b60405180910390f35b3480156101eb57600080fd5b5061020660048036038101906102019190612096565b610725565b005b34801561021457600080fd5b5061022f600480360381019061022a9190611fe1565b61082e565b6040516102409594939291906120e5565b60405180910390f35b34801561025557600080fd5b50610270600480360381019061026b9190612096565b610952565b005b34801561027e57600080fd5b506102996004803603810190610294919061213f565b610a71565b005b3480156102a757600080fd5b506102c260048036038101906102bd919061213f565b610aca565b005b3480156102d057600080fd5b506102d9610ada565b6040516102e6919061204f565b60405180910390f35b3480156102fb57600080fd5b5061031660048036038101906103119190611fe1565b610b00565b604051610323919061204f565b60405180910390f35b34801561033857600080fd5b50610353600480360381019061034e9190612192565b610bb1565b60405161036091906121bf565b60405180910390f35b34801561037557600080fd5b5061037e610c68565b60405161038b9190611f89565b60405180910390f35b3480156103a057600080fd5b506103bb60048036038101906103b69190611fe1565b610cfa565b6040516103cd969594939291906121da565b60405180910390f35b3480156103e257600080fd5b506103eb610e0b565b6040516103f891906121bf565b60405180910390f35b34801561040d57600080fd5b506104286004803603810190610423919061226e565b610e11565b005b34801561043657600080fd5b50610451600480360381019061044c91906123e3565b610f7c565b005b34801561045f57600080fd5b50610468610f8d565b60405161047591906121bf565b60405180910390f35b34801561048a57600080fd5b506104a560048036038101906104a09190611fe1565b610f93565b6040516104b29190611f89565b60405180910390f35b3480156104c757600080fd5b506104e260048036038101906104dd9190612507565b611080565b6040516104ef91906121bf565b60405180910390f35b34801561050457600080fd5b5061051f600480360381019061051a9190612563565b61131e565b60405161052c9190611ede565b60405180910390f35b61054f600480360381019061054a9190611fe1565b6113b2565b005b34801561055d57600080fd5b50610566611785565b604051610573919061204f565b60405180910390f35b60006301ffc9a760e01b827bffffffffffffffffffffffffffffffffffffffffffffffffffffffff191614806105d757506380ac58cd60e01b827bffffffffffffffffffffffffffffffffffffffffffffffffffffffff1916145b806106075750635b5e139f60e01b827bffffffffffffffffffffffffffffffffffffffffffffffffffffffff1916145b9050919050565b60606004805461061d906125d2565b80601f0160208091040260200160405190810160405280929190818152602001828054610649906125d2565b80156106965780601f1061066b57610100808354040283529160200191610696565b820191906000526020600020905b81548152906001019060200180831161067957829003601f168201915b5050505050905090565b60006106ab826117a9565b6106ea576040517f08c379a00000000000000000000000000000000000000000000000000000000081526004016106e190612675565b60405180910390fd5b6008600083815260200190815260200160002060009054906101000a900473ffffffffffffffffffffffffffffffffffffffff169050919050565b600061073082610b00565b90508073ffffffffffffffffffffffffffffffffffffffff168373ffffffffffffffffffffffffffffffffffffffff16036107a0576040517f08c379a000000000000000000000000000000000000000000000000000000000815260040161079790612707565b60405180910390fd5b8073ffffffffffffffffffffffffffffffffffffffff163373ffffffffffffffffffffffffffffffffffffffff1614806107e057506107df813361131e565b5b61081f576040517f08c379a000000000000000000000000000000000000000000000000000000000815260040161081690612799565b60405180910390fd5b6108298383611815565b505050565b60606000806000806000600a600088815260200190815260200160002090508060010181600201548260030160009054906101000a900473ffffffffffffffffffffffffffffffffffffffff168360030160149054906101000a900460ff168460040160009054906101000a900473ffffffffffffffffffffffffffffffffffffffff168480546108be906125d2565b80601f01602080910402602001604051908101604052809291908181526020018280546108ea906125d2565b80156109375780601f1061090c57610100808354040283529160200191610937565b820191906000526020600020905b81548152906001019060200180831161091a57829003601f168201915b50505050509450955095509550955095505091939590929450565b60008054906101000a900473ffffffffffffffffffffffffffffffffffffffff1673ffffffffffffffffffffffffffffffffffffffff163373ffffffffffffffffffffffffffffffffffffffff16146109e0576040517f08c379a00000000000000000000000000000000000000000000000000000000081526004016109d790612805565b60405180910390fd5b6103e8811115610a25576040517f08c379a0000000000000000000000000000000000000000000000000000000008152600401610a1c90612871565b60405180910390fd5b81600160006101000a81548173ffffffffffffffffffffffffffffffffffffffff021916908373ffffffffffffffffffffffffffffffffffffffff160217905550806002819055505050565b610a7b33826118ce565b610aba576040517f08c379a0000000000000000000000000000000000000000000000000000000008152600401610ab190612903565b60405180910390fd5b610ac58383836119ac565b505050565b610ad5838383610a71565b505050565b600160009054906101000a900473ffffffffffffffffffffffffffffffffffffffff1681565b6000806006600084815260200190815260200160002060009054906101000a900473ffffffffffffffffffffffffffffffffffffffff169050600073ffffffffffffffffffffffffffffffffffffffff168173ffffffffffffffffffffffffffffffffffffffff1603610ba8576040517f08c379a0000000000000000000000000000000000000000000000000000000008152600401610b9f90612995565b60405180910390fd5b80915050919050565b60008073ffffffffffffffffffffffffffffffffffffffff168273ffffffffffffffffffffffffffffffffffffffff1603610c21576040517f08c379a0000000000000000000000000000000000000000000000000000000008152600401610c1890612a27565b60405180910390fd5b600760008373ffffffffffffffffffffffffffffffffffffffff1673ffffffffffffffffffffffffffffffffffffffff168152602001908152602001600020549050919050565b606060058054610c77906125d2565b80601f0160208091040260200160405190810160405280929190818152602001828054610ca3906125d2565b8015610cf05780601f10610cc557610100808354040283529160200191610cf0565b820191906000526020600020905b815481529060010190602001808311610cd357829003601f168201915b5050505050905090565b600a602052806000526040600020600091509050806000015490806001018054610d23906125d2565b80601f0160208091040260200160405190810160405280929190818152602001828054610d4f906125d2565b8015610d9c5780601f10610d7157610100808354040283529160200191610d9c565b820191906000526020600020905b815481529060010190602001808311610d7f57829003601f168201915b5050505050908060020154908060030160009054906101000a900473ffffffffffffffffffffffffffffffffffffffff16908060030160149054906101000a900460ff16908060040160009054906101000a900473ffffffffffffffffffffffffffffffffffffffff16905086565b60035481565b3373ffffffffffffffffffffffffffffffffffffffff168273ffffffffffffffffffffffffffffffffffffffff1603610e7f576040517f08c379a0000000000000000000000000000000000000000000000000000000008152600401610e7690612a93565b60405180910390fd5b80600960003373ffffffffffffffffffffffffffffffffffffffff1673ffffffffffffffffffffffffffffffffffffffff16815260200190815260200160002060008473ffffffffffffffffffffffffffffffffffffffff1673ffffffffffffffffffffffffffffffffffffffff16815260200190815260200160002060006101000a81548160ff0219169083151502179055508173ffffffffffffffffffffffffffffffffffffffff163373ffffffffffffffffffffffffffffffffffffffff167f17307eab39ab6107e8899845ad3d59bd9653f200f220920489ca2b5937696c3183604051610f709190611ede565b60405180910390a35050565b610f87848484610a71565b50505050565b60025481565b6060610f9e826117a9565b610fdd576040517f08c379a0000000000000000000000000000000000000000000000000000000008152600401610fd490612b25565b60405180910390fd5b600b60008381526020019081526020016000208054610ffb906125d2565b80601f0160208091040260200160405190810160405280929190818152602001828054611027906125d2565b80156110745780601f1061104957610100808354040283529160200191611074565b820191906000526020600020905b81548152906001019060200180831161105757829003601f168201915b50505050509050919050565b60008060009054906101000a900473ffffffffffffffffffffffffffffffffffffffff1673ffffffffffffffffffffffffffffffffffffffff163373ffffffffffffffffffffffffffffffffffffffff1614611111576040517f08c379a000000000000000000000000000000000000000000000000000000000815260040161110890612805565b60405180910390fd5b67016345785d8a000082101561115c576040517f08c379a000000000000000000000000000000000000000000000000000000000815260040161115390612b91565b60405180910390fd5b6003600081548092919061116f90612be0565b9190505550600060035490506040518060c001604052808281526020018581526020018481526020013373ffffffffffffffffffffffffffffffffffffffff168152602001600015158152602001600073ffffffffffffffffffffffffffffffffffffffff16815250600a600083815260200190815260200160002060008201518160000155602082015181600101908161120a9190612dd4565b506040820151816002015560608201518160030160006101000a81548173ffffffffffffffffffffffffffffffffffffffff021916908373ffffffffffffffffffffffffffffffffffffffff16021790555060808201518160030160146101000a81548160ff02191690831515021790555060a08201518160040160006101000a81548173ffffffffffffffffffffffffffffffffffffffff021916908373ffffffffffffffffffffffffffffffffffffffff1602179055509050506112d03082611bfc565b6112da8185611dbd565b807ff1bb441c32899d0c0f74b3e4f9458665cf3a5277666055103cd789912dd4dba6858560405161130c929190612ea6565b60405180910390a28091505092915050565b6000600960008473ffffffffffffffffffffffffffffffffffffffff1673ffffffffffffffffffffffffffffffffffffffff16815260200190815260200160002060008373ffffffffffffffffffffffffffffffffffffffff1673ffffffffffffffffffffffffffffffffffffffff16815260200190815260200160002060009054906101000a900460ff16905092915050565b6113bb816117a9565b6113fa576040517f08c379a00000000000000000000000000000000000000000000000000000000081526004016113f190612f22565b60405180910390fd5b600a600082815260200190815260200160002060030160149054906101000a900460ff161561145e576040517f08c379a000000000000000000000000000000000000000000000000000000000815260040161145590612f8e565b60405180910390fd5b600a6000828152602001908152602001600020600201543410156114b7576040517f08c379a00000000000000000000000000000000000000000000000000000000081526004016114ae90612ffa565b60405180910390fd5b6001600a600083815260200190815260200160002060030160146101000a81548160ff02191690831515021790555033600a600083815260200190815260200160002060040160006101000a81548173ffffffffffffffffffffffffffffffffffffffff021916908373ffffffffffffffffffffffffffffffffffffffff16021790555060006127106002543461154e919061301a565b611558919061308b565b90506000813461156891906130bc565b90506115753033856119ac565b6000600a600085815260200190815260200160002060030160009054906101000a900473ffffffffffffffffffffffffffffffffffffffff1673ffffffffffffffffffffffffffffffffffffffff16826040516115d190613121565b60006040518083038185875af1925050503d806000811461160e576040519150601f19603f3d011682016040523d82523d6000602084013e611613565b606091505b5050905080611657576040517f08c379a000000000000000000000000000000000000000000000000000000000815260040161164e90613182565b60405180910390fd5b6000831115611730576000600160009054906101000a900473ffffffffffffffffffffffffffffffffffffffff1673ffffffffffffffffffffffffffffffffffffffff16846040516116a890613121565b60006040518083038185875af1925050503d80600081146116e5576040519150601f19603f3d011682016040523d82523d6000602084013e6116ea565b606091505b505090508061172e576040517f08c379a0000000000000000000000000000000000000000000000000000000008152600401611725906131ee565b60405180910390fd5b505b3373ffffffffffffffffffffffffffffffffffffffff16847f6d846848ed199e5a5cc3af1d2846d9e5aa7d59c948360982923973138cbc241b3460405161177791906121bf565b60405180910390a350505050565b60008054906101000a900473ffffffffffffffffffffffffffffffffffffffff1681565b60008073ffffffffffffffffffffffffffffffffffffffff166006600084815260200190815260200160002060009054906101000a900473ffffffffffffffffffffffffffffffffffffffff1673ffffffffffffffffffffffffffffffffffffffff1614159050919050565b816008600083815260200190815260200160002060006101000a81548173ffffffffffffffffffffffffffffffffffffffff021916908373ffffffffffffffffffffffffffffffffffffffff160217905550808273ffffffffffffffffffffffffffffffffffffffff1661188883610b00565b73ffffffffffffffffffffffffffffffffffffffff167f8c5be1e5ebec7d5bd14f71427d1e84f3dd0314c0f7b2291e5b200ac8c7c3b92560405160405180910390a45050565b60006118d9826117a9565b611918576040517f08c379a000000000000000000000000000000000000000000000000000000000815260040161190f90613280565b60405180910390fd5b600061192383610b00565b90508073ffffffffffffffffffffffffffffffffffffffff168473ffffffffffffffffffffffffffffffffffffffff16148061199257508373ffffffffffffffffffffffffffffffffffffffff1661197a846106a0565b73ffffffffffffffffffffffffffffffffffffffff16145b806119a357506119a2818561131e565b5b91505092915050565b8273ffffffffffffffffffffffffffffffffffffffff166119cc82610b00565b73ffffffffffffffffffffffffffffffffffffffff1614611a22576040517f08c379a0000000000000000000000000000000000000000000000000000000008152600401611a1990613312565b60405180910390fd5b600073ffffffffffffffffffffffffffffffffffffffff168273ffffffffffffffffffffffffffffffffffffffff1603611a91576040517f08c379a0000000000000000000000000000000000000000000000000000000008152600401611a88906133a4565b60405180910390fd5b611a9c600082611815565b6001600760008573ffffffffffffffffffffffffffffffffffffffff1673ffffffffffffffffffffffffffffffffffffffff1681526020019081526020016000206000828254611aec91906130bc565b925050819055506001600760008473ffffffffffffffffffffffffffffffffffffffff1673ffffffffffffffffffffffffffffffffffffffff1681526020019081526020016000206000828254611b4391906133c4565b92505081905550816006600083815260200190815260200160002060006101000a81548173ffffffffffffffffffffffffffffffffffffffff021916908373ffffffffffffffffffffffffffffffffffffffff160217905550808273ffffffffffffffffffffffffffffffffffffffff168473ffffffffffffffffffffffffffffffffffffffff167fddf252ad1be2c89b69c2b068fc378daa952ba7f163c4a11628f55a4df523b3ef60405160405180910390a4505050565b600073ffffffffffffffffffffffffffffffffffffffff168273ffffffffffffffffffffffffffffffffffffffff1603611c6b576040517f08c379a0000000000000000000000000000000000000000000000000000000008152600401611c6290613444565b60405180910390fd5b611c74816117a9565b15611cb4576040517f08c379a0000000000000000000000000000000000000000000000000000000008152600401611cab906134b0565b60405180910390fd5b6001600760008473ffffffffffffffffffffffffffffffffffffffff1673ffffffffffffffffffffffffffffffffffffffff1681526020019081526020016000206000828254611d0491906133c4565b92505081905550816006600083815260200190815260200160002060006101000a81548173ffffffffffffffffffffffffffffffffffffffff021916908373ffffffffffffffffffffffffffffffffffffffff160217905550808273ffffffffffffffffffffffffffffffffffffffff16600073ffffffffffffffffffffffffffffffffffffffff167fddf252ad1be2c89b69c2b068fc378daa952ba7f163c4a11628f55a4df523b3ef60405160405180910390a45050565b611dc6826117a9565b611e05576040517f08c379a0000000000000000000000000000000000000000000000000000000008152600401611dfc90613542565b60405180910390fd5b80600b60008481526020019081526020016000209081611e259190612dd4565b505050565b6000604051905090565b600080fd5b600080fd5b60007fffffffff0000000000000000000000000000000000000000000000000000000082169050919050565b611e7381611e3e565b8114611e7e57600080fd5b50565b600081359050611e9081611e6a565b92915050565b600060208284031215611eac57611eab611e34565b5b6000611eba84828501611e81565b91505092915050565b60008115159050919050565b611ed881611ec3565b82525050565b6000602082019050611ef36000830184611ecf565b92915050565b600081519050919050565b600082825260208201905092915050565b60005b83811015611f33578082015181840152602081019050611f18565b60008484015250505050565b6000601f19601f8301169050919050565b6000611f5b82611ef9565b611f658185611f04565b9350611f75818560208601611f15565b611f7e81611f3f565b840191505092915050565b60006020820190508181036000830152611fa38184611f50565b905092915050565b6000819050919050565b611fbe81611fab565b8114611fc957600080fd5b50565b600081359050611fdb81611fb5565b92915050565b600060208284031215611ff757611ff6611e34565b5b600061200584828501611fcc565b91505092915050565b600073ffffffffffffffffffffffffffffffffffffffff82169050919050565b60006120398261200e565b9050919050565b6120498161202e565b82525050565b60006020820190506120646000830184612040565b92915050565b6120738161202e565b811461207e57600080fd5b50565b6000813590506120908161206a565b92915050565b600080604083850312156120ad576120ac611e34565b5b60006120bb85828601612081565b92505060206120cc85828601611fcc565b9150509250929050565b6120df81611fab565b82525050565b600060a08201905081810360008301526120ff8188611f50565b905061210e60208301876120d6565b61211b6040830186612040565b6121286060830185611ecf565b6121356080830184612040565b9695505050505050565b60008060006060848603121561215857612157611e34565b5b600061216686828701612081565b935050602061217786828701612081565b925050604061218886828701611fcc565b9150509250925092565b6000602082840312156121a8576121a7611e34565b5b60006121b684828501612081565b91505092915050565b60006020820190506121d460008301846120d6565b92915050565b600060c0820190506121ef60008301896120d6565b81810360208301526122018188611f50565b905061221060408301876120d6565b61221d6060830186612040565b61222a6080830185611ecf565b61223760a0830184612040565b979650505050505050565b61224b81611ec3565b811461225657600080fd5b50565b60008135905061226881612242565b92915050565b6000806040838503121561228557612284611e34565b5b600061229385828601612081565b92505060206122a485828601612259565b9150509250929050565b600080fd5b600080fd5b7f4e487b7100000000000000000000000000000000000000000000000000000000600052604160045260246000fd5b6122f082611f3f565b810181811067ffffffffffffffff8211171561230f5761230e6122b8565b5b80604052505050565b6000612322611e2a565b905061232e82826122e7565b919050565b600067ffffffffffffffff82111561234e5761234d6122b8565b5b61235782611f3f565b9050602081019050919050565b82818337600083830152505050565b600061238661238184612333565b612318565b9050828152602081018484840111156123a2576123a16122b3565b5b6123ad848285612364565b509392505050565b600082601f8301126123ca576123c96122ae565b5b81356123da848260208601612373565b91505092915050565b600080600080608085870312156123fd576123fc611e34565b5b600061240b87828801612081565b945050602061241c87828801612081565b935050604061242d87828801611fcc565b925050606085013567ffffffffffffffff81111561244e5761244d611e39565b5b61245a878288016123b5565b91505092959194509250565b600067ffffffffffffffff821115612481576124806122b8565b5b61248a82611f3f565b9050602081019050919050565b60006124aa6124a584612466565b612318565b9050828152602081018484840111156124c6576124c56122b3565b5b6124d1848285612364565b509392505050565b600082601f8301126124ee576124ed6122ae565b5b81356124fe848260208601612497565b91505092915050565b6000806040838503121561251e5761251d611e34565b5b600083013567ffffffffffffffff81111561253c5761253b611e39565b5b612548858286016124d9565b925050602061255985828601611fcc565b9150509250929050565b6000806040838503121561257a57612579611e34565b5b600061258885828601612081565b925050602061259985828601612081565b9150509250929050565b7f4e487b7100000000000000000000000000000000000000000000000000000000600052602260045260246000fd5b600060028204905060018216806125ea57607f821691505b6020821081036125fd576125fc6125a3565b5b50919050565b7f4552433732313a20617070726f76656420717565727920666f72206e6f6e657860008201527f697374656e7420746f6b656e0000000000000000000000000000000000000000602082015250565b600061265f602c83611f04565b915061266a82612603565b604082019050919050565b6000602082019050818103600083015261268e81612652565b9050919050565b7f4552433732313a20617070726f76616c20746f2063757272656e74206f776e6560008201527f7200000000000000000000000000000000000000000000000000000000000000602082015250565b60006126f1602183611f04565b91506126fc82612695565b604082019050919050565b60006020820190508181036000830152612720816126e4565b9050919050565b7f4552433732313a20617070726f76652063616c6c6572206973206e6f74206f7760008201527f6e6572206e6f7220617070726f76656420666f7220616c6c0000000000000000602082015250565b6000612783603883611f04565b915061278e82612727565b604082019050919050565b600060208201905081810360008301526127b281612776565b9050919050565b7f4f6e6c792061646d696e00000000000000000000000000000000000000000000600082015250565b60006127ef600a83611f04565b91506127fa826127b9565b602082019050919050565b6000602082019050818103600083015261281e816127e2565b9050919050565b7f526f79616c747920746f6f206869676800000000000000000000000000000000600082015250565b600061285b601083611f04565b915061286682612825565b602082019050919050565b6000602082019050818103600083015261288a8161284e565b9050919050565b7f4552433732313a207472616e736665722063616c6c6572206973206e6f74206f60008201527f776e6572206e6f7220617070726f766564000000000000000000000000000000602082015250565b60006128ed603183611f04565b91506128f882612891565b604082019050919050565b6000602082019050818103600083015261291c816128e0565b9050919050565b7f4552433732313a206f776e657220717565727920666f72206e6f6e657869737460008201527f656e7420746f6b656e0000000000000000000000000000000000000000000000602082015250565b600061297f602983611f04565b915061298a82612923565b604082019050919050565b600060208201905081810360008301526129ae81612972565b9050919050565b7f4552433732313a2062616c616e636520717565727920666f7220746865207a6560008201527f726f206164647265737300000000000000000000000000000000000000000000602082015250565b6000612a11602a83611f04565b9150612a1c826129b5565b604082019050919050565b60006020820190508181036000830152612a4081612a04565b9050919050565b7f4552433732313a20617070726f766520746f2063616c6c657200000000000000600082015250565b6000612a7d601983611f04565b9150612a8882612a47565b602082019050919050565b60006020820190508181036000830152612aac81612a70565b9050919050565b7f4552433732313a2055524920717565727920666f72206e6f6e6578697374656e60008201527f7420746f6b656e00000000000000000000000000000000000000000000000000602082015250565b6000612b0f602783611f04565b9150612b1a82612ab3565b604082019050919050565b60006020820190508181036000830152612b3e81612b02565b9050919050565b7f507269636520746f6f206c6f7700000000000000000000000000000000000000600082015250565b6000612b7b600d83611f04565b9150612b8682612b45565b602082019050919050565b60006020820190508181036000830152612baa81612b6e565b9050919050565b7f4e487b7100000000000000000000000000000000000000000000000000000000600052601160045260246000fd5b6000612beb82611fab565b91507fffffffffffffffffffffffffffffffffffffffffffffffffffffffffffffffff8203612c1d57612c1c612bb1565b5b600182019050919050565b60008190508160005260206000209050919050565b60006020601f8301049050919050565b600082821b905092915050565b600060088302612c8a7fffffffffffffffffffffffffffffffffffffffffffffffffffffffffffffffff82612c4d565b612c948683612c4d565b95508019841693508086168417925050509392505050565b6000819050919050565b6000612cd1612ccc612cc784611fab565b612cac565b611fab565b9050919050565b6000819050919050565b612ceb83612cb6565b612cff612cf782612cd8565b848454612c5a565b825550505050565b600090565b612d14612d07565b612d1f818484612ce2565b505050565b5b81811015612d4357612d38600082612d0c565b600181019050612d25565b5050565b601f821115612d8857612d5981612c28565b612d6284612c3d565b81016020851015612d71578190505b612d85612d7d85612c3d565b830182612d24565b50505b505050565b600082821c905092915050565b6000612dab60001984600802612d8d565b1980831691505092915050565b6000612dc48383612d9a565b9150826002028217905092915050565b612ddd82611ef9565b67ffffffffffffffff811115612df657612df56122b8565b5b612e0082546125d2565b612e0b828285612d47565b600060209050601f831160018114612e3e5760008415612e2c578287015190505b612e368582612db8565b865550612e9e565b601f198416612e4c86612c28565b60005b82811015612e7457848901518255600182019150602085019450602081019050612e4f565b86831015612e915784890151612e8d601f891682612d9a565b8355505b6001600288020188555050505b505050505050565b60006040820190508181036000830152612ec08185611f50565b9050612ecf60208301846120d6565b9392505050565b7f436f7572736520646f6573206e6f742065786973740000000000000000000000600082015250565b6000612f0c601583611f04565b9150612f1782612ed6565b602082019050919050565b60006020820190508181036000830152612f3b81612eff565b9050919050565b7f436f7572736520616c7265616479207075726368617365640000000000000000600082015250565b6000612f78601883611f04565b9150612f8382612f42565b602082019050919050565b60006020820190508181036000830152612fa781612f6b565b9050919050565b7f496e73756666696369656e74207061796d656e74000000000000000000000000600082015250565b6000612fe4601483611f04565b9150612fef82612fae565b602082019050919050565b6000602082019050818103600083015261301381612fd7565b9050919050565b600061302582611fab565b915061303083611fab565b925082820261303e81611fab565b9150828204841483151761305557613054612bb1565b5b5092915050565b7f4e487b7100000000000000000000000000000000000000000000000000000000600052601260045260246000fd5b600061309682611fab565b91506130a183611fab565b9250826130b1576130b061305c565b5b828204905092915050565b60006130c782611fab565b91506130d283611fab565b92508282039050818111156130ea576130e9612bb1565b5b92915050565b600081905092915050565b50565b600061310b6000836130f0565b9150613116826130fb565b600082019050919050565b600061312c826130fe565b9150819050919050565b7f43726561746f72207061796d656e74206661696c656400000000000000000000600082015250565b600061316c601683611f04565b915061317782613136565b602082019050919050565b6000602082019050818103600083015261319b8161315f565b9050919050565b7f526f79616c7479207061796d656e74206661696c656400000000000000000000600082015250565b60006131d8601683611f04565b91506131e3826131a2565b602082019050919050565b60006020820190508181036000830152613207816131cb565b9050919050565b7f4552433732313a206f70657261746f7220717565727920666f72206e6f6e657860008201527f697374656e7420746f6b656e0000000000000000000000000000000000000000602082015250565b600061326a602c83611f04565b91506132758261320e565b604082019050919050565b600060208201905081810360008301526132998161325d565b9050919050565b7f4552433732313a207472616e736665722066726f6d20696e636f72726563742060008201527f6f776e6572000000000000000000000000000000000000000000000000000000602082015250565b60006132fc602583611f04565b9150613307826132a0565b604082019050919050565b6000602082019050818103600083015261332b816132ef565b9050919050565b7f4552433732313a207472616e7366657220746f20746865207a65726f2061646460008201527f7265737300000000000000000000000000000000000000000000000000000000602082015250565b600061338e602483611f04565b915061339982613332565b604082019050919050565b600060208201905081810360008301526133bd81613381565b9050919050565b60006133cf82611fab565b91506133da83611fab565b92508282019050808211156133f2576133f1612bb1565b5b92915050565b7f4552433732313a206d696e7420746f20746865207a65726f2061646472657373600082015250565b600061342e602083611f04565b9150613439826133f8565b602082019050919050565b6000602082019050818103600083015261345d81613421565b9050919050565b7f4552433732313a20746f6b656e20616c7265616479206d696e74656400000000600082015250565b600061349a601c83611f04565b91506134a582613464565b602082019050919050565b600060208201905081810360008301526134c98161348d565b9050919050565b7f45524337323155524953746f726167653a2055524920736574206f66206e6f6e60008201527f6578697374656e7420746f6b656e000000000000000000000000000000000000602082015250565b600061352c602e83611f04565b9150613537826134d0565b604082019050919050565b6000602082019050818103600083015261355b8161351f565b905091905056fea264697066735822122078eae54b9b18edc495afe4a1d57718c804fa8242a7da2f7ae6388c635dfad9d164736f6c63430008130033","linkReferences":{}},"methodIdentifiers":{"admin()":"f851a440","approve(address,uint256)":"095ea7b3","balanceOf(address)":"70a08231","courses(uint256)":"96f979d2","getApproved(uint256)":"081812fc","getCourse(uint256)":"0b91e28d","isApprovedForAll(address,address)":"e985e9c5","lazyMint(string,uint256)":"df923b16","name()":"06fdde03","ownerOf(uint256)":"6352211e","purchase(uint256)":"efef39a1","royaltyBps()":"c63adb2b","royaltyRecipient()":"4c00de82","safeTransferFrom(address,address,uint256)":"42842e0e","safeTransferFrom(address,address,uint256,bytes)":"b88d4fde","setApprovalForAll(address,bool)":"a22cb465","setRoyalty(address,uint256)":"10fd332b","supportsInterface(bytes4)":"01ffc9a7","symbol()":"95d89b41","tokenIdCounter()":"98bdf6f5","tokenURI(uint256)":"c87b56dd","transferFrom(address,address,uint256)":"23b872dd"},"id":0}